{
	"contracts/Pair.sol": {
		"Pair": {
			"abi": [
				{
					"inputs": [
						{
							"internalType": "address",
							"name": "a",
							"type": "address"
						},
						{
							"internalType": "address",
							"name": "b",
							"type": "address"
						}
					],
					"stateMutability": "nonpayable",
					"type": "constructor"
				},
				{
					"inputs": [
						{
							"internalType": "address",
							"name": "spender",
							"type": "address"
						},
						{
							"internalType": "uint256",
							"name": "allowance",
							"type": "uint256"
						},
						{
							"internalType": "uint256",
							"name": "needed",
							"type": "uint256"
						}
					],
					"name": "ERC20InsufficientAllowance",
					"type": "error"
				},
				{
					"inputs": [
						{
							"internalType": "address",
							"name": "sender",
							"type": "address"
						},
						{
							"internalType": "uint256",
							"name": "balance",
							"type": "uint256"
						},
						{
							"internalType": "uint256",
							"name": "needed",
							"type": "uint256"
						}
					],
					"name": "ERC20InsufficientBalance",
					"type": "error"
				},
				{
					"inputs": [
						{
							"internalType": "address",
							"name": "approver",
							"type": "address"
						}
					],
					"name": "ERC20InvalidApprover",
					"type": "error"
				},
				{
					"inputs": [
						{
							"internalType": "address",
							"name": "receiver",
							"type": "address"
						}
					],
					"name": "ERC20InvalidReceiver",
					"type": "error"
				},
				{
					"inputs": [
						{
							"internalType": "address",
							"name": "sender",
							"type": "address"
						}
					],
					"name": "ERC20InvalidSender",
					"type": "error"
				},
				{
					"inputs": [
						{
							"internalType": "address",
							"name": "spender",
							"type": "address"
						}
					],
					"name": "ERC20InvalidSpender",
					"type": "error"
				},
				{
					"inputs": [
						{
							"internalType": "address",
							"name": "token",
							"type": "address"
						}
					],
					"name": "SafeERC20FailedOperation",
					"type": "error"
				},
				{
					"anonymous": false,
					"inputs": [
						{
							"indexed": true,
							"internalType": "address",
							"name": "user",
							"type": "address"
						},
						{
							"indexed": false,
							"internalType": "uint256",
							"name": "amountA",
							"type": "uint256"
						},
						{
							"indexed": false,
							"internalType": "uint256",
							"name": "amountB",
							"type": "uint256"
						},
						{
							"indexed": false,
							"internalType": "uint256",
							"name": "LP",
							"type": "uint256"
						}
					],
					"name": "AddLiquidity",
					"type": "event"
				},
				{
					"anonymous": false,
					"inputs": [
						{
							"indexed": true,
							"internalType": "address",
							"name": "owner",
							"type": "address"
						},
						{
							"indexed": true,
							"internalType": "address",
							"name": "spender",
							"type": "address"
						},
						{
							"indexed": false,
							"internalType": "uint256",
							"name": "value",
							"type": "uint256"
						}
					],
					"name": "Approval",
					"type": "event"
				},
				{
					"anonymous": false,
					"inputs": [
						{
							"indexed": true,
							"internalType": "address",
							"name": "user",
							"type": "address"
						},
						{
							"indexed": false,
							"internalType": "uint256",
							"name": "amountA",
							"type": "uint256"
						},
						{
							"indexed": false,
							"internalType": "uint256",
							"name": "amountB",
							"type": "uint256"
						},
						{
							"indexed": false,
							"internalType": "uint256",
							"name": "LP",
							"type": "uint256"
						}
					],
					"name": "RemoveLiquidity",
					"type": "event"
				},
				{
					"anonymous": false,
					"inputs": [
						{
							"indexed": true,
							"internalType": "address",
							"name": "user",
							"type": "address"
						},
						{
							"indexed": false,
							"internalType": "address",
							"name": "tokenIn",
							"type": "address"
						},
						{
							"indexed": false,
							"internalType": "address",
							"name": "tokenOut",
							"type": "address"
						},
						{
							"indexed": false,
							"internalType": "uint256",
							"name": "amountIn",
							"type": "uint256"
						},
						{
							"indexed": false,
							"internalType": "uint256",
							"name": "amountOut",
							"type": "uint256"
						},
						{
							"indexed": false,
							"internalType": "address",
							"name": "to",
							"type": "address"
						}
					],
					"name": "Swap",
					"type": "event"
				},
				{
					"anonymous": false,
					"inputs": [
						{
							"indexed": true,
							"internalType": "address",
							"name": "from",
							"type": "address"
						},
						{
							"indexed": true,
							"internalType": "address",
							"name": "to",
							"type": "address"
						},
						{
							"indexed": false,
							"internalType": "uint256",
							"name": "value",
							"type": "uint256"
						}
					],
					"name": "Transfer",
					"type": "event"
				},
				{
					"inputs": [
						{
							"internalType": "uint256",
							"name": "amountAIn",
							"type": "uint256"
						},
						{
							"internalType": "uint256",
							"name": "amountBIn",
							"type": "uint256"
						}
					],
					"name": "addLiquidity",
					"outputs": [
						{
							"internalType": "uint256",
							"name": "lp",
							"type": "uint256"
						}
					],
					"stateMutability": "nonpayable",
					"type": "function"
				},
				{
					"inputs": [
						{
							"internalType": "address",
							"name": "owner",
							"type": "address"
						},
						{
							"internalType": "address",
							"name": "spender",
							"type": "address"
						}
					],
					"name": "allowance",
					"outputs": [
						{
							"internalType": "uint256",
							"name": "",
							"type": "uint256"
						}
					],
					"stateMutability": "view",
					"type": "function"
				},
				{
					"inputs": [
						{
							"internalType": "address",
							"name": "spender",
							"type": "address"
						},
						{
							"internalType": "uint256",
							"name": "value",
							"type": "uint256"
						}
					],
					"name": "approve",
					"outputs": [
						{
							"internalType": "bool",
							"name": "",
							"type": "bool"
						}
					],
					"stateMutability": "nonpayable",
					"type": "function"
				},
				{
					"inputs": [
						{
							"internalType": "address",
							"name": "account",
							"type": "address"
						}
					],
					"name": "balanceOf",
					"outputs": [
						{
							"internalType": "uint256",
							"name": "",
							"type": "uint256"
						}
					],
					"stateMutability": "view",
					"type": "function"
				},
				{
					"inputs": [],
					"name": "decimals",
					"outputs": [
						{
							"internalType": "uint8",
							"name": "",
							"type": "uint8"
						}
					],
					"stateMutability": "view",
					"type": "function"
				},
				{
					"inputs": [],
					"name": "getReserves",
					"outputs": [
						{
							"internalType": "uint112",
							"name": "",
							"type": "uint112"
						},
						{
							"internalType": "uint112",
							"name": "",
							"type": "uint112"
						}
					],
					"stateMutability": "view",
					"type": "function"
				},
				{
					"inputs": [],
					"name": "name",
					"outputs": [
						{
							"internalType": "string",
							"name": "",
							"type": "string"
						}
					],
					"stateMutability": "view",
					"type": "function"
				},
				{
					"inputs": [
						{
							"internalType": "uint256",
							"name": "lp",
							"type": "uint256"
						}
					],
					"name": "removeLiquidity",
					"outputs": [
						{
							"internalType": "uint256",
							"name": "amountAOut",
							"type": "uint256"
						},
						{
							"internalType": "uint256",
							"name": "amountBOut",
							"type": "uint256"
						}
					],
					"stateMutability": "nonpayable",
					"type": "function"
				},
				{
					"inputs": [],
					"name": "reserveA",
					"outputs": [
						{
							"internalType": "uint112",
							"name": "",
							"type": "uint112"
						}
					],
					"stateMutability": "view",
					"type": "function"
				},
				{
					"inputs": [],
					"name": "reserveB",
					"outputs": [
						{
							"internalType": "uint112",
							"name": "",
							"type": "uint112"
						}
					],
					"stateMutability": "view",
					"type": "function"
				},
				{
					"inputs": [
						{
							"internalType": "address",
							"name": "tokenIn",
							"type": "address"
						},
						{
							"internalType": "uint256",
							"name": "amountIn",
							"type": "uint256"
						},
						{
							"internalType": "uint256",
							"name": "minOut",
							"type": "uint256"
						},
						{
							"internalType": "address",
							"name": "to",
							"type": "address"
						}
					],
					"name": "swap",
					"outputs": [
						{
							"internalType": "uint256",
							"name": "amountOut",
							"type": "uint256"
						}
					],
					"stateMutability": "nonpayable",
					"type": "function"
				},
				{
					"inputs": [],
					"name": "symbol",
					"outputs": [
						{
							"internalType": "string",
							"name": "",
							"type": "string"
						}
					],
					"stateMutability": "view",
					"type": "function"
				},
				{
					"inputs": [],
					"name": "tokenA",
					"outputs": [
						{
							"internalType": "address",
							"name": "",
							"type": "address"
						}
					],
					"stateMutability": "view",
					"type": "function"
				},
				{
					"inputs": [],
					"name": "tokenB",
					"outputs": [
						{
							"internalType": "address",
							"name": "",
							"type": "address"
						}
					],
					"stateMutability": "view",
					"type": "function"
				},
				{
					"inputs": [],
					"name": "totalSupply",
					"outputs": [
						{
							"internalType": "uint256",
							"name": "",
							"type": "uint256"
						}
					],
					"stateMutability": "view",
					"type": "function"
				},
				{
					"inputs": [
						{
							"internalType": "address",
							"name": "to",
							"type": "address"
						},
						{
							"internalType": "uint256",
							"name": "value",
							"type": "uint256"
						}
					],
					"name": "transfer",
					"outputs": [
						{
							"internalType": "bool",
							"name": "",
							"type": "bool"
						}
					],
					"stateMutability": "nonpayable",
					"type": "function"
				},
				{
					"inputs": [
						{
							"internalType": "address",
							"name": "from",
							"type": "address"
						},
						{
							"internalType": "address",
							"name": "to",
							"type": "address"
						},
						{
							"internalType": "uint256",
							"name": "value",
							"type": "uint256"
						}
					],
					"name": "transferFrom",
					"outputs": [
						{
							"internalType": "bool",
							"name": "",
							"type": "bool"
						}
					],
					"stateMutability": "nonpayable",
					"type": "function"
				}
			],
			"devdoc": {
				"errors": {
					"ERC20InsufficientAllowance(address,uint256,uint256)": [
						{
							"details": "Indicates a failure with the `spender`’s `allowance`. Used in transfers.",
							"params": {
								"allowance": "Amount of tokens a `spender` is allowed to operate with.",
								"needed": "Minimum amount required to perform a transfer.",
								"spender": "Address that may be allowed to operate on tokens without being their owner."
							}
						}
					],
					"ERC20InsufficientBalance(address,uint256,uint256)": [
						{
							"details": "Indicates an error related to the current `balance` of a `sender`. Used in transfers.",
							"params": {
								"balance": "Current balance for the interacting account.",
								"needed": "Minimum amount required to perform a transfer.",
								"sender": "Address whose tokens are being transferred."
							}
						}
					],
					"ERC20InvalidApprover(address)": [
						{
							"details": "Indicates a failure with the `approver` of a token to be approved. Used in approvals.",
							"params": {
								"approver": "Address initiating an approval operation."
							}
						}
					],
					"ERC20InvalidReceiver(address)": [
						{
							"details": "Indicates a failure with the token `receiver`. Used in transfers.",
							"params": {
								"receiver": "Address to which tokens are being transferred."
							}
						}
					],
					"ERC20InvalidSender(address)": [
						{
							"details": "Indicates a failure with the token `sender`. Used in transfers.",
							"params": {
								"sender": "Address whose tokens are being transferred."
							}
						}
					],
					"ERC20InvalidSpender(address)": [
						{
							"details": "Indicates a failure with the `spender` to be approved. Used in approvals.",
							"params": {
								"spender": "Address that may be allowed to operate on tokens without being their owner."
							}
						}
					],
					"SafeERC20FailedOperation(address)": [
						{
							"details": "An operation with an ERC-20 token failed."
						}
					]
				},
				"events": {
					"Approval(address,address,uint256)": {
						"details": "Emitted when the allowance of a `spender` for an `owner` is set by a call to {approve}. `value` is the new allowance."
					},
					"Transfer(address,address,uint256)": {
						"details": "Emitted when `value` tokens are moved from one account (`from`) to another (`to`). Note that `value` may be zero."
					}
				},
				"kind": "dev",
				"methods": {
					"allowance(address,address)": {
						"details": "Returns the remaining number of tokens that `spender` will be allowed to spend on behalf of `owner` through {transferFrom}. This is zero by default. This value changes when {approve} or {transferFrom} are called."
					},
					"approve(address,uint256)": {
						"details": "See {IERC20-approve}. NOTE: If `value` is the maximum `uint256`, the allowance is not updated on `transferFrom`. This is semantically equivalent to an infinite approval. Requirements: - `spender` cannot be the zero address."
					},
					"balanceOf(address)": {
						"details": "Returns the value of tokens owned by `account`."
					},
					"decimals()": {
						"details": "Returns the number of decimals used to get its user representation. For example, if `decimals` equals `2`, a balance of `505` tokens should be displayed to a user as `5.05` (`505 / 10 ** 2`). Tokens usually opt for a value of 18, imitating the relationship between Ether and Wei. This is the default value returned by this function, unless it's overridden. NOTE: This information is only used for _display_ purposes: it in no way affects any of the arithmetic of the contract, including {IERC20-balanceOf} and {IERC20-transfer}."
					},
					"name()": {
						"details": "Returns the name of the token."
					},
					"symbol()": {
						"details": "Returns the symbol of the token, usually a shorter version of the name."
					},
					"totalSupply()": {
						"details": "Returns the value of tokens in existence."
					},
					"transfer(address,uint256)": {
						"details": "See {IERC20-transfer}. Requirements: - `to` cannot be the zero address. - the caller must have a balance of at least `value`."
					},
					"transferFrom(address,address,uint256)": {
						"details": "See {IERC20-transferFrom}. Skips emitting an {Approval} event indicating an allowance update. This is not required by the ERC. See {xref-ERC20-_approve-address-address-uint256-bool-}[_approve]. NOTE: Does not update the allowance if the current allowance is the maximum `uint256`. Requirements: - `from` and `to` cannot be the zero address. - `from` must have a balance of at least `value`. - the caller must have allowance for ``from``'s tokens of at least `value`."
					}
				},
				"version": 1
			},
			"evm": {
				"assembly": "    /* \"contracts/Pair.sol\":187:3869  contract Pair is ERC20 {... */\n  mstore(0x40, 0xc0)\n    /* \"contracts/Pair.sol\":722:895  constructor (address a, address b) ERC20(\"LP token\", \"LP\"){... */\n  callvalue\n  dup1\n  iszero\n  tag_1\n  jumpi\n  revert(0x00, 0x00)\ntag_1:\n  pop\n  mload(0x40)\n  sub(codesize, bytecodeSize)\n  dup1\n  bytecodeSize\n  dup4\n  codecopy\n  dup2\n  dup2\n  add\n  0x40\n  mstore\n  dup2\n  add\n  swap1\n  tag_2\n  swap2\n  swap1\n  tag_3\n  jump\t// in\ntag_2:\n    /* \"@openzeppelin/contracts/token/ERC20/ERC20.sol\":1582:1695  constructor(string memory name_, string memory symbol_) {... */\n  mload(0x40)\n  dup1\n  0x40\n  add\n  0x40\n  mstore\n  dup1\n  0x08\n  dup2\n  mstore\n  0x20\n  add\n  0x4c5020746f6b656e000000000000000000000000000000000000000000000000\n  dup2\n  mstore\n  pop\n  mload(0x40)\n  dup1\n  0x40\n  add\n  0x40\n  mstore\n  dup1\n  0x02\n  dup2\n  mstore\n  0x20\n  add\n  0x4c50000000000000000000000000000000000000000000000000000000000000\n  dup2\n  mstore\n  pop\n    /* \"@openzeppelin/contracts/token/ERC20/ERC20.sol\":1656:1661  name_ */\n  dup2\n    /* \"@openzeppelin/contracts/token/ERC20/ERC20.sol\":1648:1653  _name */\n  0x03\n    /* \"@openzeppelin/contracts/token/ERC20/ERC20.sol\":1648:1661  _name = name_ */\n  swap1\n  dup2\n  tag_7\n  swap2\n  swap1\n  tag_8\n  jump\t// in\ntag_7:\n  pop\n    /* \"@openzeppelin/contracts/token/ERC20/ERC20.sol\":1681:1688  symbol_ */\n  dup1\n    /* \"@openzeppelin/contracts/token/ERC20/ERC20.sol\":1671:1678  _symbol */\n  0x04\n    /* \"@openzeppelin/contracts/token/ERC20/ERC20.sol\":1671:1688  _symbol = symbol_ */\n  swap1\n  dup2\n  tag_9\n  swap2\n  swap1\n  tag_8\n  jump\t// in\ntag_9:\n  pop\n    /* \"@openzeppelin/contracts/token/ERC20/ERC20.sol\":1582:1695  constructor(string memory name_, string memory symbol_) {... */\n  pop\n  pop\n    /* \"contracts/Pair.sol\":805:806  b */\n  dup1\n    /* \"contracts/Pair.sol\":800:806  a != b */\n  0xffffffffffffffffffffffffffffffffffffffff\n  and\n    /* \"contracts/Pair.sol\":800:801  a */\n  dup3\n    /* \"contracts/Pair.sol\":800:806  a != b */\n  0xffffffffffffffffffffffffffffffffffffffff\n  and\n  sub\n    /* \"contracts/Pair.sol\":791:834  require (a != b, \"Both addresses are same\") */\n  tag_11\n  jumpi\n  mload(0x40)\n  0x08c379a000000000000000000000000000000000000000000000000000000000\n  dup2\n  mstore\n  0x04\n  add\n  tag_12\n  swap1\n  tag_13\n  jump\t// in\ntag_12:\n  mload(0x40)\n  dup1\n  swap2\n  sub\n  swap1\n  revert\ntag_11:\n    /* \"contracts/Pair.sol\":868:869  b */\n  dup1\n    /* \"contracts/Pair.sol\":864:869  a < b */\n  0xffffffffffffffffffffffffffffffffffffffff\n  and\n    /* \"contracts/Pair.sol\":864:865  a */\n  dup3\n    /* \"contracts/Pair.sol\":864:869  a < b */\n  0xffffffffffffffffffffffffffffffffffffffff\n  and\n  lt\n    /* \"contracts/Pair.sol\":864:887  a < b ? (a, b) : (b, a) */\n  tag_14\n  jumpi\n    /* \"contracts/Pair.sol\":882:883  b */\n  dup1\n    /* \"contracts/Pair.sol\":885:886  a */\n  dup3\n    /* \"contracts/Pair.sol\":864:887  a < b ? (a, b) : (b, a) */\n  jump(tag_15)\ntag_14:\n    /* \"contracts/Pair.sol\":873:874  a */\n  dup2\n    /* \"contracts/Pair.sol\":876:877  b */\n  dup2\n    /* \"contracts/Pair.sol\":864:887  a < b ? (a, b) : (b, a) */\ntag_15:\n    /* \"contracts/Pair.sol\":845:887  (tokenA, tokenB) = a < b ? (a, b) : (b, a) */\n  dup1\n  0xffffffffffffffffffffffffffffffffffffffff\n  and\n  0xa0\n  swap1\n  0xffffffffffffffffffffffffffffffffffffffff\n  and\n  dup2\n  mstore\n  pop\n  dup2\n  0xffffffffffffffffffffffffffffffffffffffff\n  and\n  0x80\n  swap1\n  0xffffffffffffffffffffffffffffffffffffffff\n  and\n  dup2\n  mstore\n  pop\n  pop\n  pop\n    /* \"contracts/Pair.sol\":722:895  constructor (address a, address b) ERC20(\"LP token\", \"LP\"){... */\n  pop\n  pop\n    /* \"contracts/Pair.sol\":187:3869  contract Pair is ERC20 {... */\n  jump(tag_16)\n    /* \"#utility.yul\":88:205   */\ntag_18:\n    /* \"#utility.yul\":197:198   */\n  0x00\n    /* \"#utility.yul\":194:195   */\n  0x00\n    /* \"#utility.yul\":187:199   */\n  revert\n    /* \"#utility.yul\":334:460   */\ntag_20:\n    /* \"#utility.yul\":371:378   */\n  0x00\n    /* \"#utility.yul\":411:453   */\n  0xffffffffffffffffffffffffffffffffffffffff\n    /* \"#utility.yul\":404:409   */\n  dup3\n    /* \"#utility.yul\":400:454   */\n  and\n    /* \"#utility.yul\":389:454   */\n  swap1\n  pop\n    /* \"#utility.yul\":334:460   */\n  swap2\n  swap1\n  pop\n  jump\t// out\n    /* \"#utility.yul\":466:562   */\ntag_21:\n    /* \"#utility.yul\":503:510   */\n  0x00\n    /* \"#utility.yul\":532:556   */\n  tag_53\n    /* \"#utility.yul\":550:555   */\n  dup3\n    /* \"#utility.yul\":532:556   */\n  tag_20\n  jump\t// in\ntag_53:\n    /* \"#utility.yul\":521:556   */\n  swap1\n  pop\n    /* \"#utility.yul\":466:562   */\n  swap2\n  swap1\n  pop\n  jump\t// out\n    /* \"#utility.yul\":568:690   */\ntag_22:\n    /* \"#utility.yul\":641:665   */\n  tag_55\n    /* \"#utility.yul\":659:664   */\n  dup2\n    /* \"#utility.yul\":641:665   */\n  tag_21\n  jump\t// in\ntag_55:\n    /* \"#utility.yul\":634:639   */\n  dup2\n    /* \"#utility.yul\":631:666   */\n  eq\n    /* \"#utility.yul\":621:684   */\n  tag_56\n  jumpi\n    /* \"#utility.yul\":680:681   */\n  0x00\n    /* \"#utility.yul\":677:678   */\n  0x00\n    /* \"#utility.yul\":670:682   */\n  revert\n    /* \"#utility.yul\":621:684   */\ntag_56:\n    /* \"#utility.yul\":568:690   */\n  pop\n  jump\t// out\n    /* \"#utility.yul\":696:839   */\ntag_23:\n    /* \"#utility.yul\":753:758   */\n  0x00\n    /* \"#utility.yul\":784:790   */\n  dup2\n    /* \"#utility.yul\":778:791   */\n  mload\n    /* \"#utility.yul\":769:791   */\n  swap1\n  pop\n    /* \"#utility.yul\":800:833   */\n  tag_58\n    /* \"#utility.yul\":827:832   */\n  dup2\n    /* \"#utility.yul\":800:833   */\n  tag_22\n  jump\t// in\ntag_58:\n    /* \"#utility.yul\":696:839   */\n  swap3\n  swap2\n  pop\n  pop\n  jump\t// out\n    /* \"#utility.yul\":845:1352   */\ntag_3:\n    /* \"#utility.yul\":924:930   */\n  0x00\n    /* \"#utility.yul\":932:938   */\n  0x00\n    /* \"#utility.yul\":981:983   */\n  0x40\n    /* \"#utility.yul\":969:978   */\n  dup4\n    /* \"#utility.yul\":960:967   */\n  dup6\n    /* \"#utility.yul\":956:979   */\n  sub\n    /* \"#utility.yul\":952:984   */\n  slt\n    /* \"#utility.yul\":949:1068   */\n  iszero\n  tag_60\n  jumpi\n    /* \"#utility.yul\":987:1066   */\n  tag_61\n  tag_18\n  jump\t// in\ntag_61:\n    /* \"#utility.yul\":949:1068   */\ntag_60:\n    /* \"#utility.yul\":1107:1108   */\n  0x00\n    /* \"#utility.yul\":1132:1196   */\n  tag_62\n    /* \"#utility.yul\":1188:1195   */\n  dup6\n    /* \"#utility.yul\":1179:1185   */\n  dup3\n    /* \"#utility.yul\":1168:1177   */\n  dup7\n    /* \"#utility.yul\":1164:1186   */\n  add\n    /* \"#utility.yul\":1132:1196   */\n  tag_23\n  jump\t// in\ntag_62:\n    /* \"#utility.yul\":1122:1196   */\n  swap3\n  pop\n    /* \"#utility.yul\":1078:1206   */\n  pop\n    /* \"#utility.yul\":1245:1247   */\n  0x20\n    /* \"#utility.yul\":1271:1335   */\n  tag_63\n    /* \"#utility.yul\":1327:1334   */\n  dup6\n    /* \"#utility.yul\":1318:1324   */\n  dup3\n    /* \"#utility.yul\":1307:1316   */\n  dup7\n    /* \"#utility.yul\":1303:1325   */\n  add\n    /* \"#utility.yul\":1271:1335   */\n  tag_23\n  jump\t// in\ntag_63:\n    /* \"#utility.yul\":1261:1335   */\n  swap2\n  pop\n    /* \"#utility.yul\":1216:1345   */\n  pop\n    /* \"#utility.yul\":845:1352   */\n  swap3\n  pop\n  swap3\n  swap1\n  pop\n  jump\t// out\n    /* \"#utility.yul\":1358:1457   */\ntag_24:\n    /* \"#utility.yul\":1410:1416   */\n  0x00\n    /* \"#utility.yul\":1444:1449   */\n  dup2\n    /* \"#utility.yul\":1438:1450   */\n  mload\n    /* \"#utility.yul\":1428:1450   */\n  swap1\n  pop\n    /* \"#utility.yul\":1358:1457   */\n  swap2\n  swap1\n  pop\n  jump\t// out\n    /* \"#utility.yul\":1463:1643   */\ntag_25:\n    /* \"#utility.yul\":1511:1588   */\n  0x4e487b7100000000000000000000000000000000000000000000000000000000\n    /* \"#utility.yul\":1508:1509   */\n  0x00\n    /* \"#utility.yul\":1501:1589   */\n  mstore\n    /* \"#utility.yul\":1608:1612   */\n  0x41\n    /* \"#utility.yul\":1605:1606   */\n  0x04\n    /* \"#utility.yul\":1598:1613   */\n  mstore\n    /* \"#utility.yul\":1632:1636   */\n  0x24\n    /* \"#utility.yul\":1629:1630   */\n  0x00\n    /* \"#utility.yul\":1622:1637   */\n  revert\n    /* \"#utility.yul\":1649:1829   */\ntag_26:\n    /* \"#utility.yul\":1697:1774   */\n  0x4e487b7100000000000000000000000000000000000000000000000000000000\n    /* \"#utility.yul\":1694:1695   */\n  0x00\n    /* \"#utility.yul\":1687:1775   */\n  mstore\n    /* \"#utility.yul\":1794:1798   */\n  0x22\n    /* \"#utility.yul\":1791:1792   */\n  0x04\n    /* \"#utility.yul\":1784:1799   */\n  mstore\n    /* \"#utility.yul\":1818:1822   */\n  0x24\n    /* \"#utility.yul\":1815:1816   */\n  0x00\n    /* \"#utility.yul\":1808:1823   */\n  revert\n    /* \"#utility.yul\":1835:2155   */\ntag_27:\n    /* \"#utility.yul\":1879:1885   */\n  0x00\n    /* \"#utility.yul\":1916:1917   */\n  0x02\n    /* \"#utility.yul\":1910:1914   */\n  dup3\n    /* \"#utility.yul\":1906:1918   */\n  div\n    /* \"#utility.yul\":1896:1918   */\n  swap1\n  pop\n    /* \"#utility.yul\":1963:1964   */\n  0x01\n    /* \"#utility.yul\":1957:1961   */\n  dup3\n    /* \"#utility.yul\":1953:1965   */\n  and\n    /* \"#utility.yul\":1984:2002   */\n  dup1\n    /* \"#utility.yul\":1974:2055   */\n  tag_68\n  jumpi\n    /* \"#utility.yul\":2040:2044   */\n  0x7f\n    /* \"#utility.yul\":2032:2038   */\n  dup3\n    /* \"#utility.yul\":2028:2045   */\n  and\n    /* \"#utility.yul\":2018:2045   */\n  swap2\n  pop\n    /* \"#utility.yul\":1974:2055   */\ntag_68:\n    /* \"#utility.yul\":2102:2104   */\n  0x20\n    /* \"#utility.yul\":2094:2100   */\n  dup3\n    /* \"#utility.yul\":2091:2105   */\n  lt\n    /* \"#utility.yul\":2071:2089   */\n  dup2\n    /* \"#utility.yul\":2068:2106   */\n  sub\n    /* \"#utility.yul\":2065:2149   */\n  tag_69\n  jumpi\n    /* \"#utility.yul\":2121:2139   */\n  tag_70\n  tag_26\n  jump\t// in\ntag_70:\n    /* \"#utility.yul\":2065:2149   */\ntag_69:\n    /* \"#utility.yul\":1886:2155   */\n  pop\n    /* \"#utility.yul\":1835:2155   */\n  swap2\n  swap1\n  pop\n  jump\t// out\n    /* \"#utility.yul\":2161:2302   */\ntag_28:\n    /* \"#utility.yul\":2210:2214   */\n  0x00\n    /* \"#utility.yul\":2233:2236   */\n  dup2\n    /* \"#utility.yul\":2225:2236   */\n  swap1\n  pop\n    /* \"#utility.yul\":2256:2259   */\n  dup2\n    /* \"#utility.yul\":2253:2254   */\n  0x00\n    /* \"#utility.yul\":2246:2260   */\n  mstore\n    /* \"#utility.yul\":2290:2294   */\n  0x20\n    /* \"#utility.yul\":2287:2288   */\n  0x00\n    /* \"#utility.yul\":2277:2295   */\n  keccak256\n    /* \"#utility.yul\":2269:2295   */\n  swap1\n  pop\n    /* \"#utility.yul\":2161:2302   */\n  swap2\n  swap1\n  pop\n  jump\t// out\n    /* \"#utility.yul\":2308:2401   */\ntag_29:\n    /* \"#utility.yul\":2345:2351   */\n  0x00\n    /* \"#utility.yul\":2392:2394   */\n  0x20\n    /* \"#utility.yul\":2387:2389   */\n  0x1f\n    /* \"#utility.yul\":2380:2385   */\n  dup4\n    /* \"#utility.yul\":2376:2390   */\n  add\n    /* \"#utility.yul\":2372:2395   */\n  div\n    /* \"#utility.yul\":2362:2395   */\n  swap1\n  pop\n    /* \"#utility.yul\":2308:2401   */\n  swap2\n  swap1\n  pop\n  jump\t// out\n    /* \"#utility.yul\":2407:2514   */\ntag_30:\n    /* \"#utility.yul\":2451:2459   */\n  0x00\n    /* \"#utility.yul\":2501:2506   */\n  dup3\n    /* \"#utility.yul\":2495:2499   */\n  dup3\n    /* \"#utility.yul\":2491:2507   */\n  shl\n    /* \"#utility.yul\":2470:2507   */\n  swap1\n  pop\n    /* \"#utility.yul\":2407:2514   */\n  swap3\n  swap2\n  pop\n  pop\n  jump\t// out\n    /* \"#utility.yul\":2520:2913   */\ntag_31:\n    /* \"#utility.yul\":2589:2595   */\n  0x00\n    /* \"#utility.yul\":2639:2640   */\n  0x08\n    /* \"#utility.yul\":2627:2637   */\n  dup4\n    /* \"#utility.yul\":2623:2641   */\n  mul\n    /* \"#utility.yul\":2662:2759   */\n  tag_75\n    /* \"#utility.yul\":2692:2758   */\n  0xffffffffffffffffffffffffffffffffffffffffffffffffffffffffffffffff\n    /* \"#utility.yul\":2681:2690   */\n  dup3\n    /* \"#utility.yul\":2662:2759   */\n  tag_30\n  jump\t// in\ntag_75:\n    /* \"#utility.yul\":2780:2819   */\n  tag_76\n    /* \"#utility.yul\":2810:2818   */\n  dup7\n    /* \"#utility.yul\":2799:2808   */\n  dup4\n    /* \"#utility.yul\":2780:2819   */\n  tag_30\n  jump\t// in\ntag_76:\n    /* \"#utility.yul\":2768:2819   */\n  swap6\n  pop\n    /* \"#utility.yul\":2852:2856   */\n  dup1\n    /* \"#utility.yul\":2848:2857   */\n  not\n    /* \"#utility.yul\":2841:2846   */\n  dup5\n    /* \"#utility.yul\":2837:2858   */\n  and\n    /* \"#utility.yul\":2828:2858   */\n  swap4\n  pop\n    /* \"#utility.yul\":2901:2905   */\n  dup1\n    /* \"#utility.yul\":2891:2899   */\n  dup7\n    /* \"#utility.yul\":2887:2906   */\n  and\n    /* \"#utility.yul\":2880:2885   */\n  dup5\n    /* \"#utility.yul\":2877:2907   */\n  or\n    /* \"#utility.yul\":2867:2907   */\n  swap3\n  pop\n    /* \"#utility.yul\":2596:2913   */\n  pop\n  pop\n    /* \"#utility.yul\":2520:2913   */\n  swap4\n  swap3\n  pop\n  pop\n  pop\n  jump\t// out\n    /* \"#utility.yul\":2919:2996   */\ntag_32:\n    /* \"#utility.yul\":2956:2963   */\n  0x00\n    /* \"#utility.yul\":2985:2990   */\n  dup2\n    /* \"#utility.yul\":2974:2990   */\n  swap1\n  pop\n    /* \"#utility.yul\":2919:2996   */\n  swap2\n  swap1\n  pop\n  jump\t// out\n    /* \"#utility.yul\":3002:3062   */\ntag_33:\n    /* \"#utility.yul\":3030:3033   */\n  0x00\n    /* \"#utility.yul\":3051:3056   */\n  dup2\n    /* \"#utility.yul\":3044:3056   */\n  swap1\n  pop\n    /* \"#utility.yul\":3002:3062   */\n  swap2\n  swap1\n  pop\n  jump\t// out\n    /* \"#utility.yul\":3068:3210   */\ntag_34:\n    /* \"#utility.yul\":3118:3127   */\n  0x00\n    /* \"#utility.yul\":3151:3204   */\n  tag_80\n    /* \"#utility.yul\":3169:3203   */\n  tag_81\n    /* \"#utility.yul\":3178:3202   */\n  tag_82\n    /* \"#utility.yul\":3196:3201   */\n  dup5\n    /* \"#utility.yul\":3178:3202   */\n  tag_32\n  jump\t// in\ntag_82:\n    /* \"#utility.yul\":3169:3203   */\n  tag_33\n  jump\t// in\ntag_81:\n    /* \"#utility.yul\":3151:3204   */\n  tag_32\n  jump\t// in\ntag_80:\n    /* \"#utility.yul\":3138:3204   */\n  swap1\n  pop\n    /* \"#utility.yul\":3068:3210   */\n  swap2\n  swap1\n  pop\n  jump\t// out\n    /* \"#utility.yul\":3216:3291   */\ntag_35:\n    /* \"#utility.yul\":3259:3262   */\n  0x00\n    /* \"#utility.yul\":3280:3285   */\n  dup2\n    /* \"#utility.yul\":3273:3285   */\n  swap1\n  pop\n    /* \"#utility.yul\":3216:3291   */\n  swap2\n  swap1\n  pop\n  jump\t// out\n    /* \"#utility.yul\":3297:3566   */\ntag_36:\n    /* \"#utility.yul\":3407:3446   */\n  tag_85\n    /* \"#utility.yul\":3438:3445   */\n  dup4\n    /* \"#utility.yul\":3407:3446   */\n  tag_34\n  jump\t// in\ntag_85:\n    /* \"#utility.yul\":3468:3559   */\n  tag_86\n    /* \"#utility.yul\":3517:3558   */\n  tag_87\n    /* \"#utility.yul\":3541:3557   */\n  dup3\n    /* \"#utility.yul\":3517:3558   */\n  tag_35\n  jump\t// in\ntag_87:\n    /* \"#utility.yul\":3509:3515   */\n  dup5\n    /* \"#utility.yul\":3502:3506   */\n  dup5\n    /* \"#utility.yul\":3496:3507   */\n  sload\n    /* \"#utility.yul\":3468:3559   */\n  tag_31\n  jump\t// in\ntag_86:\n    /* \"#utility.yul\":3462:3466   */\n  dup3\n    /* \"#utility.yul\":3455:3560   */\n  sstore\n    /* \"#utility.yul\":3373:3566   */\n  pop\n    /* \"#utility.yul\":3297:3566   */\n  pop\n  pop\n  pop\n  jump\t// out\n    /* \"#utility.yul\":3572:3645   */\ntag_37:\n    /* \"#utility.yul\":3617:3620   */\n  0x00\n    /* \"#utility.yul\":3638:3639   */\n  0x00\n    /* \"#utility.yul\":3631:3639   */\n  swap1\n  pop\n    /* \"#utility.yul\":3572:3645   */\n  swap1\n  jump\t// out\n    /* \"#utility.yul\":3651:3840   */\ntag_38:\n    /* \"#utility.yul\":3728:3760   */\n  tag_90\n  tag_37\n  jump\t// in\ntag_90:\n    /* \"#utility.yul\":3769:3834   */\n  tag_91\n    /* \"#utility.yul\":3827:3833   */\n  dup2\n    /* \"#utility.yul\":3819:3825   */\n  dup5\n    /* \"#utility.yul\":3813:3817   */\n  dup5\n    /* \"#utility.yul\":3769:3834   */\n  tag_36\n  jump\t// in\ntag_91:\n    /* \"#utility.yul\":3704:3840   */\n  pop\n    /* \"#utility.yul\":3651:3840   */\n  pop\n  pop\n  jump\t// out\n    /* \"#utility.yul\":3846:4032   */\ntag_39:\n    /* \"#utility.yul\":3906:4026   */\ntag_93:\n    /* \"#utility.yul\":3923:3926   */\n  dup2\n    /* \"#utility.yul\":3916:3921   */\n  dup2\n    /* \"#utility.yul\":3913:3927   */\n  lt\n    /* \"#utility.yul\":3906:4026   */\n  iszero\n  tag_95\n  jumpi\n    /* \"#utility.yul\":3977:4016   */\n  tag_96\n    /* \"#utility.yul\":4014:4015   */\n  0x00\n    /* \"#utility.yul\":4007:4012   */\n  dup3\n    /* \"#utility.yul\":3977:4016   */\n  tag_38\n  jump\t// in\ntag_96:\n    /* \"#utility.yul\":3950:3951   */\n  0x01\n    /* \"#utility.yul\":3943:3948   */\n  dup2\n    /* \"#utility.yul\":3939:3952   */\n  add\n    /* \"#utility.yul\":3930:3952   */\n  swap1\n  pop\n    /* \"#utility.yul\":3906:4026   */\n  jump(tag_93)\ntag_95:\n    /* \"#utility.yul\":3846:4032   */\n  pop\n  pop\n  jump\t// out\n    /* \"#utility.yul\":4038:4581   */\ntag_40:\n    /* \"#utility.yul\":4139:4141   */\n  0x1f\n    /* \"#utility.yul\":4134:4137   */\n  dup3\n    /* \"#utility.yul\":4131:4142   */\n  gt\n    /* \"#utility.yul\":4128:4574   */\n  iszero\n  tag_98\n  jumpi\n    /* \"#utility.yul\":4173:4211   */\n  tag_99\n    /* \"#utility.yul\":4205:4210   */\n  dup2\n    /* \"#utility.yul\":4173:4211   */\n  tag_28\n  jump\t// in\ntag_99:\n    /* \"#utility.yul\":4257:4286   */\n  tag_100\n    /* \"#utility.yul\":4275:4285   */\n  dup5\n    /* \"#utility.yul\":4257:4286   */\n  tag_29\n  jump\t// in\ntag_100:\n    /* \"#utility.yul\":4247:4255   */\n  dup2\n    /* \"#utility.yul\":4243:4287   */\n  add\n    /* \"#utility.yul\":4440:4442   */\n  0x20\n    /* \"#utility.yul\":4428:4438   */\n  dup6\n    /* \"#utility.yul\":4425:4443   */\n  lt\n    /* \"#utility.yul\":4422:4471   */\n  iszero\n  tag_101\n  jumpi\n    /* \"#utility.yul\":4461:4469   */\n  dup2\n    /* \"#utility.yul\":4446:4469   */\n  swap1\n  pop\n    /* \"#utility.yul\":4422:4471   */\ntag_101:\n    /* \"#utility.yul\":4484:4564   */\n  tag_102\n    /* \"#utility.yul\":4540:4562   */\n  tag_103\n    /* \"#utility.yul\":4558:4561   */\n  dup6\n    /* \"#utility.yul\":4540:4562   */\n  tag_29\n  jump\t// in\ntag_103:\n    /* \"#utility.yul\":4530:4538   */\n  dup4\n    /* \"#utility.yul\":4526:4563   */\n  add\n    /* \"#utility.yul\":4513:4524   */\n  dup3\n    /* \"#utility.yul\":4484:4564   */\n  tag_39\n  jump\t// in\ntag_102:\n    /* \"#utility.yul\":4143:4574   */\n  pop\n  pop\n    /* \"#utility.yul\":4128:4574   */\ntag_98:\n    /* \"#utility.yul\":4038:4581   */\n  pop\n  pop\n  pop\n  jump\t// out\n    /* \"#utility.yul\":4587:4704   */\ntag_41:\n    /* \"#utility.yul\":4641:4649   */\n  0x00\n    /* \"#utility.yul\":4691:4696   */\n  dup3\n    /* \"#utility.yul\":4685:4689   */\n  dup3\n    /* \"#utility.yul\":4681:4697   */\n  shr\n    /* \"#utility.yul\":4660:4697   */\n  swap1\n  pop\n    /* \"#utility.yul\":4587:4704   */\n  swap3\n  swap2\n  pop\n  pop\n  jump\t// out\n    /* \"#utility.yul\":4710:4879   */\ntag_42:\n    /* \"#utility.yul\":4754:4760   */\n  0x00\n    /* \"#utility.yul\":4787:4838   */\n  tag_106\n    /* \"#utility.yul\":4835:4836   */\n  0x00\n    /* \"#utility.yul\":4831:4837   */\n  not\n    /* \"#utility.yul\":4823:4828   */\n  dup5\n    /* \"#utility.yul\":4820:4821   */\n  0x08\n    /* \"#utility.yul\":4816:4829   */\n  mul\n    /* \"#utility.yul\":4787:4838   */\n  tag_41\n  jump\t// in\ntag_106:\n    /* \"#utility.yul\":4783:4839   */\n  not\n    /* \"#utility.yul\":4868:4872   */\n  dup1\n    /* \"#utility.yul\":4862:4866   */\n  dup4\n    /* \"#utility.yul\":4858:4873   */\n  and\n    /* \"#utility.yul\":4848:4873   */\n  swap2\n  pop\n    /* \"#utility.yul\":4761:4879   */\n  pop\n    /* \"#utility.yul\":4710:4879   */\n  swap3\n  swap2\n  pop\n  pop\n  jump\t// out\n    /* \"#utility.yul\":4884:5179   */\ntag_43:\n    /* \"#utility.yul\":4960:4964   */\n  0x00\n    /* \"#utility.yul\":5106:5135   */\n  tag_108\n    /* \"#utility.yul\":5131:5134   */\n  dup4\n    /* \"#utility.yul\":5125:5129   */\n  dup4\n    /* \"#utility.yul\":5106:5135   */\n  tag_42\n  jump\t// in\ntag_108:\n    /* \"#utility.yul\":5098:5135   */\n  swap2\n  pop\n    /* \"#utility.yul\":5168:5171   */\n  dup3\n    /* \"#utility.yul\":5165:5166   */\n  0x02\n    /* \"#utility.yul\":5161:5172   */\n  mul\n    /* \"#utility.yul\":5155:5159   */\n  dup3\n    /* \"#utility.yul\":5152:5173   */\n  or\n    /* \"#utility.yul\":5144:5173   */\n  swap1\n  pop\n    /* \"#utility.yul\":4884:5179   */\n  swap3\n  swap2\n  pop\n  pop\n  jump\t// out\n    /* \"#utility.yul\":5184:6579   */\ntag_8:\n    /* \"#utility.yul\":5301:5338   */\n  tag_110\n    /* \"#utility.yul\":5334:5337   */\n  dup3\n    /* \"#utility.yul\":5301:5338   */\n  tag_24\n  jump\t// in\ntag_110:\n    /* \"#utility.yul\":5403:5421   */\n  0xffffffffffffffff\n    /* \"#utility.yul\":5395:5401   */\n  dup2\n    /* \"#utility.yul\":5392:5422   */\n  gt\n    /* \"#utility.yul\":5389:5445   */\n  iszero\n  tag_111\n  jumpi\n    /* \"#utility.yul\":5425:5443   */\n  tag_112\n  tag_25\n  jump\t// in\ntag_112:\n    /* \"#utility.yul\":5389:5445   */\ntag_111:\n    /* \"#utility.yul\":5469:5507   */\n  tag_113\n    /* \"#utility.yul\":5501:5505   */\n  dup3\n    /* \"#utility.yul\":5495:5506   */\n  sload\n    /* \"#utility.yul\":5469:5507   */\n  tag_27\n  jump\t// in\ntag_113:\n    /* \"#utility.yul\":5554:5621   */\n  tag_114\n    /* \"#utility.yul\":5614:5620   */\n  dup3\n    /* \"#utility.yul\":5606:5612   */\n  dup3\n    /* \"#utility.yul\":5600:5604   */\n  dup6\n    /* \"#utility.yul\":5554:5621   */\n  tag_40\n  jump\t// in\ntag_114:\n    /* \"#utility.yul\":5648:5649   */\n  0x00\n    /* \"#utility.yul\":5672:5676   */\n  0x20\n    /* \"#utility.yul\":5659:5676   */\n  swap1\n  pop\n    /* \"#utility.yul\":5704:5706   */\n  0x1f\n    /* \"#utility.yul\":5696:5702   */\n  dup4\n    /* \"#utility.yul\":5693:5707   */\n  gt\n    /* \"#utility.yul\":5721:5722   */\n  0x01\n    /* \"#utility.yul\":5716:6334   */\n  dup2\n  eq\n  tag_116\n  jumpi\n    /* \"#utility.yul\":6378:6379   */\n  0x00\n    /* \"#utility.yul\":6395:6401   */\n  dup5\n    /* \"#utility.yul\":6392:6469   */\n  iszero\n  tag_117\n  jumpi\n    /* \"#utility.yul\":6444:6453   */\n  dup3\n    /* \"#utility.yul\":6439:6442   */\n  dup8\n    /* \"#utility.yul\":6435:6454   */\n  add\n    /* \"#utility.yul\":6429:6455   */\n  mload\n    /* \"#utility.yul\":6420:6455   */\n  swap1\n  pop\n    /* \"#utility.yul\":6392:6469   */\ntag_117:\n    /* \"#utility.yul\":6495:6562   */\n  tag_118\n    /* \"#utility.yul\":6555:6561   */\n  dup6\n    /* \"#utility.yul\":6548:6553   */\n  dup3\n    /* \"#utility.yul\":6495:6562   */\n  tag_43\n  jump\t// in\ntag_118:\n    /* \"#utility.yul\":6489:6493   */\n  dup7\n    /* \"#utility.yul\":6482:6563   */\n  sstore\n    /* \"#utility.yul\":6351:6573   */\n  pop\n    /* \"#utility.yul\":5686:6573   */\n  jump(tag_115)\n    /* \"#utility.yul\":5716:6334   */\ntag_116:\n    /* \"#utility.yul\":5768:5772   */\n  0x1f\n    /* \"#utility.yul\":5764:5773   */\n  not\n    /* \"#utility.yul\":5756:5762   */\n  dup5\n    /* \"#utility.yul\":5752:5774   */\n  and\n    /* \"#utility.yul\":5802:5839   */\n  tag_119\n    /* \"#utility.yul\":5834:5838   */\n  dup7\n    /* \"#utility.yul\":5802:5839   */\n  tag_28\n  jump\t// in\ntag_119:\n    /* \"#utility.yul\":5861:5862   */\n  0x00\n    /* \"#utility.yul\":5875:6083   */\ntag_120:\n    /* \"#utility.yul\":5889:5896   */\n  dup3\n    /* \"#utility.yul\":5886:5887   */\n  dup2\n    /* \"#utility.yul\":5883:5897   */\n  lt\n    /* \"#utility.yul\":5875:6083   */\n  iszero\n  tag_122\n  jumpi\n    /* \"#utility.yul\":5968:5977   */\n  dup5\n    /* \"#utility.yul\":5963:5966   */\n  dup10\n    /* \"#utility.yul\":5959:5978   */\n  add\n    /* \"#utility.yul\":5953:5979   */\n  mload\n    /* \"#utility.yul\":5945:5951   */\n  dup3\n    /* \"#utility.yul\":5938:5980   */\n  sstore\n    /* \"#utility.yul\":6019:6020   */\n  0x01\n    /* \"#utility.yul\":6011:6017   */\n  dup3\n    /* \"#utility.yul\":6007:6021   */\n  add\n    /* \"#utility.yul\":5997:6021   */\n  swap2\n  pop\n    /* \"#utility.yul\":6066:6068   */\n  0x20\n    /* \"#utility.yul\":6055:6064   */\n  dup6\n    /* \"#utility.yul\":6051:6069   */\n  add\n    /* \"#utility.yul\":6038:6069   */\n  swap5\n  pop\n    /* \"#utility.yul\":5912:5916   */\n  0x20\n    /* \"#utility.yul\":5909:5910   */\n  dup2\n    /* \"#utility.yul\":5905:5917   */\n  add\n    /* \"#utility.yul\":5900:5917   */\n  swap1\n  pop\n    /* \"#utility.yul\":5875:6083   */\n  jump(tag_120)\ntag_122:\n    /* \"#utility.yul\":6111:6117   */\n  dup7\n    /* \"#utility.yul\":6102:6109   */\n  dup4\n    /* \"#utility.yul\":6099:6118   */\n  lt\n    /* \"#utility.yul\":6096:6275   */\n  iszero\n  tag_123\n  jumpi\n    /* \"#utility.yul\":6169:6178   */\n  dup5\n    /* \"#utility.yul\":6164:6167   */\n  dup10\n    /* \"#utility.yul\":6160:6179   */\n  add\n    /* \"#utility.yul\":6154:6180   */\n  mload\n    /* \"#utility.yul\":6212:6260   */\n  tag_124\n    /* \"#utility.yul\":6254:6258   */\n  0x1f\n    /* \"#utility.yul\":6246:6252   */\n  dup10\n    /* \"#utility.yul\":6242:6259   */\n  and\n    /* \"#utility.yul\":6231:6240   */\n  dup3\n    /* \"#utility.yul\":6212:6260   */\n  tag_42\n  jump\t// in\ntag_124:\n    /* \"#utility.yul\":6204:6210   */\n  dup4\n    /* \"#utility.yul\":6197:6261   */\n  sstore\n    /* \"#utility.yul\":6119:6275   */\n  pop\n    /* \"#utility.yul\":6096:6275   */\ntag_123:\n    /* \"#utility.yul\":6321:6322   */\n  0x01\n    /* \"#utility.yul\":6317:6318   */\n  0x02\n    /* \"#utility.yul\":6309:6315   */\n  dup9\n    /* \"#utility.yul\":6305:6319   */\n  mul\n    /* \"#utility.yul\":6301:6323   */\n  add\n    /* \"#utility.yul\":6295:6299   */\n  dup9\n    /* \"#utility.yul\":6288:6324   */\n  sstore\n    /* \"#utility.yul\":5723:6334   */\n  pop\n  pop\n  pop\n    /* \"#utility.yul\":5686:6573   */\ntag_115:\n  pop\n    /* \"#utility.yul\":5276:6579   */\n  pop\n  pop\n  pop\n    /* \"#utility.yul\":5184:6579   */\n  pop\n  pop\n  jump\t// out\n    /* \"#utility.yul\":6585:6754   */\ntag_44:\n    /* \"#utility.yul\":6669:6680   */\n  0x00\n    /* \"#utility.yul\":6703:6709   */\n  dup3\n    /* \"#utility.yul\":6698:6701   */\n  dup3\n    /* \"#utility.yul\":6691:6710   */\n  mstore\n    /* \"#utility.yul\":6743:6747   */\n  0x20\n    /* \"#utility.yul\":6738:6741   */\n  dup3\n    /* \"#utility.yul\":6734:6748   */\n  add\n    /* \"#utility.yul\":6719:6748   */\n  swap1\n  pop\n    /* \"#utility.yul\":6585:6754   */\n  swap3\n  swap2\n  pop\n  pop\n  jump\t// out\n    /* \"#utility.yul\":6760:6933   */\ntag_45:\n    /* \"#utility.yul\":6900:6925   */\n  0x426f746820616464726573736573206172652073616d65000000000000000000\n    /* \"#utility.yul\":6896:6897   */\n  0x00\n    /* \"#utility.yul\":6888:6894   */\n  dup3\n    /* \"#utility.yul\":6884:6898   */\n  add\n    /* \"#utility.yul\":6877:6926   */\n  mstore\n    /* \"#utility.yul\":6760:6933   */\n  pop\n  jump\t// out\n    /* \"#utility.yul\":6939:7305   */\ntag_46:\n    /* \"#utility.yul\":7081:7084   */\n  0x00\n    /* \"#utility.yul\":7102:7169   */\n  tag_128\n    /* \"#utility.yul\":7166:7168   */\n  0x17\n    /* \"#utility.yul\":7161:7164   */\n  dup4\n    /* \"#utility.yul\":7102:7169   */\n  tag_44\n  jump\t// in\ntag_128:\n    /* \"#utility.yul\":7095:7169   */\n  swap2\n  pop\n    /* \"#utility.yul\":7178:7271   */\n  tag_129\n    /* \"#utility.yul\":7267:7270   */\n  dup3\n    /* \"#utility.yul\":7178:7271   */\n  tag_45\n  jump\t// in\ntag_129:\n    /* \"#utility.yul\":7296:7298   */\n  0x20\n    /* \"#utility.yul\":7291:7294   */\n  dup3\n    /* \"#utility.yul\":7287:7299   */\n  add\n    /* \"#utility.yul\":7280:7299   */\n  swap1\n  pop\n    /* \"#utility.yul\":6939:7305   */\n  swap2\n  swap1\n  pop\n  jump\t// out\n    /* \"#utility.yul\":7311:7730   */\ntag_13:\n    /* \"#utility.yul\":7477:7481   */\n  0x00\n    /* \"#utility.yul\":7515:7517   */\n  0x20\n    /* \"#utility.yul\":7504:7513   */\n  dup3\n    /* \"#utility.yul\":7500:7518   */\n  add\n    /* \"#utility.yul\":7492:7518   */\n  swap1\n  pop\n    /* \"#utility.yul\":7564:7573   */\n  dup2\n    /* \"#utility.yul\":7558:7562   */\n  dup2\n    /* \"#utility.yul\":7554:7574   */\n  sub\n    /* \"#utility.yul\":7550:7551   */\n  0x00\n    /* \"#utility.yul\":7539:7548   */\n  dup4\n    /* \"#utility.yul\":7535:7552   */\n  add\n    /* \"#utility.yul\":7528:7575   */\n  mstore\n    /* \"#utility.yul\":7592:7723   */\n  tag_131\n    /* \"#utility.yul\":7718:7722   */\n  dup2\n    /* \"#utility.yul\":7592:7723   */\n  tag_46\n  jump\t// in\ntag_131:\n    /* \"#utility.yul\":7584:7723   */\n  swap1\n  pop\n    /* \"#utility.yul\":7311:7730   */\n  swap2\n  swap1\n  pop\n  jump\t// out\n    /* \"contracts/Pair.sol\":187:3869  contract Pair is ERC20 {... */\ntag_16:\n  mload(0x80)\n  mload(0xa0)\n  codecopy(0x00, dataOffset(sub_0), dataSize(sub_0))\n  0x00\n  assignImmutable(\"0x30b801f50f507cdc749dca4b282a53ad2b663e22e445dd03e810efdd1a471d72\")\n  0x00\n  assignImmutable(\"0x5b6a546b7cfedf13dc93595cbe2c0b3f37f2d5f34e089553d8d47fde8ea9ce61\")\n  return(0x00, dataSize(sub_0))\nstop\n\nsub_0: assembly {\n        /* \"contracts/Pair.sol\":187:3869  contract Pair is ERC20 {... */\n      mstore(0x40, 0x80)\n      callvalue\n      dup1\n      iszero\n      tag_1\n      jumpi\n      revert(0x00, 0x00)\n    tag_1:\n      pop\n      jumpi(tag_2, lt(calldatasize, 0x04))\n      shr(0xe0, calldataload(0x00))\n      dup1\n      0x5f64b55b\n      gt\n      tag_20\n      jumpi\n      dup1\n      0x9cd441da\n      gt\n      tag_21\n      jumpi\n      dup1\n      0x9cd441da\n      eq\n      tag_15\n      jumpi\n      dup1\n      0xa9059cbb\n      eq\n      tag_16\n      jumpi\n      dup1\n      0xdc5fa6c5\n      eq\n      tag_17\n      jumpi\n      dup1\n      0xdd62ed3e\n      eq\n      tag_18\n      jumpi\n      dup1\n      0xf3e6ea8a\n      eq\n      tag_19\n      jumpi\n      jump(tag_2)\n    tag_21:\n      dup1\n      0x5f64b55b\n      eq\n      tag_11\n      jumpi\n      dup1\n      0x70a08231\n      eq\n      tag_12\n      jumpi\n      dup1\n      0x95d89b41\n      eq\n      tag_13\n      jumpi\n      dup1\n      0x9c8f9f23\n      eq\n      tag_14\n      jumpi\n      jump(tag_2)\n    tag_20:\n      dup1\n      0x18160ddd\n      gt\n      tag_22\n      jumpi\n      dup1\n      0x18160ddd\n      eq\n      tag_7\n      jumpi\n      dup1\n      0x19e36f3b\n      eq\n      tag_8\n      jumpi\n      dup1\n      0x23b872dd\n      eq\n      tag_9\n      jumpi\n      dup1\n      0x313ce567\n      eq\n      tag_10\n      jumpi\n      jump(tag_2)\n    tag_22:\n      dup1\n      0x06fdde03\n      eq\n      tag_3\n      jumpi\n      dup1\n      0x0902f1ac\n      eq\n      tag_4\n      jumpi\n      dup1\n      0x095ea7b3\n      eq\n      tag_5\n      jumpi\n      dup1\n      0x0fc63d10\n      eq\n      tag_6\n      jumpi\n    tag_2:\n      revert(0x00, 0x00)\n        /* \"@openzeppelin/contracts/token/ERC20/ERC20.sol\":1760:1849  function name() public view virtual returns (string memory) {... */\n    tag_3:\n      tag_23\n      tag_24\n      jump\t// in\n    tag_23:\n      mload(0x40)\n      tag_25\n      swap2\n      swap1\n      tag_26\n      jump\t// in\n    tag_25:\n      mload(0x40)\n      dup1\n      swap2\n      sub\n      swap1\n      return\n        /* \"contracts/Pair.sol\":903:1011  function getReserves() public view returns (uint112, uint112) {... */\n    tag_4:\n      tag_27\n      tag_28\n      jump\t// in\n    tag_27:\n      mload(0x40)\n      tag_29\n      swap3\n      swap2\n      swap1\n      tag_30\n      jump\t// in\n    tag_29:\n      mload(0x40)\n      dup1\n      swap2\n      sub\n      swap1\n      return\n        /* \"@openzeppelin/contracts/token/ERC20/ERC20.sol\":3902:4088  function approve(address spender, uint256 value) public virtual returns (bool) {... */\n    tag_5:\n      tag_31\n      0x04\n      dup1\n      calldatasize\n      sub\n      dup2\n      add\n      swap1\n      tag_32\n      swap2\n      swap1\n      tag_33\n      jump\t// in\n    tag_32:\n      tag_34\n      jump\t// in\n    tag_31:\n      mload(0x40)\n      tag_35\n      swap2\n      swap1\n      tag_36\n      jump\t// in\n    tag_35:\n      mload(0x40)\n      dup1\n      swap2\n      sub\n      swap1\n      return\n        /* \"contracts/Pair.sol\":252:283  address public immutable tokenA */\n    tag_6:\n      tag_37\n      tag_38\n      jump\t// in\n    tag_37:\n      mload(0x40)\n      tag_39\n      swap2\n      swap1\n      tag_40\n      jump\t// in\n    tag_39:\n      mload(0x40)\n      dup1\n      swap2\n      sub\n      swap1\n      return\n        /* \"@openzeppelin/contracts/token/ERC20/ERC20.sol\":2803:2900  function totalSupply() public view virtual returns (uint256) {... */\n    tag_7:\n      tag_41\n      tag_42\n      jump\t// in\n    tag_41:\n      mload(0x40)\n      tag_43\n      swap2\n      swap1\n      tag_44\n      jump\t// in\n    tag_43:\n      mload(0x40)\n      dup1\n      swap2\n      sub\n      swap1\n      return\n        /* \"contracts/Pair.sol\":360:383  uint112 public reserveB */\n    tag_8:\n      tag_45\n      tag_46\n      jump\t// in\n    tag_45:\n      mload(0x40)\n      tag_47\n      swap2\n      swap1\n      tag_48\n      jump\t// in\n    tag_47:\n      mload(0x40)\n      dup1\n      swap2\n      sub\n      swap1\n      return\n        /* \"@openzeppelin/contracts/token/ERC20/ERC20.sol\":4680:4924  function transferFrom(address from, address to, uint256 value) public virtual returns (bool) {... */\n    tag_9:\n      tag_49\n      0x04\n      dup1\n      calldatasize\n      sub\n      dup2\n      add\n      swap1\n      tag_50\n      swap2\n      swap1\n      tag_51\n      jump\t// in\n    tag_50:\n      tag_52\n      jump\t// in\n    tag_49:\n      mload(0x40)\n      tag_53\n      swap2\n      swap1\n      tag_36\n      jump\t// in\n    tag_53:\n      mload(0x40)\n      dup1\n      swap2\n      sub\n      swap1\n      return\n        /* \"@openzeppelin/contracts/token/ERC20/ERC20.sol\":2688:2770  function decimals() public view virtual returns (uint8) {... */\n    tag_10:\n      tag_54\n      tag_55\n      jump\t// in\n    tag_54:\n      mload(0x40)\n      tag_56\n      swap2\n      swap1\n      tag_57\n      jump\t// in\n    tag_56:\n      mload(0x40)\n      dup1\n      swap2\n      sub\n      swap1\n      return\n        /* \"contracts/Pair.sol\":290:321  address public immutable tokenB */\n    tag_11:\n      tag_58\n      tag_59\n      jump\t// in\n    tag_58:\n      mload(0x40)\n      tag_60\n      swap2\n      swap1\n      tag_40\n      jump\t// in\n    tag_60:\n      mload(0x40)\n      dup1\n      swap2\n      sub\n      swap1\n      return\n        /* \"@openzeppelin/contracts/token/ERC20/ERC20.sol\":2933:3049  function balanceOf(address account) public view virtual returns (uint256) {... */\n    tag_12:\n      tag_61\n      0x04\n      dup1\n      calldatasize\n      sub\n      dup2\n      add\n      swap1\n      tag_62\n      swap2\n      swap1\n      tag_63\n      jump\t// in\n    tag_62:\n      tag_64\n      jump\t// in\n    tag_61:\n      mload(0x40)\n      tag_65\n      swap2\n      swap1\n      tag_44\n      jump\t// in\n    tag_65:\n      mload(0x40)\n      dup1\n      swap2\n      sub\n      swap1\n      return\n        /* \"@openzeppelin/contracts/token/ERC20/ERC20.sol\":1962:2055  function symbol() public view virtual returns (string memory) {... */\n    tag_13:\n      tag_66\n      tag_67\n      jump\t// in\n    tag_66:\n      mload(0x40)\n      tag_68\n      swap2\n      swap1\n      tag_26\n      jump\t// in\n    tag_68:\n      mload(0x40)\n      dup1\n      swap2\n      sub\n      swap1\n      return\n        /* \"contracts/Pair.sol\":1765:2407  function removeLiquidity(uint256 lp) external returns (uint256 amountAOut, uint256 amountBOut) {... */\n    tag_14:\n      tag_69\n      0x04\n      dup1\n      calldatasize\n      sub\n      dup2\n      add\n      swap1\n      tag_70\n      swap2\n      swap1\n      tag_71\n      jump\t// in\n    tag_70:\n      tag_72\n      jump\t// in\n    tag_69:\n      mload(0x40)\n      tag_73\n      swap3\n      swap2\n      swap1\n      tag_74\n      jump\t// in\n    tag_73:\n      mload(0x40)\n      dup1\n      swap2\n      sub\n      swap1\n      return\n        /* \"contracts/Pair.sol\":1019:1755  function addLiquidity(uint256 amountAIn, uint256 amountBIn) external returns (uint256 lp) {... */\n    tag_15:\n      tag_75\n      0x04\n      dup1\n      calldatasize\n      sub\n      dup2\n      add\n      swap1\n      tag_76\n      swap2\n      swap1\n      tag_77\n      jump\t// in\n    tag_76:\n      tag_78\n      jump\t// in\n    tag_75:\n      mload(0x40)\n      tag_79\n      swap2\n      swap1\n      tag_44\n      jump\t// in\n    tag_79:\n      mload(0x40)\n      dup1\n      swap2\n      sub\n      swap1\n      return\n        /* \"@openzeppelin/contracts/token/ERC20/ERC20.sol\":3244:3422  function transfer(address to, uint256 value) public virtual returns (bool) {... */\n    tag_16:\n      tag_80\n      0x04\n      dup1\n      calldatasize\n      sub\n      dup2\n      add\n      swap1\n      tag_81\n      swap2\n      swap1\n      tag_33\n      jump\t// in\n    tag_81:\n      tag_82\n      jump\t// in\n    tag_80:\n      mload(0x40)\n      tag_83\n      swap2\n      swap1\n      tag_36\n      jump\t// in\n    tag_83:\n      mload(0x40)\n      dup1\n      swap2\n      sub\n      swap1\n      return\n        /* \"contracts/Pair.sol\":330:353  uint112 public reserveA */\n    tag_17:\n      tag_84\n      tag_85\n      jump\t// in\n    tag_84:\n      mload(0x40)\n      tag_86\n      swap2\n      swap1\n      tag_48\n      jump\t// in\n    tag_86:\n      mload(0x40)\n      dup1\n      swap2\n      sub\n      swap1\n      return\n        /* \"@openzeppelin/contracts/token/ERC20/ERC20.sol\":3455:3595  function allowance(address owner, address spender) public view virtual returns (uint256) {... */\n    tag_18:\n      tag_87\n      0x04\n      dup1\n      calldatasize\n      sub\n      dup2\n      add\n      swap1\n      tag_88\n      swap2\n      swap1\n      tag_89\n      jump\t// in\n    tag_88:\n      tag_90\n      jump\t// in\n    tag_87:\n      mload(0x40)\n      tag_91\n      swap2\n      swap1\n      tag_44\n      jump\t// in\n    tag_91:\n      mload(0x40)\n      dup1\n      swap2\n      sub\n      swap1\n      return\n        /* \"contracts/Pair.sol\":2416:3317  function swap(address tokenIn, uint256 amountIn, uint256 minOut, address to) external returns (uint256 amountOut) {... */\n    tag_19:\n      tag_92\n      0x04\n      dup1\n      calldatasize\n      sub\n      dup2\n      add\n      swap1\n      tag_93\n      swap2\n      swap1\n      tag_94\n      jump\t// in\n    tag_93:\n      tag_95\n      jump\t// in\n    tag_92:\n      mload(0x40)\n      tag_96\n      swap2\n      swap1\n      tag_44\n      jump\t// in\n    tag_96:\n      mload(0x40)\n      dup1\n      swap2\n      sub\n      swap1\n      return\n        /* \"@openzeppelin/contracts/token/ERC20/ERC20.sol\":1760:1849  function name() public view virtual returns (string memory) {... */\n    tag_24:\n        /* \"@openzeppelin/contracts/token/ERC20/ERC20.sol\":1805:1818  string memory */\n      0x60\n        /* \"@openzeppelin/contracts/token/ERC20/ERC20.sol\":1837:1842  _name */\n      0x03\n        /* \"@openzeppelin/contracts/token/ERC20/ERC20.sol\":1830:1842  return _name */\n      dup1\n      sload\n      tag_98\n      swap1\n      tag_99\n      jump\t// in\n    tag_98:\n      dup1\n      0x1f\n      add\n      0x20\n      dup1\n      swap2\n      div\n      mul\n      0x20\n      add\n      mload(0x40)\n      swap1\n      dup2\n      add\n      0x40\n      mstore\n      dup1\n      swap3\n      swap2\n      swap1\n      dup2\n      dup2\n      mstore\n      0x20\n      add\n      dup3\n      dup1\n      sload\n      tag_100\n      swap1\n      tag_99\n      jump\t// in\n    tag_100:\n      dup1\n      iszero\n      tag_101\n      jumpi\n      dup1\n      0x1f\n      lt\n      tag_102\n      jumpi\n      0x0100\n      dup1\n      dup4\n      sload\n      div\n      mul\n      dup4\n      mstore\n      swap2\n      0x20\n      add\n      swap2\n      jump(tag_101)\n    tag_102:\n      dup3\n      add\n      swap2\n      swap1\n      0x00\n      mstore\n      keccak256(0x00, 0x20)\n      swap1\n    tag_103:\n      dup2\n      sload\n      dup2\n      mstore\n      swap1\n      0x01\n      add\n      swap1\n      0x20\n      add\n      dup1\n      dup4\n      gt\n      tag_103\n      jumpi\n      dup3\n      swap1\n      sub\n      0x1f\n      and\n      dup3\n      add\n      swap2\n    tag_101:\n      pop\n      pop\n      pop\n      pop\n      pop\n      swap1\n      pop\n        /* \"@openzeppelin/contracts/token/ERC20/ERC20.sol\":1760:1849  function name() public view virtual returns (string memory) {... */\n      swap1\n      jump\t// out\n        /* \"contracts/Pair.sol\":903:1011  function getReserves() public view returns (uint112, uint112) {... */\n    tag_28:\n        /* \"contracts/Pair.sol\":947:954  uint112 */\n      0x00\n        /* \"contracts/Pair.sol\":956:963  uint112 */\n      0x00\n        /* \"contracts/Pair.sol\":984:992  reserveA */\n      0x05\n      0x00\n      swap1\n      sload\n      swap1\n      0x0100\n      exp\n      swap1\n      div\n      0xffffffffffffffffffffffffffff\n      and\n        /* \"contracts/Pair.sol\":994:1002  reserveB */\n      0x05\n      0x0e\n      swap1\n      sload\n      swap1\n      0x0100\n      exp\n      swap1\n      div\n      0xffffffffffffffffffffffffffff\n      and\n        /* \"contracts/Pair.sol\":976:1003  return (reserveA, reserveB) */\n      swap2\n      pop\n      swap2\n      pop\n        /* \"contracts/Pair.sol\":903:1011  function getReserves() public view returns (uint112, uint112) {... */\n      swap1\n      swap2\n      jump\t// out\n        /* \"@openzeppelin/contracts/token/ERC20/ERC20.sol\":3902:4088  function approve(address spender, uint256 value) public virtual returns (bool) {... */\n    tag_34:\n        /* \"@openzeppelin/contracts/token/ERC20/ERC20.sol\":3975:3979  bool */\n      0x00\n        /* \"@openzeppelin/contracts/token/ERC20/ERC20.sol\":3991:4004  address owner */\n      0x00\n        /* \"@openzeppelin/contracts/token/ERC20/ERC20.sol\":4007:4019  _msgSender() */\n      tag_106\n        /* \"@openzeppelin/contracts/token/ERC20/ERC20.sol\":4007:4017  _msgSender */\n      tag_107\n        /* \"@openzeppelin/contracts/token/ERC20/ERC20.sol\":4007:4019  _msgSender() */\n      jump\t// in\n    tag_106:\n        /* \"@openzeppelin/contracts/token/ERC20/ERC20.sol\":3991:4019  address owner = _msgSender() */\n      swap1\n      pop\n        /* \"@openzeppelin/contracts/token/ERC20/ERC20.sol\":4029:4060  _approve(owner, spender, value) */\n      tag_108\n        /* \"@openzeppelin/contracts/token/ERC20/ERC20.sol\":4038:4043  owner */\n      dup2\n        /* \"@openzeppelin/contracts/token/ERC20/ERC20.sol\":4045:4052  spender */\n      dup6\n        /* \"@openzeppelin/contracts/token/ERC20/ERC20.sol\":4054:4059  value */\n      dup6\n        /* \"@openzeppelin/contracts/token/ERC20/ERC20.sol\":4029:4037  _approve */\n      tag_109\n        /* \"@openzeppelin/contracts/token/ERC20/ERC20.sol\":4029:4060  _approve(owner, spender, value) */\n      jump\t// in\n    tag_108:\n        /* \"@openzeppelin/contracts/token/ERC20/ERC20.sol\":4077:4081  true */\n      0x01\n        /* \"@openzeppelin/contracts/token/ERC20/ERC20.sol\":4070:4081  return true */\n      swap2\n      pop\n      pop\n        /* \"@openzeppelin/contracts/token/ERC20/ERC20.sol\":3902:4088  function approve(address spender, uint256 value) public virtual returns (bool) {... */\n      swap3\n      swap2\n      pop\n      pop\n      jump\t// out\n        /* \"contracts/Pair.sol\":252:283  address public immutable tokenA */\n    tag_38:\n      immutable(\"0x5b6a546b7cfedf13dc93595cbe2c0b3f37f2d5f34e089553d8d47fde8ea9ce61\")\n      dup2\n      jump\t// out\n        /* \"@openzeppelin/contracts/token/ERC20/ERC20.sol\":2803:2900  function totalSupply() public view virtual returns (uint256) {... */\n    tag_42:\n        /* \"@openzeppelin/contracts/token/ERC20/ERC20.sol\":2855:2862  uint256 */\n      0x00\n        /* \"@openzeppelin/contracts/token/ERC20/ERC20.sol\":2881:2893  _totalSupply */\n      sload(0x02)\n        /* \"@openzeppelin/contracts/token/ERC20/ERC20.sol\":2874:2893  return _totalSupply */\n      swap1\n      pop\n        /* \"@openzeppelin/contracts/token/ERC20/ERC20.sol\":2803:2900  function totalSupply() public view virtual returns (uint256) {... */\n      swap1\n      jump\t// out\n        /* \"contracts/Pair.sol\":360:383  uint112 public reserveB */\n    tag_46:\n      0x05\n      0x0e\n      swap1\n      sload\n      swap1\n      0x0100\n      exp\n      swap1\n      div\n      0xffffffffffffffffffffffffffff\n      and\n      dup2\n      jump\t// out\n        /* \"@openzeppelin/contracts/token/ERC20/ERC20.sol\":4680:4924  function transferFrom(address from, address to, uint256 value) public virtual returns (bool) {... */\n    tag_52:\n        /* \"@openzeppelin/contracts/token/ERC20/ERC20.sol\":4767:4771  bool */\n      0x00\n        /* \"@openzeppelin/contracts/token/ERC20/ERC20.sol\":4783:4798  address spender */\n      0x00\n        /* \"@openzeppelin/contracts/token/ERC20/ERC20.sol\":4801:4813  _msgSender() */\n      tag_112\n        /* \"@openzeppelin/contracts/token/ERC20/ERC20.sol\":4801:4811  _msgSender */\n      tag_107\n        /* \"@openzeppelin/contracts/token/ERC20/ERC20.sol\":4801:4813  _msgSender() */\n      jump\t// in\n    tag_112:\n        /* \"@openzeppelin/contracts/token/ERC20/ERC20.sol\":4783:4813  address spender = _msgSender() */\n      swap1\n      pop\n        /* \"@openzeppelin/contracts/token/ERC20/ERC20.sol\":4823:4860  _spendAllowance(from, spender, value) */\n      tag_113\n        /* \"@openzeppelin/contracts/token/ERC20/ERC20.sol\":4839:4843  from */\n      dup6\n        /* \"@openzeppelin/contracts/token/ERC20/ERC20.sol\":4845:4852  spender */\n      dup3\n        /* \"@openzeppelin/contracts/token/ERC20/ERC20.sol\":4854:4859  value */\n      dup6\n        /* \"@openzeppelin/contracts/token/ERC20/ERC20.sol\":4823:4838  _spendAllowance */\n      tag_114\n        /* \"@openzeppelin/contracts/token/ERC20/ERC20.sol\":4823:4860  _spendAllowance(from, spender, value) */\n      jump\t// in\n    tag_113:\n        /* \"@openzeppelin/contracts/token/ERC20/ERC20.sol\":4870:4896  _transfer(from, to, value) */\n      tag_115\n        /* \"@openzeppelin/contracts/token/ERC20/ERC20.sol\":4880:4884  from */\n      dup6\n        /* \"@openzeppelin/contracts/token/ERC20/ERC20.sol\":4886:4888  to */\n      dup6\n        /* \"@openzeppelin/contracts/token/ERC20/ERC20.sol\":4890:4895  value */\n      dup6\n        /* \"@openzeppelin/contracts/token/ERC20/ERC20.sol\":4870:4879  _transfer */\n      tag_116\n        /* \"@openzeppelin/contracts/token/ERC20/ERC20.sol\":4870:4896  _transfer(from, to, value) */\n      jump\t// in\n    tag_115:\n        /* \"@openzeppelin/contracts/token/ERC20/ERC20.sol\":4913:4917  true */\n      0x01\n        /* \"@openzeppelin/contracts/token/ERC20/ERC20.sol\":4906:4917  return true */\n      swap2\n      pop\n      pop\n        /* \"@openzeppelin/contracts/token/ERC20/ERC20.sol\":4680:4924  function transferFrom(address from, address to, uint256 value) public virtual returns (bool) {... */\n      swap4\n      swap3\n      pop\n      pop\n      pop\n      jump\t// out\n        /* \"@openzeppelin/contracts/token/ERC20/ERC20.sol\":2688:2770  function decimals() public view virtual returns (uint8) {... */\n    tag_55:\n        /* \"@openzeppelin/contracts/token/ERC20/ERC20.sol\":2737:2742  uint8 */\n      0x00\n        /* \"@openzeppelin/contracts/token/ERC20/ERC20.sol\":2761:2763  18 */\n      0x12\n        /* \"@openzeppelin/contracts/token/ERC20/ERC20.sol\":2754:2763  return 18 */\n      swap1\n      pop\n        /* \"@openzeppelin/contracts/token/ERC20/ERC20.sol\":2688:2770  function decimals() public view virtual returns (uint8) {... */\n      swap1\n      jump\t// out\n        /* \"contracts/Pair.sol\":290:321  address public immutable tokenB */\n    tag_59:\n      immutable(\"0x30b801f50f507cdc749dca4b282a53ad2b663e22e445dd03e810efdd1a471d72\")\n      dup2\n      jump\t// out\n        /* \"@openzeppelin/contracts/token/ERC20/ERC20.sol\":2933:3049  function balanceOf(address account) public view virtual returns (uint256) {... */\n    tag_64:\n        /* \"@openzeppelin/contracts/token/ERC20/ERC20.sol\":2998:3005  uint256 */\n      0x00\n        /* \"@openzeppelin/contracts/token/ERC20/ERC20.sol\":3024:3033  _balances */\n      0x00\n        /* \"@openzeppelin/contracts/token/ERC20/ERC20.sol\":3024:3042  _balances[account] */\n      0x00\n        /* \"@openzeppelin/contracts/token/ERC20/ERC20.sol\":3034:3041  account */\n      dup4\n        /* \"@openzeppelin/contracts/token/ERC20/ERC20.sol\":3024:3042  _balances[account] */\n      0xffffffffffffffffffffffffffffffffffffffff\n      and\n      0xffffffffffffffffffffffffffffffffffffffff\n      and\n      dup2\n      mstore\n      0x20\n      add\n      swap1\n      dup2\n      mstore\n      0x20\n      add\n      0x00\n      keccak256\n      sload\n        /* \"@openzeppelin/contracts/token/ERC20/ERC20.sol\":3017:3042  return _balances[account] */\n      swap1\n      pop\n        /* \"@openzeppelin/contracts/token/ERC20/ERC20.sol\":2933:3049  function balanceOf(address account) public view virtual returns (uint256) {... */\n      swap2\n      swap1\n      pop\n      jump\t// out\n        /* \"@openzeppelin/contracts/token/ERC20/ERC20.sol\":1962:2055  function symbol() public view virtual returns (string memory) {... */\n    tag_67:\n        /* \"@openzeppelin/contracts/token/ERC20/ERC20.sol\":2009:2022  string memory */\n      0x60\n        /* \"@openzeppelin/contracts/token/ERC20/ERC20.sol\":2041:2048  _symbol */\n      0x04\n        /* \"@openzeppelin/contracts/token/ERC20/ERC20.sol\":2034:2048  return _symbol */\n      dup1\n      sload\n      tag_120\n      swap1\n      tag_99\n      jump\t// in\n    tag_120:\n      dup1\n      0x1f\n      add\n      0x20\n      dup1\n      swap2\n      div\n      mul\n      0x20\n      add\n      mload(0x40)\n      swap1\n      dup2\n      add\n      0x40\n      mstore\n      dup1\n      swap3\n      swap2\n      swap1\n      dup2\n      dup2\n      mstore\n      0x20\n      add\n      dup3\n      dup1\n      sload\n      tag_121\n      swap1\n      tag_99\n      jump\t// in\n    tag_121:\n      dup1\n      iszero\n      tag_122\n      jumpi\n      dup1\n      0x1f\n      lt\n      tag_123\n      jumpi\n      0x0100\n      dup1\n      dup4\n      sload\n      div\n      mul\n      dup4\n      mstore\n      swap2\n      0x20\n      add\n      swap2\n      jump(tag_122)\n    tag_123:\n      dup3\n      add\n      swap2\n      swap1\n      0x00\n      mstore\n      keccak256(0x00, 0x20)\n      swap1\n    tag_124:\n      dup2\n      sload\n      dup2\n      mstore\n      swap1\n      0x01\n      add\n      swap1\n      0x20\n      add\n      dup1\n      dup4\n      gt\n      tag_124\n      jumpi\n      dup3\n      swap1\n      sub\n      0x1f\n      and\n      dup3\n      add\n      swap2\n    tag_122:\n      pop\n      pop\n      pop\n      pop\n      pop\n      swap1\n      pop\n        /* \"@openzeppelin/contracts/token/ERC20/ERC20.sol\":1962:2055  function symbol() public view virtual returns (string memory) {... */\n      swap1\n      jump\t// out\n        /* \"contracts/Pair.sol\":1765:2407  function removeLiquidity(uint256 lp) external returns (uint256 amountAOut, uint256 amountBOut) {... */\n    tag_72:\n        /* \"contracts/Pair.sol\":1820:1838  uint256 amountAOut */\n      0x00\n        /* \"contracts/Pair.sol\":1840:1858  uint256 amountBOut */\n      0x00\n        /* \"contracts/Pair.sol\":1884:1885  0 */\n      0x00\n        /* \"contracts/Pair.sol\":1879:1881  lp */\n      dup4\n        /* \"contracts/Pair.sol\":1879:1885  lp > 0 */\n      gt\n        /* \"contracts/Pair.sol\":1871:1893  require(lp > 0, \"LP0\") */\n      tag_126\n      jumpi\n      mload(0x40)\n      0x08c379a000000000000000000000000000000000000000000000000000000000\n      dup2\n      mstore\n      0x04\n      add\n      tag_127\n      swap1\n      tag_128\n      jump\t// in\n    tag_127:\n      mload(0x40)\n      dup1\n      swap2\n      sub\n      swap1\n      revert\n    tag_126:\n        /* \"contracts/Pair.sol\":1906:1926  uint256 _totalSupply */\n      0x00\n        /* \"contracts/Pair.sol\":1929:1942  totalSupply() */\n      tag_129\n        /* \"contracts/Pair.sol\":1929:1940  totalSupply */\n      tag_42\n        /* \"contracts/Pair.sol\":1929:1942  totalSupply() */\n      jump\t// in\n    tag_129:\n        /* \"contracts/Pair.sol\":1906:1942  uint256 _totalSupply = totalSupply() */\n      swap1\n      pop\n        /* \"contracts/Pair.sol\":2082:2094  _totalSupply */\n      dup1\n        /* \"contracts/Pair.sol\":2070:2078  reserveA */\n      0x05\n      0x00\n      swap1\n      sload\n      swap1\n      0x0100\n      exp\n      swap1\n      div\n      0xffffffffffffffffffffffffffff\n      and\n        /* \"contracts/Pair.sol\":2065:2078  lp * reserveA */\n      0xffffffffffffffffffffffffffff\n      and\n        /* \"contracts/Pair.sol\":2065:2067  lp */\n      dup6\n        /* \"contracts/Pair.sol\":2065:2078  lp * reserveA */\n      tag_130\n      swap2\n      swap1\n      tag_131\n      jump\t// in\n    tag_130:\n        /* \"contracts/Pair.sol\":2064:2094  (lp * reserveA) / _totalSupply */\n      tag_132\n      swap2\n      swap1\n      tag_133\n      jump\t// in\n    tag_132:\n        /* \"contracts/Pair.sol\":2051:2094  amountAOut = (lp * reserveA) / _totalSupply */\n      swap3\n      pop\n        /* \"contracts/Pair.sol\":2136:2148  _totalSupply */\n      dup1\n        /* \"contracts/Pair.sol\":2124:2132  reserveB */\n      0x05\n      0x0e\n      swap1\n      sload\n      swap1\n      0x0100\n      exp\n      swap1\n      div\n      0xffffffffffffffffffffffffffff\n      and\n        /* \"contracts/Pair.sol\":2119:2132  lp * reserveB */\n      0xffffffffffffffffffffffffffff\n      and\n        /* \"contracts/Pair.sol\":2119:2121  lp */\n      dup6\n        /* \"contracts/Pair.sol\":2119:2132  lp * reserveB */\n      tag_134\n      swap2\n      swap1\n      tag_131\n      jump\t// in\n    tag_134:\n        /* \"contracts/Pair.sol\":2118:2148  (lp * reserveB) / _totalSupply */\n      tag_135\n      swap2\n      swap1\n      tag_133\n      jump\t// in\n    tag_135:\n        /* \"contracts/Pair.sol\":2105:2148  amountBOut = (lp * reserveB) / _totalSupply */\n      swap2\n      pop\n        /* \"contracts/Pair.sol\":2161:2182  _burn(msg.sender, lp) */\n      tag_136\n        /* \"contracts/Pair.sol\":2167:2177  msg.sender */\n      caller\n        /* \"contracts/Pair.sol\":2179:2181  lp */\n      dup6\n        /* \"contracts/Pair.sol\":2161:2166  _burn */\n      tag_137\n        /* \"contracts/Pair.sol\":2161:2182  _burn(msg.sender, lp) */\n      jump\t// in\n    tag_136:\n        /* \"contracts/Pair.sol\":2195:2246  IERC20(tokenA).safeTransfer(msg.sender, amountAOut) */\n      tag_138\n        /* \"contracts/Pair.sol\":2223:2233  msg.sender */\n      caller\n        /* \"contracts/Pair.sol\":2235:2245  amountAOut */\n      dup5\n        /* \"contracts/Pair.sol\":2202:2208  tokenA */\n      immutable(\"0x5b6a546b7cfedf13dc93595cbe2c0b3f37f2d5f34e089553d8d47fde8ea9ce61\")\n        /* \"contracts/Pair.sol\":2195:2222  IERC20(tokenA).safeTransfer */\n      0xffffffffffffffffffffffffffffffffffffffff\n      and\n      tag_139\n      swap1\n        /* \"contracts/Pair.sol\":2195:2246  IERC20(tokenA).safeTransfer(msg.sender, amountAOut) */\n      swap3\n      swap2\n      swap1\n      0xffffffff\n      and\n      jump\t// in\n    tag_138:\n        /* \"contracts/Pair.sol\":2257:2308  IERC20(tokenB).safeTransfer(msg.sender, amountBOut) */\n      tag_140\n        /* \"contracts/Pair.sol\":2285:2295  msg.sender */\n      caller\n        /* \"contracts/Pair.sol\":2297:2307  amountBOut */\n      dup4\n        /* \"contracts/Pair.sol\":2264:2270  tokenB */\n      immutable(\"0x30b801f50f507cdc749dca4b282a53ad2b663e22e445dd03e810efdd1a471d72\")\n        /* \"contracts/Pair.sol\":2257:2284  IERC20(tokenB).safeTransfer */\n      0xffffffffffffffffffffffffffffffffffffffff\n      and\n      tag_139\n      swap1\n        /* \"contracts/Pair.sol\":2257:2308  IERC20(tokenB).safeTransfer(msg.sender, amountBOut) */\n      swap3\n      swap2\n      swap1\n      0xffffffff\n      and\n      jump\t// in\n    tag_140:\n        /* \"contracts/Pair.sol\":2321:2328  _sync() */\n      tag_141\n        /* \"contracts/Pair.sol\":2321:2326  _sync */\n      tag_142\n        /* \"contracts/Pair.sol\":2321:2328  _sync() */\n      jump\t// in\n    tag_141:\n        /* \"contracts/Pair.sol\":2360:2370  msg.sender */\n      caller\n        /* \"contracts/Pair.sol\":2344:2399  RemoveLiquidity(msg.sender, amountAOut, amountBOut, lp) */\n      0xffffffffffffffffffffffffffffffffffffffff\n      and\n      0x59c3a0b60c6ab7deb62e1440c9e72441db6db7dfe514dba8cb18e60c0d896efa\n        /* \"contracts/Pair.sol\":2372:2382  amountAOut */\n      dup5\n        /* \"contracts/Pair.sol\":2384:2394  amountBOut */\n      dup5\n        /* \"contracts/Pair.sol\":2396:2398  lp */\n      dup8\n        /* \"contracts/Pair.sol\":2344:2399  RemoveLiquidity(msg.sender, amountAOut, amountBOut, lp) */\n      mload(0x40)\n      tag_143\n      swap4\n      swap3\n      swap2\n      swap1\n      tag_144\n      jump\t// in\n    tag_143:\n      mload(0x40)\n      dup1\n      swap2\n      sub\n      swap1\n      log2\n        /* \"contracts/Pair.sol\":1860:2407  {... */\n      pop\n        /* \"contracts/Pair.sol\":1765:2407  function removeLiquidity(uint256 lp) external returns (uint256 amountAOut, uint256 amountBOut) {... */\n      swap2\n      pop\n      swap2\n      jump\t// out\n        /* \"contracts/Pair.sol\":1019:1755  function addLiquidity(uint256 amountAIn, uint256 amountBIn) external returns (uint256 lp) {... */\n    tag_78:\n        /* \"contracts/Pair.sol\":1097:1107  uint256 lp */\n      0x00\n        /* \"contracts/Pair.sol\":1140:1141  0 */\n      0x00\n        /* \"contracts/Pair.sol\":1128:1137  amountAIn */\n      dup4\n        /* \"contracts/Pair.sol\":1128:1141  amountAIn > 0 */\n      gt\n        /* \"contracts/Pair.sol\":1128:1158  amountAIn > 0 && amountBIn > 0 */\n      dup1\n      iszero\n      tag_146\n      jumpi\n      pop\n        /* \"contracts/Pair.sol\":1157:1158  0 */\n      0x00\n        /* \"contracts/Pair.sol\":1145:1154  amountBIn */\n      dup3\n        /* \"contracts/Pair.sol\":1145:1158  amountBIn > 0 */\n      gt\n        /* \"contracts/Pair.sol\":1128:1158  amountAIn > 0 && amountBIn > 0 */\n    tag_146:\n        /* \"contracts/Pair.sol\":1120:1170  require(amountAIn > 0 && amountBIn > 0, \"AMOUNTS\") */\n      tag_147\n      jumpi\n      mload(0x40)\n      0x08c379a000000000000000000000000000000000000000000000000000000000\n      dup2\n      mstore\n      0x04\n      add\n      tag_148\n      swap1\n      tag_149\n      jump\t// in\n    tag_148:\n      mload(0x40)\n      dup1\n      swap2\n      sub\n      swap1\n      revert\n    tag_147:\n        /* \"contracts/Pair.sol\":1183:1252  IERC20(tokenA).safeTransferFrom(msg.sender, address(this), amountAIn) */\n      tag_150\n        /* \"contracts/Pair.sol\":1215:1225  msg.sender */\n      caller\n        /* \"contracts/Pair.sol\":1235:1239  this */\n      address\n        /* \"contracts/Pair.sol\":1242:1251  amountAIn */\n      dup6\n        /* \"contracts/Pair.sol\":1190:1196  tokenA */\n      immutable(\"0x5b6a546b7cfedf13dc93595cbe2c0b3f37f2d5f34e089553d8d47fde8ea9ce61\")\n        /* \"contracts/Pair.sol\":1183:1214  IERC20(tokenA).safeTransferFrom */\n      0xffffffffffffffffffffffffffffffffffffffff\n      and\n      tag_151\n      swap1\n        /* \"contracts/Pair.sol\":1183:1252  IERC20(tokenA).safeTransferFrom(msg.sender, address(this), amountAIn) */\n      swap4\n      swap3\n      swap2\n      swap1\n      0xffffffff\n      and\n      jump\t// in\n    tag_150:\n        /* \"contracts/Pair.sol\":1263:1332  IERC20(tokenB).safeTransferFrom(msg.sender, address(this), amountBIn) */\n      tag_152\n        /* \"contracts/Pair.sol\":1295:1305  msg.sender */\n      caller\n        /* \"contracts/Pair.sol\":1315:1319  this */\n      address\n        /* \"contracts/Pair.sol\":1322:1331  amountBIn */\n      dup5\n        /* \"contracts/Pair.sol\":1270:1276  tokenB */\n      immutable(\"0x30b801f50f507cdc749dca4b282a53ad2b663e22e445dd03e810efdd1a471d72\")\n        /* \"contracts/Pair.sol\":1263:1294  IERC20(tokenB).safeTransferFrom */\n      0xffffffffffffffffffffffffffffffffffffffff\n      and\n      tag_151\n      swap1\n        /* \"contracts/Pair.sol\":1263:1332  IERC20(tokenB).safeTransferFrom(msg.sender, address(this), amountBIn) */\n      swap4\n      swap3\n      swap2\n      swap1\n      0xffffffff\n      and\n      jump\t// in\n    tag_152:\n        /* \"contracts/Pair.sol\":1345:1365  uint256 _totalSupply */\n      0x00\n        /* \"contracts/Pair.sol\":1368:1381  totalSupply() */\n      tag_153\n        /* \"contracts/Pair.sol\":1368:1379  totalSupply */\n      tag_42\n        /* \"contracts/Pair.sol\":1368:1381  totalSupply() */\n      jump\t// in\n    tag_153:\n        /* \"contracts/Pair.sol\":1345:1381  uint256 _totalSupply = totalSupply() */\n      swap1\n      pop\n        /* \"contracts/Pair.sol\":1412:1413  0 */\n      0x00\n        /* \"contracts/Pair.sol\":1396:1408  _totalSupply */\n      dup2\n        /* \"contracts/Pair.sol\":1396:1413  _totalSupply == 0 */\n      sub\n        /* \"contracts/Pair.sol\":1392:1595  if (_totalSupply == 0) {... */\n      tag_154\n      jumpi\n        /* \"contracts/Pair.sol\":1435:1463  _sqrt(amountAIn * amountBIn) */\n      tag_155\n        /* \"contracts/Pair.sol\":1453:1462  amountBIn */\n      dup4\n        /* \"contracts/Pair.sol\":1441:1450  amountAIn */\n      dup6\n        /* \"contracts/Pair.sol\":1441:1462  amountAIn * amountBIn */\n      tag_156\n      swap2\n      swap1\n      tag_131\n      jump\t// in\n    tag_156:\n        /* \"contracts/Pair.sol\":1435:1440  _sqrt */\n      tag_157\n        /* \"contracts/Pair.sol\":1435:1463  _sqrt(amountAIn * amountBIn) */\n      jump\t// in\n    tag_155:\n        /* \"contracts/Pair.sol\":1430:1463  lp = _sqrt(amountAIn * amountBIn) */\n      swap2\n      pop\n        /* \"contracts/Pair.sol\":1392:1595  if (_totalSupply == 0) {... */\n      jump(tag_158)\n    tag_154:\n        /* \"contracts/Pair.sol\":1501:1583  _min((amountAIn * _totalSupply) / reserveA, (amountBIn * _totalSupply) / reserveB) */\n      tag_159\n        /* \"contracts/Pair.sol\":1535:1543  reserveA */\n      0x05\n      0x00\n      swap1\n      sload\n      swap1\n      0x0100\n      exp\n      swap1\n      div\n      0xffffffffffffffffffffffffffff\n      and\n        /* \"contracts/Pair.sol\":1506:1543  (amountAIn * _totalSupply) / reserveA */\n      0xffffffffffffffffffffffffffff\n      and\n        /* \"contracts/Pair.sol\":1519:1531  _totalSupply */\n      dup3\n        /* \"contracts/Pair.sol\":1507:1516  amountAIn */\n      dup7\n        /* \"contracts/Pair.sol\":1507:1531  amountAIn * _totalSupply */\n      tag_160\n      swap2\n      swap1\n      tag_131\n      jump\t// in\n    tag_160:\n        /* \"contracts/Pair.sol\":1506:1543  (amountAIn * _totalSupply) / reserveA */\n      tag_161\n      swap2\n      swap1\n      tag_133\n      jump\t// in\n    tag_161:\n        /* \"contracts/Pair.sol\":1574:1582  reserveB */\n      0x05\n      0x0e\n      swap1\n      sload\n      swap1\n      0x0100\n      exp\n      swap1\n      div\n      0xffffffffffffffffffffffffffff\n      and\n        /* \"contracts/Pair.sol\":1545:1582  (amountBIn * _totalSupply) / reserveB */\n      0xffffffffffffffffffffffffffff\n      and\n        /* \"contracts/Pair.sol\":1558:1570  _totalSupply */\n      dup4\n        /* \"contracts/Pair.sol\":1546:1555  amountBIn */\n      dup7\n        /* \"contracts/Pair.sol\":1546:1570  amountBIn * _totalSupply */\n      tag_162\n      swap2\n      swap1\n      tag_131\n      jump\t// in\n    tag_162:\n        /* \"contracts/Pair.sol\":1545:1582  (amountBIn * _totalSupply) / reserveB */\n      tag_163\n      swap2\n      swap1\n      tag_133\n      jump\t// in\n    tag_163:\n        /* \"contracts/Pair.sol\":1501:1505  _min */\n      tag_164\n        /* \"contracts/Pair.sol\":1501:1583  _min((amountAIn * _totalSupply) / reserveA, (amountBIn * _totalSupply) / reserveB) */\n      jump\t// in\n    tag_159:\n        /* \"contracts/Pair.sol\":1496:1583  lp = _min((amountAIn * _totalSupply) / reserveA, (amountBIn * _totalSupply) / reserveB) */\n      swap2\n      pop\n        /* \"contracts/Pair.sol\":1392:1595  if (_totalSupply == 0) {... */\n    tag_158:\n        /* \"contracts/Pair.sol\":1618:1619  0 */\n      0x00\n        /* \"contracts/Pair.sol\":1613:1615  lp */\n      dup3\n        /* \"contracts/Pair.sol\":1613:1619  lp > 0 */\n      gt\n        /* \"contracts/Pair.sol\":1605:1627  require(lp > 0, \"LP0\") */\n      tag_165\n      jumpi\n      mload(0x40)\n      0x08c379a000000000000000000000000000000000000000000000000000000000\n      dup2\n      mstore\n      0x04\n      add\n      tag_166\n      swap1\n      tag_128\n      jump\t// in\n    tag_166:\n      mload(0x40)\n      dup1\n      swap2\n      sub\n      swap1\n      revert\n    tag_165:\n        /* \"contracts/Pair.sol\":1640:1661  _mint(msg.sender, lp) */\n      tag_167\n        /* \"contracts/Pair.sol\":1646:1656  msg.sender */\n      caller\n        /* \"contracts/Pair.sol\":1658:1660  lp */\n      dup4\n        /* \"contracts/Pair.sol\":1640:1645  _mint */\n      tag_168\n        /* \"contracts/Pair.sol\":1640:1661  _mint(msg.sender, lp) */\n      jump\t// in\n    tag_167:\n        /* \"contracts/Pair.sol\":1672:1679  _sync() */\n      tag_169\n        /* \"contracts/Pair.sol\":1672:1677  _sync */\n      tag_142\n        /* \"contracts/Pair.sol\":1672:1679  _sync() */\n      jump\t// in\n    tag_169:\n        /* \"contracts/Pair.sol\":1710:1720  msg.sender */\n      caller\n        /* \"contracts/Pair.sol\":1697:1747  AddLiquidity(msg.sender, amountAIn, amountBIn, lp) */\n      0xffffffffffffffffffffffffffffffffffffffff\n      and\n      0xbeb3885786d637a474cbc287c0a44587231633a077f0bd30354d5a4b18996fce\n        /* \"contracts/Pair.sol\":1722:1731  amountAIn */\n      dup6\n        /* \"contracts/Pair.sol\":1733:1742  amountBIn */\n      dup6\n        /* \"contracts/Pair.sol\":1744:1746  lp */\n      dup6\n        /* \"contracts/Pair.sol\":1697:1747  AddLiquidity(msg.sender, amountAIn, amountBIn, lp) */\n      mload(0x40)\n      tag_170\n      swap4\n      swap3\n      swap2\n      swap1\n      tag_144\n      jump\t// in\n    tag_170:\n      mload(0x40)\n      dup1\n      swap2\n      sub\n      swap1\n      log2\n        /* \"contracts/Pair.sol\":1109:1755  {... */\n      pop\n        /* \"contracts/Pair.sol\":1019:1755  function addLiquidity(uint256 amountAIn, uint256 amountBIn) external returns (uint256 lp) {... */\n      swap3\n      swap2\n      pop\n      pop\n      jump\t// out\n        /* \"@openzeppelin/contracts/token/ERC20/ERC20.sol\":3244:3422  function transfer(address to, uint256 value) public virtual returns (bool) {... */\n    tag_82:\n        /* \"@openzeppelin/contracts/token/ERC20/ERC20.sol\":3313:3317  bool */\n      0x00\n        /* \"@openzeppelin/contracts/token/ERC20/ERC20.sol\":3329:3342  address owner */\n      0x00\n        /* \"@openzeppelin/contracts/token/ERC20/ERC20.sol\":3345:3357  _msgSender() */\n      tag_172\n        /* \"@openzeppelin/contracts/token/ERC20/ERC20.sol\":3345:3355  _msgSender */\n      tag_107\n        /* \"@openzeppelin/contracts/token/ERC20/ERC20.sol\":3345:3357  _msgSender() */\n      jump\t// in\n    tag_172:\n        /* \"@openzeppelin/contracts/token/ERC20/ERC20.sol\":3329:3357  address owner = _msgSender() */\n      swap1\n      pop\n        /* \"@openzeppelin/contracts/token/ERC20/ERC20.sol\":3367:3394  _transfer(owner, to, value) */\n      tag_173\n        /* \"@openzeppelin/contracts/token/ERC20/ERC20.sol\":3377:3382  owner */\n      dup2\n        /* \"@openzeppelin/contracts/token/ERC20/ERC20.sol\":3384:3386  to */\n      dup6\n        /* \"@openzeppelin/contracts/token/ERC20/ERC20.sol\":3388:3393  value */\n      dup6\n        /* \"@openzeppelin/contracts/token/ERC20/ERC20.sol\":3367:3376  _transfer */\n      tag_116\n        /* \"@openzeppelin/contracts/token/ERC20/ERC20.sol\":3367:3394  _transfer(owner, to, value) */\n      jump\t// in\n    tag_173:\n        /* \"@openzeppelin/contracts/token/ERC20/ERC20.sol\":3411:3415  true */\n      0x01\n        /* \"@openzeppelin/contracts/token/ERC20/ERC20.sol\":3404:3415  return true */\n      swap2\n      pop\n      pop\n        /* \"@openzeppelin/contracts/token/ERC20/ERC20.sol\":3244:3422  function transfer(address to, uint256 value) public virtual returns (bool) {... */\n      swap3\n      swap2\n      pop\n      pop\n      jump\t// out\n        /* \"contracts/Pair.sol\":330:353  uint112 public reserveA */\n    tag_85:\n      0x05\n      0x00\n      swap1\n      sload\n      swap1\n      0x0100\n      exp\n      swap1\n      div\n      0xffffffffffffffffffffffffffff\n      and\n      dup2\n      jump\t// out\n        /* \"@openzeppelin/contracts/token/ERC20/ERC20.sol\":3455:3595  function allowance(address owner, address spender) public view virtual returns (uint256) {... */\n    tag_90:\n        /* \"@openzeppelin/contracts/token/ERC20/ERC20.sol\":3535:3542  uint256 */\n      0x00\n        /* \"@openzeppelin/contracts/token/ERC20/ERC20.sol\":3561:3572  _allowances */\n      0x01\n        /* \"@openzeppelin/contracts/token/ERC20/ERC20.sol\":3561:3579  _allowances[owner] */\n      0x00\n        /* \"@openzeppelin/contracts/token/ERC20/ERC20.sol\":3573:3578  owner */\n      dup5\n        /* \"@openzeppelin/contracts/token/ERC20/ERC20.sol\":3561:3579  _allowances[owner] */\n      0xffffffffffffffffffffffffffffffffffffffff\n      and\n      0xffffffffffffffffffffffffffffffffffffffff\n      and\n      dup2\n      mstore\n      0x20\n      add\n      swap1\n      dup2\n      mstore\n      0x20\n      add\n      0x00\n      keccak256\n        /* \"@openzeppelin/contracts/token/ERC20/ERC20.sol\":3561:3588  _allowances[owner][spender] */\n      0x00\n        /* \"@openzeppelin/contracts/token/ERC20/ERC20.sol\":3580:3587  spender */\n      dup4\n        /* \"@openzeppelin/contracts/token/ERC20/ERC20.sol\":3561:3588  _allowances[owner][spender] */\n      0xffffffffffffffffffffffffffffffffffffffff\n      and\n      0xffffffffffffffffffffffffffffffffffffffff\n      and\n      dup2\n      mstore\n      0x20\n      add\n      swap1\n      dup2\n      mstore\n      0x20\n      add\n      0x00\n      keccak256\n      sload\n        /* \"@openzeppelin/contracts/token/ERC20/ERC20.sol\":3554:3588  return _allowances[owner][spender] */\n      swap1\n      pop\n        /* \"@openzeppelin/contracts/token/ERC20/ERC20.sol\":3455:3595  function allowance(address owner, address spender) public view virtual returns (uint256) {... */\n      swap3\n      swap2\n      pop\n      pop\n      jump\t// out\n        /* \"contracts/Pair.sol\":2416:3317  function swap(address tokenIn, uint256 amountIn, uint256 minOut, address to) external returns (uint256 amountOut) {... */\n    tag_95:\n        /* \"contracts/Pair.sol\":2511:2528  uint256 amountOut */\n      0x00\n        /* \"contracts/Pair.sol\":2560:2566  tokenA */\n      immutable(\"0x5b6a546b7cfedf13dc93595cbe2c0b3f37f2d5f34e089553d8d47fde8ea9ce61\")\n        /* \"contracts/Pair.sol\":2549:2566  tokenIn == tokenA */\n      0xffffffffffffffffffffffffffffffffffffffff\n      and\n        /* \"contracts/Pair.sol\":2549:2556  tokenIn */\n      dup6\n        /* \"contracts/Pair.sol\":2549:2566  tokenIn == tokenA */\n      0xffffffffffffffffffffffffffffffffffffffff\n      and\n      eq\n        /* \"contracts/Pair.sol\":2549:2587  tokenIn == tokenA || tokenIn == tokenB */\n      dup1\n      tag_176\n      jumpi\n      pop\n        /* \"contracts/Pair.sol\":2581:2587  tokenB */\n      immutable(\"0x30b801f50f507cdc749dca4b282a53ad2b663e22e445dd03e810efdd1a471d72\")\n        /* \"contracts/Pair.sol\":2570:2587  tokenIn == tokenB */\n      0xffffffffffffffffffffffffffffffffffffffff\n      and\n        /* \"contracts/Pair.sol\":2570:2577  tokenIn */\n      dup6\n        /* \"contracts/Pair.sol\":2570:2587  tokenIn == tokenB */\n      0xffffffffffffffffffffffffffffffffffffffff\n      and\n      eq\n        /* \"contracts/Pair.sol\":2549:2587  tokenIn == tokenA || tokenIn == tokenB */\n    tag_176:\n        /* \"contracts/Pair.sol\":2541:2597  require(tokenIn == tokenA || tokenIn == tokenB, \"TOKEN\") */\n      tag_177\n      jumpi\n      mload(0x40)\n      0x08c379a000000000000000000000000000000000000000000000000000000000\n      dup2\n      mstore\n      0x04\n      add\n      tag_178\n      swap1\n      tag_179\n      jump\t// in\n    tag_178:\n      mload(0x40)\n      dup1\n      swap2\n      sub\n      swap1\n      revert\n    tag_177:\n        /* \"contracts/Pair.sol\":2627:2628  0 */\n      0x00\n        /* \"contracts/Pair.sol\":2616:2624  amountIn */\n      dup5\n        /* \"contracts/Pair.sol\":2616:2628  amountIn > 0 */\n      gt\n        /* \"contracts/Pair.sol\":2608:2636  require(amountIn > 0, \"IN0\") */\n      tag_180\n      jumpi\n      mload(0x40)\n      0x08c379a000000000000000000000000000000000000000000000000000000000\n      dup2\n      mstore\n      0x04\n      add\n      tag_181\n      swap1\n      tag_182\n      jump\t// in\n    tag_181:\n      mload(0x40)\n      dup1\n      swap2\n      sub\n      swap1\n      revert\n    tag_180:\n        /* \"contracts/Pair.sol\":2669:2670  0 */\n      0x00\n        /* \"contracts/Pair.sol\":2655:2671  to != address(0) */\n      0xffffffffffffffffffffffffffffffffffffffff\n      and\n        /* \"contracts/Pair.sol\":2655:2657  to */\n      dup3\n        /* \"contracts/Pair.sol\":2655:2671  to != address(0) */\n      0xffffffffffffffffffffffffffffffffffffffff\n      and\n      sub\n        /* \"contracts/Pair.sol\":2647:2679  require(to != address(0), \"TO0\") */\n      tag_183\n      jumpi\n      mload(0x40)\n      0x08c379a000000000000000000000000000000000000000000000000000000000\n      dup2\n      mstore\n      0x04\n      add\n      tag_184\n      swap1\n      tag_185\n      jump\t// in\n    tag_184:\n      mload(0x40)\n      dup1\n      swap2\n      sub\n      swap1\n      revert\n    tag_183:\n        /* \"contracts/Pair.sol\":2692:2700  bool isA */\n      0x00\n        /* \"contracts/Pair.sol\":2715:2721  tokenA */\n      immutable(\"0x5b6a546b7cfedf13dc93595cbe2c0b3f37f2d5f34e089553d8d47fde8ea9ce61\")\n        /* \"contracts/Pair.sol\":2704:2721  tokenIn == tokenA */\n      0xffffffffffffffffffffffffffffffffffffffff\n      and\n        /* \"contracts/Pair.sol\":2704:2711  tokenIn */\n      dup7\n        /* \"contracts/Pair.sol\":2704:2721  tokenIn == tokenA */\n      0xffffffffffffffffffffffffffffffffffffffff\n      and\n      eq\n        /* \"contracts/Pair.sol\":2692:2722  bool isA = (tokenIn == tokenA) */\n      swap1\n      pop\n        /* \"contracts/Pair.sol\":2733:2749  address tokenOut */\n      0x00\n        /* \"contracts/Pair.sol\":2752:2755  isA */\n      dup2\n        /* \"contracts/Pair.sol\":2752:2773  isA ? tokenB : tokenA */\n      tag_186\n      jumpi\n        /* \"contracts/Pair.sol\":2767:2773  tokenA */\n      immutable(\"0x5b6a546b7cfedf13dc93595cbe2c0b3f37f2d5f34e089553d8d47fde8ea9ce61\")\n        /* \"contracts/Pair.sol\":2752:2773  isA ? tokenB : tokenA */\n      jump(tag_187)\n    tag_186:\n        /* \"contracts/Pair.sol\":2758:2764  tokenB */\n      immutable(\"0x30b801f50f507cdc749dca4b282a53ad2b663e22e445dd03e810efdd1a471d72\")\n        /* \"contracts/Pair.sol\":2752:2773  isA ? tokenB : tokenA */\n    tag_187:\n        /* \"contracts/Pair.sol\":2733:2773  address tokenOut = isA ? tokenB : tokenA */\n      swap1\n      pop\n        /* \"contracts/Pair.sol\":2785:2796  uint256 rIn */\n      0x00\n        /* \"contracts/Pair.sol\":2798:2810  uint256 rOut */\n      0x00\n        /* \"contracts/Pair.sol\":2814:2817  isA */\n      dup4\n        /* \"contracts/Pair.sol\":2814:2863  isA ? (reserveA, reserveB) : (reserveB, reserveA) */\n      tag_188\n      jumpi\n        /* \"contracts/Pair.sol\":2844:2852  reserveB */\n      0x05\n      0x0e\n      swap1\n      sload\n      swap1\n      0x0100\n      exp\n      swap1\n      div\n      0xffffffffffffffffffffffffffff\n      and\n        /* \"contracts/Pair.sol\":2854:2862  reserveA */\n      0x05\n      0x00\n      swap1\n      sload\n      swap1\n      0x0100\n      exp\n      swap1\n      div\n      0xffffffffffffffffffffffffffff\n      and\n        /* \"contracts/Pair.sol\":2814:2863  isA ? (reserveA, reserveB) : (reserveB, reserveA) */\n      jump(tag_189)\n    tag_188:\n        /* \"contracts/Pair.sol\":2821:2829  reserveA */\n      0x05\n      0x00\n      swap1\n      sload\n      swap1\n      0x0100\n      exp\n      swap1\n      div\n      0xffffffffffffffffffffffffffff\n      and\n        /* \"contracts/Pair.sol\":2831:2839  reserveB */\n      0x05\n      0x0e\n      swap1\n      sload\n      swap1\n      0x0100\n      exp\n      swap1\n      div\n      0xffffffffffffffffffffffffffff\n      and\n        /* \"contracts/Pair.sol\":2814:2863  isA ? (reserveA, reserveB) : (reserveB, reserveA) */\n    tag_189:\n        /* \"contracts/Pair.sol\":2784:2863  (uint256 rIn, uint256 rOut) = isA ? (reserveA, reserveB) : (reserveB, reserveA) */\n      0xffffffffffffffffffffffffffff\n      and\n      swap2\n      pop\n      0xffffffffffffffffffffffffffff\n      and\n      swap2\n      pop\n        /* \"contracts/Pair.sol\":2876:2945  IERC20(tokenIn).safeTransferFrom(msg.sender, address(this), amountIn) */\n      tag_190\n        /* \"contracts/Pair.sol\":2909:2919  msg.sender */\n      caller\n        /* \"contracts/Pair.sol\":2929:2933  this */\n      address\n        /* \"contracts/Pair.sol\":2936:2944  amountIn */\n      dup11\n        /* \"contracts/Pair.sol\":2883:2890  tokenIn */\n      dup13\n        /* \"contracts/Pair.sol\":2876:2908  IERC20(tokenIn).safeTransferFrom */\n      0xffffffffffffffffffffffffffffffffffffffff\n      and\n      tag_151\n      swap1\n        /* \"contracts/Pair.sol\":2876:2945  IERC20(tokenIn).safeTransferFrom(msg.sender, address(this), amountIn) */\n      swap4\n      swap3\n      swap2\n      swap1\n      0xffffffff\n      and\n      jump\t// in\n    tag_190:\n        /* \"contracts/Pair.sol\":2958:2981  uint256 amountInWithFee */\n      0x00\n        /* \"contracts/Pair.sol\":2995:2998  997 */\n      0x03e5\n        /* \"contracts/Pair.sol\":2984:2992  amountIn */\n      dup10\n        /* \"contracts/Pair.sol\":2984:2998  amountIn * 997 */\n      tag_191\n      swap2\n      swap1\n      tag_131\n      jump\t// in\n    tag_191:\n        /* \"contracts/Pair.sol\":2958:2998  uint256 amountInWithFee = amountIn * 997 */\n      swap1\n      pop\n        /* \"contracts/Pair.sol\":3070:3085  amountInWithFee */\n      dup1\n        /* \"contracts/Pair.sol\":3063:3067  1000 */\n      0x03e8\n        /* \"contracts/Pair.sol\":3057:3060  rIn */\n      dup5\n        /* \"contracts/Pair.sol\":3057:3067  rIn * 1000 */\n      tag_192\n      swap2\n      swap1\n      tag_131\n      jump\t// in\n    tag_192:\n        /* \"contracts/Pair.sol\":3057:3085  rIn * 1000 + amountInWithFee */\n      tag_193\n      swap2\n      swap1\n      tag_194\n      jump\t// in\n    tag_193:\n        /* \"contracts/Pair.sol\":3048:3052  rOut */\n      dup3\n        /* \"contracts/Pair.sol\":3030:3045  amountInWithFee */\n      dup3\n        /* \"contracts/Pair.sol\":3030:3052  amountInWithFee * rOut */\n      tag_195\n      swap2\n      swap1\n      tag_131\n      jump\t// in\n    tag_195:\n        /* \"contracts/Pair.sol\":3029:3086  (amountInWithFee * rOut) / (rIn * 1000 + amountInWithFee) */\n      tag_196\n      swap2\n      swap1\n      tag_133\n      jump\t// in\n    tag_196:\n        /* \"contracts/Pair.sol\":3017:3086  amountOut = (amountInWithFee * rOut) / (rIn * 1000 + amountInWithFee) */\n      swap6\n      pop\n        /* \"contracts/Pair.sol\":3120:3126  minOut */\n      dup8\n        /* \"contracts/Pair.sol\":3107:3116  amountOut */\n      dup7\n        /* \"contracts/Pair.sol\":3107:3126  amountOut >= minOut */\n      lt\n      iszero\n        /* \"contracts/Pair.sol\":3107:3143  amountOut >= minOut && amountOut > 0 */\n      dup1\n      iszero\n      tag_197\n      jumpi\n      pop\n        /* \"contracts/Pair.sol\":3142:3143  0 */\n      0x00\n        /* \"contracts/Pair.sol\":3130:3139  amountOut */\n      dup7\n        /* \"contracts/Pair.sol\":3130:3143  amountOut > 0 */\n      gt\n        /* \"contracts/Pair.sol\":3107:3143  amountOut >= minOut && amountOut > 0 */\n    tag_197:\n        /* \"contracts/Pair.sol\":3099:3156  require(amountOut >= minOut && amountOut > 0, \"SLIPPAGE\") */\n      tag_198\n      jumpi\n      mload(0x40)\n      0x08c379a000000000000000000000000000000000000000000000000000000000\n      dup2\n      mstore\n      0x04\n      add\n      tag_199\n      swap1\n      tag_200\n      jump\t// in\n    tag_199:\n      mload(0x40)\n      dup1\n      swap2\n      sub\n      swap1\n      revert\n    tag_198:\n        /* \"contracts/Pair.sol\":3169:3213  IERC20(tokenOut).safeTransfer(to, amountOut) */\n      tag_201\n        /* \"contracts/Pair.sol\":3199:3201  to */\n      dup8\n        /* \"contracts/Pair.sol\":3203:3212  amountOut */\n      dup8\n        /* \"contracts/Pair.sol\":3176:3184  tokenOut */\n      dup7\n        /* \"contracts/Pair.sol\":3169:3198  IERC20(tokenOut).safeTransfer */\n      0xffffffffffffffffffffffffffffffffffffffff\n      and\n      tag_139\n      swap1\n        /* \"contracts/Pair.sol\":3169:3213  IERC20(tokenOut).safeTransfer(to, amountOut) */\n      swap3\n      swap2\n      swap1\n      0xffffffff\n      and\n      jump\t// in\n    tag_201:\n        /* \"contracts/Pair.sol\":3226:3233  _sync() */\n      tag_202\n        /* \"contracts/Pair.sol\":3226:3231  _sync */\n      tag_142\n        /* \"contracts/Pair.sol\":3226:3233  _sync() */\n      jump\t// in\n    tag_202:\n        /* \"contracts/Pair.sol\":3254:3264  msg.sender */\n      caller\n        /* \"contracts/Pair.sol\":3249:3309  Swap(msg.sender, tokenIn, tokenOut, amountIn, amountOut, to) */\n      0xffffffffffffffffffffffffffffffffffffffff\n      and\n      0x54787c404bb33c88e86f4baf88183a3b0141d0a848e6a9f7a13b66ae3a9b73d1\n        /* \"contracts/Pair.sol\":3266:3273  tokenIn */\n      dup12\n        /* \"contracts/Pair.sol\":3275:3283  tokenOut */\n      dup7\n        /* \"contracts/Pair.sol\":3285:3293  amountIn */\n      dup13\n        /* \"contracts/Pair.sol\":3295:3304  amountOut */\n      dup11\n        /* \"contracts/Pair.sol\":3306:3308  to */\n      dup13\n        /* \"contracts/Pair.sol\":3249:3309  Swap(msg.sender, tokenIn, tokenOut, amountIn, amountOut, to) */\n      mload(0x40)\n      tag_203\n      swap6\n      swap5\n      swap4\n      swap3\n      swap2\n      swap1\n      tag_204\n      jump\t// in\n    tag_203:\n      mload(0x40)\n      dup1\n      swap2\n      sub\n      swap1\n      log2\n        /* \"contracts/Pair.sol\":2530:3317  {... */\n      pop\n      pop\n      pop\n      pop\n      pop\n        /* \"contracts/Pair.sol\":2416:3317  function swap(address tokenIn, uint256 amountIn, uint256 minOut, address to) external returns (uint256 amountOut) {... */\n      swap5\n      swap4\n      pop\n      pop\n      pop\n      pop\n      jump\t// out\n        /* \"@openzeppelin/contracts/utils/Context.sol\":656:752  function _msgSender() internal view virtual returns (address) {... */\n    tag_107:\n        /* \"@openzeppelin/contracts/utils/Context.sol\":709:716  address */\n      0x00\n        /* \"@openzeppelin/contracts/utils/Context.sol\":735:745  msg.sender */\n      caller\n        /* \"@openzeppelin/contracts/utils/Context.sol\":728:745  return msg.sender */\n      swap1\n      pop\n        /* \"@openzeppelin/contracts/utils/Context.sol\":656:752  function _msgSender() internal view virtual returns (address) {... */\n      swap1\n      jump\t// out\n        /* \"@openzeppelin/contracts/token/ERC20/ERC20.sol\":8630:8758  function _approve(address owner, address spender, uint256 value) internal {... */\n    tag_109:\n        /* \"@openzeppelin/contracts/token/ERC20/ERC20.sol\":8714:8751  _approve(owner, spender, value, true) */\n      tag_207\n        /* \"@openzeppelin/contracts/token/ERC20/ERC20.sol\":8723:8728  owner */\n      dup4\n        /* \"@openzeppelin/contracts/token/ERC20/ERC20.sol\":8730:8737  spender */\n      dup4\n        /* \"@openzeppelin/contracts/token/ERC20/ERC20.sol\":8739:8744  value */\n      dup4\n        /* \"@openzeppelin/contracts/token/ERC20/ERC20.sol\":8746:8750  true */\n      0x01\n        /* \"@openzeppelin/contracts/token/ERC20/ERC20.sol\":8714:8722  _approve */\n      tag_208\n        /* \"@openzeppelin/contracts/token/ERC20/ERC20.sol\":8714:8751  _approve(owner, spender, value, true) */\n      jump\t// in\n    tag_207:\n        /* \"@openzeppelin/contracts/token/ERC20/ERC20.sol\":8630:8758  function _approve(address owner, address spender, uint256 value) internal {... */\n      pop\n      pop\n      pop\n      jump\t// out\n        /* \"@openzeppelin/contracts/token/ERC20/ERC20.sol\":10319:10795  function _spendAllowance(address owner, address spender, uint256 value) internal virtual {... */\n    tag_114:\n        /* \"@openzeppelin/contracts/token/ERC20/ERC20.sol\":10418:10442  uint256 currentAllowance */\n      0x00\n        /* \"@openzeppelin/contracts/token/ERC20/ERC20.sol\":10445:10470  allowance(owner, spender) */\n      tag_210\n        /* \"@openzeppelin/contracts/token/ERC20/ERC20.sol\":10455:10460  owner */\n      dup5\n        /* \"@openzeppelin/contracts/token/ERC20/ERC20.sol\":10462:10469  spender */\n      dup5\n        /* \"@openzeppelin/contracts/token/ERC20/ERC20.sol\":10445:10454  allowance */\n      tag_90\n        /* \"@openzeppelin/contracts/token/ERC20/ERC20.sol\":10445:10470  allowance(owner, spender) */\n      jump\t// in\n    tag_210:\n        /* \"@openzeppelin/contracts/token/ERC20/ERC20.sol\":10418:10470  uint256 currentAllowance = allowance(owner, spender) */\n      swap1\n      pop\n        /* \"@openzeppelin/contracts/token/ERC20/ERC20.sol\":10503:10520  type(uint256).max */\n      0xffffffffffffffffffffffffffffffffffffffffffffffffffffffffffffffff\n        /* \"@openzeppelin/contracts/token/ERC20/ERC20.sol\":10484:10500  currentAllowance */\n      dup2\n        /* \"@openzeppelin/contracts/token/ERC20/ERC20.sol\":10484:10520  currentAllowance < type(uint256).max */\n      lt\n        /* \"@openzeppelin/contracts/token/ERC20/ERC20.sol\":10480:10789  if (currentAllowance < type(uint256).max) {... */\n      iszero\n      tag_211\n      jumpi\n        /* \"@openzeppelin/contracts/token/ERC20/ERC20.sol\":10559:10564  value */\n      dup2\n        /* \"@openzeppelin/contracts/token/ERC20/ERC20.sol\":10540:10556  currentAllowance */\n      dup2\n        /* \"@openzeppelin/contracts/token/ERC20/ERC20.sol\":10540:10564  currentAllowance < value */\n      lt\n        /* \"@openzeppelin/contracts/token/ERC20/ERC20.sol\":10536:10666  if (currentAllowance < value) {... */\n      iszero\n      tag_212\n      jumpi\n        /* \"@openzeppelin/contracts/token/ERC20/ERC20.sol\":10618:10625  spender */\n      dup3\n        /* \"@openzeppelin/contracts/token/ERC20/ERC20.sol\":10627:10643  currentAllowance */\n      dup2\n        /* \"@openzeppelin/contracts/token/ERC20/ERC20.sol\":10645:10650  value */\n      dup4\n        /* \"@openzeppelin/contracts/token/ERC20/ERC20.sol\":10591:10651  ERC20InsufficientAllowance(spender, currentAllowance, value) */\n      mload(0x40)\n      0xfb8f41b200000000000000000000000000000000000000000000000000000000\n      dup2\n      mstore\n      0x04\n      add\n      tag_213\n      swap4\n      swap3\n      swap2\n      swap1\n      tag_214\n      jump\t// in\n    tag_213:\n      mload(0x40)\n      dup1\n      swap2\n      sub\n      swap1\n      revert\n        /* \"@openzeppelin/contracts/token/ERC20/ERC20.sol\":10536:10666  if (currentAllowance < value) {... */\n    tag_212:\n        /* \"@openzeppelin/contracts/token/ERC20/ERC20.sol\":10707:10764  _approve(owner, spender, currentAllowance - value, false) */\n      tag_215\n        /* \"@openzeppelin/contracts/token/ERC20/ERC20.sol\":10716:10721  owner */\n      dup5\n        /* \"@openzeppelin/contracts/token/ERC20/ERC20.sol\":10723:10730  spender */\n      dup5\n        /* \"@openzeppelin/contracts/token/ERC20/ERC20.sol\":10751:10756  value */\n      dup5\n        /* \"@openzeppelin/contracts/token/ERC20/ERC20.sol\":10732:10748  currentAllowance */\n      dup5\n        /* \"@openzeppelin/contracts/token/ERC20/ERC20.sol\":10732:10756  currentAllowance - value */\n      sub\n        /* \"@openzeppelin/contracts/token/ERC20/ERC20.sol\":10758:10763  false */\n      0x00\n        /* \"@openzeppelin/contracts/token/ERC20/ERC20.sol\":10707:10715  _approve */\n      tag_208\n        /* \"@openzeppelin/contracts/token/ERC20/ERC20.sol\":10707:10764  _approve(owner, spender, currentAllowance - value, false) */\n      jump\t// in\n    tag_215:\n        /* \"@openzeppelin/contracts/token/ERC20/ERC20.sol\":10480:10789  if (currentAllowance < type(uint256).max) {... */\n    tag_211:\n        /* \"@openzeppelin/contracts/token/ERC20/ERC20.sol\":10408:10795  {... */\n      pop\n        /* \"@openzeppelin/contracts/token/ERC20/ERC20.sol\":10319:10795  function _spendAllowance(address owner, address spender, uint256 value) internal virtual {... */\n      pop\n      pop\n      pop\n      jump\t// out\n        /* \"@openzeppelin/contracts/token/ERC20/ERC20.sol\":5297:5597  function _transfer(address from, address to, uint256 value) internal {... */\n    tag_116:\n        /* \"@openzeppelin/contracts/token/ERC20/ERC20.sol\":5396:5397  0 */\n      0x00\n        /* \"@openzeppelin/contracts/token/ERC20/ERC20.sol\":5380:5398  from == address(0) */\n      0xffffffffffffffffffffffffffffffffffffffff\n      and\n        /* \"@openzeppelin/contracts/token/ERC20/ERC20.sol\":5380:5384  from */\n      dup4\n        /* \"@openzeppelin/contracts/token/ERC20/ERC20.sol\":5380:5398  from == address(0) */\n      0xffffffffffffffffffffffffffffffffffffffff\n      and\n      sub\n        /* \"@openzeppelin/contracts/token/ERC20/ERC20.sol\":5376:5462  if (from == address(0)) {... */\n      tag_217\n      jumpi\n        /* \"@openzeppelin/contracts/token/ERC20/ERC20.sol\":5448:5449  0 */\n      0x00\n        /* \"@openzeppelin/contracts/token/ERC20/ERC20.sol\":5421:5451  ERC20InvalidSender(address(0)) */\n      mload(0x40)\n      0x96c6fd1e00000000000000000000000000000000000000000000000000000000\n      dup2\n      mstore\n      0x04\n      add\n      tag_218\n      swap2\n      swap1\n      tag_40\n      jump\t// in\n    tag_218:\n      mload(0x40)\n      dup1\n      swap2\n      sub\n      swap1\n      revert\n        /* \"@openzeppelin/contracts/token/ERC20/ERC20.sol\":5376:5462  if (from == address(0)) {... */\n    tag_217:\n        /* \"@openzeppelin/contracts/token/ERC20/ERC20.sol\":5489:5490  0 */\n      0x00\n        /* \"@openzeppelin/contracts/token/ERC20/ERC20.sol\":5475:5491  to == address(0) */\n      0xffffffffffffffffffffffffffffffffffffffff\n      and\n        /* \"@openzeppelin/contracts/token/ERC20/ERC20.sol\":5475:5477  to */\n      dup3\n        /* \"@openzeppelin/contracts/token/ERC20/ERC20.sol\":5475:5491  to == address(0) */\n      0xffffffffffffffffffffffffffffffffffffffff\n      and\n      sub\n        /* \"@openzeppelin/contracts/token/ERC20/ERC20.sol\":5471:5557  if (to == address(0)) {... */\n      tag_219\n      jumpi\n        /* \"@openzeppelin/contracts/token/ERC20/ERC20.sol\":5543:5544  0 */\n      0x00\n        /* \"@openzeppelin/contracts/token/ERC20/ERC20.sol\":5514:5546  ERC20InvalidReceiver(address(0)) */\n      mload(0x40)\n      0xec442f0500000000000000000000000000000000000000000000000000000000\n      dup2\n      mstore\n      0x04\n      add\n      tag_220\n      swap2\n      swap1\n      tag_40\n      jump\t// in\n    tag_220:\n      mload(0x40)\n      dup1\n      swap2\n      sub\n      swap1\n      revert\n        /* \"@openzeppelin/contracts/token/ERC20/ERC20.sol\":5471:5557  if (to == address(0)) {... */\n    tag_219:\n        /* \"@openzeppelin/contracts/token/ERC20/ERC20.sol\":5566:5590  _update(from, to, value) */\n      tag_221\n        /* \"@openzeppelin/contracts/token/ERC20/ERC20.sol\":5574:5578  from */\n      dup4\n        /* \"@openzeppelin/contracts/token/ERC20/ERC20.sol\":5580:5582  to */\n      dup4\n        /* \"@openzeppelin/contracts/token/ERC20/ERC20.sol\":5584:5589  value */\n      dup4\n        /* \"@openzeppelin/contracts/token/ERC20/ERC20.sol\":5566:5573  _update */\n      tag_222\n        /* \"@openzeppelin/contracts/token/ERC20/ERC20.sol\":5566:5590  _update(from, to, value) */\n      jump\t// in\n    tag_221:\n        /* \"@openzeppelin/contracts/token/ERC20/ERC20.sol\":5297:5597  function _transfer(address from, address to, uint256 value) internal {... */\n      pop\n      pop\n      pop\n      jump\t// out\n        /* \"@openzeppelin/contracts/token/ERC20/ERC20.sol\":7888:8094  function _burn(address account, uint256 value) internal {... */\n    tag_137:\n        /* \"@openzeppelin/contracts/token/ERC20/ERC20.sol\":7977:7978  0 */\n      0x00\n        /* \"@openzeppelin/contracts/token/ERC20/ERC20.sol\":7958:7979  account == address(0) */\n      0xffffffffffffffffffffffffffffffffffffffff\n      and\n        /* \"@openzeppelin/contracts/token/ERC20/ERC20.sol\":7958:7965  account */\n      dup3\n        /* \"@openzeppelin/contracts/token/ERC20/ERC20.sol\":7958:7979  account == address(0) */\n      0xffffffffffffffffffffffffffffffffffffffff\n      and\n      sub\n        /* \"@openzeppelin/contracts/token/ERC20/ERC20.sol\":7954:8043  if (account == address(0)) {... */\n      tag_224\n      jumpi\n        /* \"@openzeppelin/contracts/token/ERC20/ERC20.sol\":8029:8030  0 */\n      0x00\n        /* \"@openzeppelin/contracts/token/ERC20/ERC20.sol\":8002:8032  ERC20InvalidSender(address(0)) */\n      mload(0x40)\n      0x96c6fd1e00000000000000000000000000000000000000000000000000000000\n      dup2\n      mstore\n      0x04\n      add\n      tag_225\n      swap2\n      swap1\n      tag_40\n      jump\t// in\n    tag_225:\n      mload(0x40)\n      dup1\n      swap2\n      sub\n      swap1\n      revert\n        /* \"@openzeppelin/contracts/token/ERC20/ERC20.sol\":7954:8043  if (account == address(0)) {... */\n    tag_224:\n        /* \"@openzeppelin/contracts/token/ERC20/ERC20.sol\":8052:8087  _update(account, address(0), value) */\n      tag_226\n        /* \"@openzeppelin/contracts/token/ERC20/ERC20.sol\":8060:8067  account */\n      dup3\n        /* \"@openzeppelin/contracts/token/ERC20/ERC20.sol\":8077:8078  0 */\n      0x00\n        /* \"@openzeppelin/contracts/token/ERC20/ERC20.sol\":8081:8086  value */\n      dup4\n        /* \"@openzeppelin/contracts/token/ERC20/ERC20.sol\":8052:8059  _update */\n      tag_222\n        /* \"@openzeppelin/contracts/token/ERC20/ERC20.sol\":8052:8087  _update(account, address(0), value) */\n      jump\t// in\n    tag_226:\n        /* \"@openzeppelin/contracts/token/ERC20/ERC20.sol\":7888:8094  function _burn(address account, uint256 value) internal {... */\n      pop\n      pop\n      jump\t// out\n        /* \"@openzeppelin/contracts/token/ERC20/utils/SafeERC20.sol\":1219:1379  function safeTransfer(IERC20 token, address to, uint256 value) internal {... */\n    tag_139:\n        /* \"@openzeppelin/contracts/token/ERC20/utils/SafeERC20.sol\":1301:1372  _callOptionalReturn(token, abi.encodeCall(token.transfer, (to, value))) */\n      tag_228\n        /* \"@openzeppelin/contracts/token/ERC20/utils/SafeERC20.sol\":1321:1326  token */\n      dup4\n        /* \"@openzeppelin/contracts/token/ERC20/utils/SafeERC20.sol\":1343:1348  token */\n      dup5\n        /* \"@openzeppelin/contracts/token/ERC20/utils/SafeERC20.sol\":1343:1357  token.transfer */\n      0xffffffffffffffffffffffffffffffffffffffff\n      and\n      0xa9059cbb\n        /* \"@openzeppelin/contracts/token/ERC20/utils/SafeERC20.sol\":1360:1362  to */\n      dup6\n        /* \"@openzeppelin/contracts/token/ERC20/utils/SafeERC20.sol\":1364:1369  value */\n      dup6\n        /* \"@openzeppelin/contracts/token/ERC20/utils/SafeERC20.sol\":1328:1371  abi.encodeCall(token.transfer, (to, value)) */\n      add(0x24, mload(0x40))\n      tag_229\n      swap3\n      swap2\n      swap1\n      tag_230\n      jump\t// in\n    tag_229:\n      mload(0x40)\n      0x20\n      dup2\n      dup4\n      sub\n      sub\n      dup2\n      mstore\n      swap1\n      0x40\n      mstore\n      swap2\n      pop\n      0xe0\n      shl\n      0x20\n      dup3\n      add\n      dup1\n      mload\n      0xffffffffffffffffffffffffffffffffffffffffffffffffffffffff\n      dup4\n      dup2\n      dup4\n      and\n      or\n      dup4\n      mstore\n      pop\n      pop\n      pop\n      pop\n        /* \"@openzeppelin/contracts/token/ERC20/utils/SafeERC20.sol\":1301:1320  _callOptionalReturn */\n      tag_231\n        /* \"@openzeppelin/contracts/token/ERC20/utils/SafeERC20.sol\":1301:1372  _callOptionalReturn(token, abi.encodeCall(token.transfer, (to, value))) */\n      jump\t// in\n    tag_228:\n        /* \"@openzeppelin/contracts/token/ERC20/utils/SafeERC20.sol\":1219:1379  function safeTransfer(IERC20 token, address to, uint256 value) internal {... */\n      pop\n      pop\n      pop\n      jump\t// out\n        /* \"contracts/Pair.sol\":3327:3501  function _sync() internal {... */\n    tag_142:\n        /* \"contracts/Pair.sol\":3390:3396  tokenA */\n      immutable(\"0x5b6a546b7cfedf13dc93595cbe2c0b3f37f2d5f34e089553d8d47fde8ea9ce61\")\n        /* \"contracts/Pair.sol\":3383:3407  IERC20(tokenA).balanceOf */\n      0xffffffffffffffffffffffffffffffffffffffff\n      and\n      0x70a08231\n        /* \"contracts/Pair.sol\":3416:3420  this */\n      address\n        /* \"contracts/Pair.sol\":3383:3422  IERC20(tokenA).balanceOf(address(this)) */\n      mload(0x40)\n      dup3\n      0xffffffff\n      and\n      0xe0\n      shl\n      dup2\n      mstore\n      0x04\n      add\n      tag_233\n      swap2\n      swap1\n      tag_40\n      jump\t// in\n    tag_233:\n      0x20\n      mload(0x40)\n      dup1\n      dup4\n      sub\n      dup2\n      dup7\n      gas\n      staticcall\n      iszero\n      dup1\n      iszero\n      tag_235\n      jumpi\n      returndatacopy(0x00, 0x00, returndatasize)\n      revert(0x00, returndatasize)\n    tag_235:\n      pop\n      pop\n      pop\n      pop\n      mload(0x40)\n      returndatasize\n      not(0x1f)\n      0x1f\n      dup3\n      add\n      and\n      dup3\n      add\n      dup1\n      0x40\n      mstore\n      pop\n      dup2\n      add\n      swap1\n      tag_236\n      swap2\n      swap1\n      tag_237\n      jump\t// in\n    tag_236:\n        /* \"contracts/Pair.sol\":3364:3372  reserveA */\n      0x05\n      0x00\n        /* \"contracts/Pair.sol\":3364:3423  reserveA = uint112(IERC20(tokenA).balanceOf(address(this))) */\n      0x0100\n      exp\n      dup2\n      sload\n      dup2\n      0xffffffffffffffffffffffffffff\n      mul\n      not\n      and\n      swap1\n      dup4\n      0xffffffffffffffffffffffffffff\n      and\n      mul\n      or\n      swap1\n      sstore\n      pop\n        /* \"contracts/Pair.sol\":3460:3466  tokenB */\n      immutable(\"0x30b801f50f507cdc749dca4b282a53ad2b663e22e445dd03e810efdd1a471d72\")\n        /* \"contracts/Pair.sol\":3453:3477  IERC20(tokenB).balanceOf */\n      0xffffffffffffffffffffffffffffffffffffffff\n      and\n      0x70a08231\n        /* \"contracts/Pair.sol\":3486:3490  this */\n      address\n        /* \"contracts/Pair.sol\":3453:3492  IERC20(tokenB).balanceOf(address(this)) */\n      mload(0x40)\n      dup3\n      0xffffffff\n      and\n      0xe0\n      shl\n      dup2\n      mstore\n      0x04\n      add\n      tag_238\n      swap2\n      swap1\n      tag_40\n      jump\t// in\n    tag_238:\n      0x20\n      mload(0x40)\n      dup1\n      dup4\n      sub\n      dup2\n      dup7\n      gas\n      staticcall\n      iszero\n      dup1\n      iszero\n      tag_240\n      jumpi\n      returndatacopy(0x00, 0x00, returndatasize)\n      revert(0x00, returndatasize)\n    tag_240:\n      pop\n      pop\n      pop\n      pop\n      mload(0x40)\n      returndatasize\n      not(0x1f)\n      0x1f\n      dup3\n      add\n      and\n      dup3\n      add\n      dup1\n      0x40\n      mstore\n      pop\n      dup2\n      add\n      swap1\n      tag_241\n      swap2\n      swap1\n      tag_237\n      jump\t// in\n    tag_241:\n        /* \"contracts/Pair.sol\":3434:3442  reserveB */\n      0x05\n      0x0e\n        /* \"contracts/Pair.sol\":3434:3493  reserveB = uint112(IERC20(tokenB).balanceOf(address(this))) */\n      0x0100\n      exp\n      dup2\n      sload\n      dup2\n      0xffffffffffffffffffffffffffff\n      mul\n      not\n      and\n      swap1\n      dup4\n      0xffffffffffffffffffffffffffff\n      and\n      mul\n      or\n      swap1\n      sstore\n      pop\n        /* \"contracts/Pair.sol\":3327:3501  function _sync() internal {... */\n      jump\t// out\n        /* \"@openzeppelin/contracts/token/ERC20/utils/SafeERC20.sol\":1618:1806  function safeTransferFrom(IERC20 token, address from, address to, uint256 value) internal {... */\n    tag_151:\n        /* \"@openzeppelin/contracts/token/ERC20/utils/SafeERC20.sol\":1718:1799  _callOptionalReturn(token, abi.encodeCall(token.transferFrom, (from, to, value))) */\n      tag_243\n        /* \"@openzeppelin/contracts/token/ERC20/utils/SafeERC20.sol\":1738:1743  token */\n      dup5\n        /* \"@openzeppelin/contracts/token/ERC20/utils/SafeERC20.sol\":1760:1765  token */\n      dup6\n        /* \"@openzeppelin/contracts/token/ERC20/utils/SafeERC20.sol\":1760:1778  token.transferFrom */\n      0xffffffffffffffffffffffffffffffffffffffff\n      and\n      0x23b872dd\n        /* \"@openzeppelin/contracts/token/ERC20/utils/SafeERC20.sol\":1781:1785  from */\n      dup7\n        /* \"@openzeppelin/contracts/token/ERC20/utils/SafeERC20.sol\":1787:1789  to */\n      dup7\n        /* \"@openzeppelin/contracts/token/ERC20/utils/SafeERC20.sol\":1791:1796  value */\n      dup7\n        /* \"@openzeppelin/contracts/token/ERC20/utils/SafeERC20.sol\":1745:1798  abi.encodeCall(token.transferFrom, (from, to, value)) */\n      add(0x24, mload(0x40))\n      tag_244\n      swap4\n      swap3\n      swap2\n      swap1\n      tag_245\n      jump\t// in\n    tag_244:\n      mload(0x40)\n      0x20\n      dup2\n      dup4\n      sub\n      sub\n      dup2\n      mstore\n      swap1\n      0x40\n      mstore\n      swap2\n      pop\n      0xe0\n      shl\n      0x20\n      dup3\n      add\n      dup1\n      mload\n      0xffffffffffffffffffffffffffffffffffffffffffffffffffffffff\n      dup4\n      dup2\n      dup4\n      and\n      or\n      dup4\n      mstore\n      pop\n      pop\n      pop\n      pop\n        /* \"@openzeppelin/contracts/token/ERC20/utils/SafeERC20.sol\":1718:1737  _callOptionalReturn */\n      tag_231\n        /* \"@openzeppelin/contracts/token/ERC20/utils/SafeERC20.sol\":1718:1799  _callOptionalReturn(token, abi.encodeCall(token.transferFrom, (from, to, value))) */\n      jump\t// in\n    tag_243:\n        /* \"@openzeppelin/contracts/token/ERC20/utils/SafeERC20.sol\":1618:1806  function safeTransferFrom(IERC20 token, address from, address to, uint256 value) internal {... */\n      pop\n      pop\n      pop\n      pop\n      jump\t// out\n        /* \"contracts/Pair.sol\":3626:3866  function _sqrt(uint256 y) internal pure returns (uint256 z) {... */\n    tag_157:\n        /* \"contracts/Pair.sol\":3675:3684  uint256 z */\n      0x00\n        /* \"contracts/Pair.sol\":3705:3706  3 */\n      0x03\n        /* \"contracts/Pair.sol\":3701:3702  y */\n      dup3\n        /* \"contracts/Pair.sol\":3701:3706  y > 3 */\n      gt\n        /* \"contracts/Pair.sol\":3697:3858  if (y > 3) {... */\n      iszero\n      tag_247\n      jumpi\n        /* \"contracts/Pair.sol\":3727:3728  y */\n      dup2\n        /* \"contracts/Pair.sol\":3723:3728  z = y */\n      swap1\n      pop\n        /* \"contracts/Pair.sol\":3743:3752  uint256 x */\n      0x00\n        /* \"contracts/Pair.sol\":3763:3764  1 */\n      0x01\n        /* \"contracts/Pair.sol\":3759:3760  2 */\n      0x02\n        /* \"contracts/Pair.sol\":3755:3756  y */\n      dup5\n        /* \"contracts/Pair.sol\":3755:3760  y / 2 */\n      tag_248\n      swap2\n      swap1\n      tag_133\n      jump\t// in\n    tag_248:\n        /* \"contracts/Pair.sol\":3755:3764  y / 2 + 1 */\n      tag_249\n      swap2\n      swap1\n      tag_194\n      jump\t// in\n    tag_249:\n        /* \"contracts/Pair.sol\":3743:3764  uint256 x = y / 2 + 1 */\n      swap1\n      pop\n        /* \"contracts/Pair.sol\":3779:3824  while (x < z) { z = x; x = (y / x + x) / 2; } */\n    tag_250:\n        /* \"contracts/Pair.sol\":3790:3791  z */\n      dup2\n        /* \"contracts/Pair.sol\":3786:3787  x */\n      dup2\n        /* \"contracts/Pair.sol\":3786:3791  x < z */\n      lt\n        /* \"contracts/Pair.sol\":3779:3824  while (x < z) { z = x; x = (y / x + x) / 2; } */\n      iszero\n      tag_251\n      jumpi\n        /* \"contracts/Pair.sol\":3799:3800  x */\n      dup1\n        /* \"contracts/Pair.sol\":3795:3800  z = x */\n      swap2\n      pop\n        /* \"contracts/Pair.sol\":3820:3821  2 */\n      0x02\n        /* \"contracts/Pair.sol\":3815:3816  x */\n      dup2\n        /* \"contracts/Pair.sol\":3811:3812  x */\n      dup3\n        /* \"contracts/Pair.sol\":3807:3808  y */\n      dup6\n        /* \"contracts/Pair.sol\":3807:3812  y / x */\n      tag_252\n      swap2\n      swap1\n      tag_133\n      jump\t// in\n    tag_252:\n        /* \"contracts/Pair.sol\":3807:3816  y / x + x */\n      tag_253\n      swap2\n      swap1\n      tag_194\n      jump\t// in\n    tag_253:\n        /* \"contracts/Pair.sol\":3806:3821  (y / x + x) / 2 */\n      tag_254\n      swap2\n      swap1\n      tag_133\n      jump\t// in\n    tag_254:\n        /* \"contracts/Pair.sol\":3802:3821  x = (y / x + x) / 2 */\n      swap1\n      pop\n        /* \"contracts/Pair.sol\":3779:3824  while (x < z) { z = x; x = (y / x + x) / 2; } */\n      jump(tag_250)\n    tag_251:\n        /* \"contracts/Pair.sol\":3708:3835  {... */\n      pop\n        /* \"contracts/Pair.sol\":3697:3858  if (y > 3) {... */\n      jump(tag_255)\n    tag_247:\n        /* \"contracts/Pair.sol\":3850:3851  0 */\n      0x00\n        /* \"contracts/Pair.sol\":3845:3846  y */\n      dup3\n        /* \"contracts/Pair.sol\":3845:3851  y != 0 */\n      eq\n        /* \"contracts/Pair.sol\":3841:3858  if (y != 0) z = 1 */\n      tag_256\n      jumpi\n        /* \"contracts/Pair.sol\":3857:3858  1 */\n      0x01\n        /* \"contracts/Pair.sol\":3853:3858  z = 1 */\n      swap1\n      pop\n        /* \"contracts/Pair.sol\":3841:3858  if (y != 0) z = 1 */\n    tag_256:\n        /* \"contracts/Pair.sol\":3697:3858  if (y > 3) {... */\n    tag_255:\n        /* \"contracts/Pair.sol\":3626:3866  function _sqrt(uint256 y) internal pure returns (uint256 z) {... */\n      swap2\n      swap1\n      pop\n      jump\t// out\n        /* \"contracts/Pair.sol\":3509:3618  function _min(uint256 a, uint256 b) internal pure returns (uint256) { ... */\n    tag_164:\n        /* \"contracts/Pair.sol\":3568:3575  uint256 */\n      0x00\n        /* \"contracts/Pair.sol\":3600:3601  b */\n      dup2\n        /* \"contracts/Pair.sol\":3596:3597  a */\n      dup4\n        /* \"contracts/Pair.sol\":3596:3601  a < b */\n      lt\n        /* \"contracts/Pair.sol\":3596:3609  a < b ? a : b */\n      tag_258\n      jumpi\n        /* \"contracts/Pair.sol\":3608:3609  b */\n      dup2\n        /* \"contracts/Pair.sol\":3596:3609  a < b ? a : b */\n      jump(tag_259)\n    tag_258:\n        /* \"contracts/Pair.sol\":3604:3605  a */\n      dup3\n        /* \"contracts/Pair.sol\":3596:3609  a < b ? a : b */\n    tag_259:\n        /* \"contracts/Pair.sol\":3589:3609  return a < b ? a : b */\n      swap1\n      pop\n        /* \"contracts/Pair.sol\":3509:3618  function _min(uint256 a, uint256 b) internal pure returns (uint256) { ... */\n      swap3\n      swap2\n      pop\n      pop\n      jump\t// out\n        /* \"@openzeppelin/contracts/token/ERC20/ERC20.sol\":7362:7570  function _mint(address account, uint256 value) internal {... */\n    tag_168:\n        /* \"@openzeppelin/contracts/token/ERC20/ERC20.sol\":7451:7452  0 */\n      0x00\n        /* \"@openzeppelin/contracts/token/ERC20/ERC20.sol\":7432:7453  account == address(0) */\n      0xffffffffffffffffffffffffffffffffffffffff\n      and\n        /* \"@openzeppelin/contracts/token/ERC20/ERC20.sol\":7432:7439  account */\n      dup3\n        /* \"@openzeppelin/contracts/token/ERC20/ERC20.sol\":7432:7453  account == address(0) */\n      0xffffffffffffffffffffffffffffffffffffffff\n      and\n      sub\n        /* \"@openzeppelin/contracts/token/ERC20/ERC20.sol\":7428:7519  if (account == address(0)) {... */\n      tag_261\n      jumpi\n        /* \"@openzeppelin/contracts/token/ERC20/ERC20.sol\":7505:7506  0 */\n      0x00\n        /* \"@openzeppelin/contracts/token/ERC20/ERC20.sol\":7476:7508  ERC20InvalidReceiver(address(0)) */\n      mload(0x40)\n      0xec442f0500000000000000000000000000000000000000000000000000000000\n      dup2\n      mstore\n      0x04\n      add\n      tag_262\n      swap2\n      swap1\n      tag_40\n      jump\t// in\n    tag_262:\n      mload(0x40)\n      dup1\n      swap2\n      sub\n      swap1\n      revert\n        /* \"@openzeppelin/contracts/token/ERC20/ERC20.sol\":7428:7519  if (account == address(0)) {... */\n    tag_261:\n        /* \"@openzeppelin/contracts/token/ERC20/ERC20.sol\":7528:7563  _update(address(0), account, value) */\n      tag_263\n        /* \"@openzeppelin/contracts/token/ERC20/ERC20.sol\":7544:7545  0 */\n      0x00\n        /* \"@openzeppelin/contracts/token/ERC20/ERC20.sol\":7548:7555  account */\n      dup4\n        /* \"@openzeppelin/contracts/token/ERC20/ERC20.sol\":7557:7562  value */\n      dup4\n        /* \"@openzeppelin/contracts/token/ERC20/ERC20.sol\":7528:7535  _update */\n      tag_222\n        /* \"@openzeppelin/contracts/token/ERC20/ERC20.sol\":7528:7563  _update(address(0), account, value) */\n      jump\t// in\n    tag_263:\n        /* \"@openzeppelin/contracts/token/ERC20/ERC20.sol\":7362:7570  function _mint(address account, uint256 value) internal {... */\n      pop\n      pop\n      jump\t// out\n        /* \"@openzeppelin/contracts/token/ERC20/ERC20.sol\":9605:10037  function _approve(address owner, address spender, uint256 value, bool emitEvent) internal virtual {... */\n    tag_208:\n        /* \"@openzeppelin/contracts/token/ERC20/ERC20.sol\":9734:9735  0 */\n      0x00\n        /* \"@openzeppelin/contracts/token/ERC20/ERC20.sol\":9717:9736  owner == address(0) */\n      0xffffffffffffffffffffffffffffffffffffffff\n      and\n        /* \"@openzeppelin/contracts/token/ERC20/ERC20.sol\":9717:9722  owner */\n      dup5\n        /* \"@openzeppelin/contracts/token/ERC20/ERC20.sol\":9717:9736  owner == address(0) */\n      0xffffffffffffffffffffffffffffffffffffffff\n      and\n      sub\n        /* \"@openzeppelin/contracts/token/ERC20/ERC20.sol\":9713:9802  if (owner == address(0)) {... */\n      tag_265\n      jumpi\n        /* \"@openzeppelin/contracts/token/ERC20/ERC20.sol\":9788:9789  0 */\n      0x00\n        /* \"@openzeppelin/contracts/token/ERC20/ERC20.sol\":9759:9791  ERC20InvalidApprover(address(0)) */\n      mload(0x40)\n      0xe602df0500000000000000000000000000000000000000000000000000000000\n      dup2\n      mstore\n      0x04\n      add\n      tag_266\n      swap2\n      swap1\n      tag_40\n      jump\t// in\n    tag_266:\n      mload(0x40)\n      dup1\n      swap2\n      sub\n      swap1\n      revert\n        /* \"@openzeppelin/contracts/token/ERC20/ERC20.sol\":9713:9802  if (owner == address(0)) {... */\n    tag_265:\n        /* \"@openzeppelin/contracts/token/ERC20/ERC20.sol\":9834:9835  0 */\n      0x00\n        /* \"@openzeppelin/contracts/token/ERC20/ERC20.sol\":9815:9836  spender == address(0) */\n      0xffffffffffffffffffffffffffffffffffffffff\n      and\n        /* \"@openzeppelin/contracts/token/ERC20/ERC20.sol\":9815:9822  spender */\n      dup4\n        /* \"@openzeppelin/contracts/token/ERC20/ERC20.sol\":9815:9836  spender == address(0) */\n      0xffffffffffffffffffffffffffffffffffffffff\n      and\n      sub\n        /* \"@openzeppelin/contracts/token/ERC20/ERC20.sol\":9811:9901  if (spender == address(0)) {... */\n      tag_267\n      jumpi\n        /* \"@openzeppelin/contracts/token/ERC20/ERC20.sol\":9887:9888  0 */\n      0x00\n        /* \"@openzeppelin/contracts/token/ERC20/ERC20.sol\":9859:9890  ERC20InvalidSpender(address(0)) */\n      mload(0x40)\n      0x94280d6200000000000000000000000000000000000000000000000000000000\n      dup2\n      mstore\n      0x04\n      add\n      tag_268\n      swap2\n      swap1\n      tag_40\n      jump\t// in\n    tag_268:\n      mload(0x40)\n      dup1\n      swap2\n      sub\n      swap1\n      revert\n        /* \"@openzeppelin/contracts/token/ERC20/ERC20.sol\":9811:9901  if (spender == address(0)) {... */\n    tag_267:\n        /* \"@openzeppelin/contracts/token/ERC20/ERC20.sol\":9940:9945  value */\n      dup2\n        /* \"@openzeppelin/contracts/token/ERC20/ERC20.sol\":9910:9921  _allowances */\n      0x01\n        /* \"@openzeppelin/contracts/token/ERC20/ERC20.sol\":9910:9928  _allowances[owner] */\n      0x00\n        /* \"@openzeppelin/contracts/token/ERC20/ERC20.sol\":9922:9927  owner */\n      dup7\n        /* \"@openzeppelin/contracts/token/ERC20/ERC20.sol\":9910:9928  _allowances[owner] */\n      0xffffffffffffffffffffffffffffffffffffffff\n      and\n      0xffffffffffffffffffffffffffffffffffffffff\n      and\n      dup2\n      mstore\n      0x20\n      add\n      swap1\n      dup2\n      mstore\n      0x20\n      add\n      0x00\n      keccak256\n        /* \"@openzeppelin/contracts/token/ERC20/ERC20.sol\":9910:9937  _allowances[owner][spender] */\n      0x00\n        /* \"@openzeppelin/contracts/token/ERC20/ERC20.sol\":9929:9936  spender */\n      dup6\n        /* \"@openzeppelin/contracts/token/ERC20/ERC20.sol\":9910:9937  _allowances[owner][spender] */\n      0xffffffffffffffffffffffffffffffffffffffff\n      and\n      0xffffffffffffffffffffffffffffffffffffffff\n      and\n      dup2\n      mstore\n      0x20\n      add\n      swap1\n      dup2\n      mstore\n      0x20\n      add\n      0x00\n      keccak256\n        /* \"@openzeppelin/contracts/token/ERC20/ERC20.sol\":9910:9945  _allowances[owner][spender] = value */\n      dup2\n      swap1\n      sstore\n      pop\n        /* \"@openzeppelin/contracts/token/ERC20/ERC20.sol\":9959:9968  emitEvent */\n      dup1\n        /* \"@openzeppelin/contracts/token/ERC20/ERC20.sol\":9955:10031  if (emitEvent) {... */\n      iszero\n      tag_269\n      jumpi\n        /* \"@openzeppelin/contracts/token/ERC20/ERC20.sol\":10005:10012  spender */\n      dup3\n        /* \"@openzeppelin/contracts/token/ERC20/ERC20.sol\":9989:10020  Approval(owner, spender, value) */\n      0xffffffffffffffffffffffffffffffffffffffff\n      and\n        /* \"@openzeppelin/contracts/token/ERC20/ERC20.sol\":9998:10003  owner */\n      dup5\n        /* \"@openzeppelin/contracts/token/ERC20/ERC20.sol\":9989:10020  Approval(owner, spender, value) */\n      0xffffffffffffffffffffffffffffffffffffffff\n      and\n      0x8c5be1e5ebec7d5bd14f71427d1e84f3dd0314c0f7b2291e5b200ac8c7c3b925\n        /* \"@openzeppelin/contracts/token/ERC20/ERC20.sol\":10014:10019  value */\n      dup5\n        /* \"@openzeppelin/contracts/token/ERC20/ERC20.sol\":9989:10020  Approval(owner, spender, value) */\n      mload(0x40)\n      tag_270\n      swap2\n      swap1\n      tag_44\n      jump\t// in\n    tag_270:\n      mload(0x40)\n      dup1\n      swap2\n      sub\n      swap1\n      log3\n        /* \"@openzeppelin/contracts/token/ERC20/ERC20.sol\":9955:10031  if (emitEvent) {... */\n    tag_269:\n        /* \"@openzeppelin/contracts/token/ERC20/ERC20.sol\":9605:10037  function _approve(address owner, address spender, uint256 value, bool emitEvent) internal virtual {... */\n      pop\n      pop\n      pop\n      pop\n      jump\t// out\n        /* \"@openzeppelin/contracts/token/ERC20/ERC20.sol\":5912:7019  function _update(address from, address to, uint256 value) internal virtual {... */\n    tag_222:\n        /* \"@openzeppelin/contracts/token/ERC20/ERC20.sol\":6017:6018  0 */\n      0x00\n        /* \"@openzeppelin/contracts/token/ERC20/ERC20.sol\":6001:6019  from == address(0) */\n      0xffffffffffffffffffffffffffffffffffffffff\n      and\n        /* \"@openzeppelin/contracts/token/ERC20/ERC20.sol\":6001:6005  from */\n      dup4\n        /* \"@openzeppelin/contracts/token/ERC20/ERC20.sol\":6001:6019  from == address(0) */\n      0xffffffffffffffffffffffffffffffffffffffff\n      and\n      sub\n        /* \"@openzeppelin/contracts/token/ERC20/ERC20.sol\":5997:6537  if (from == address(0)) {... */\n      tag_272\n      jumpi\n        /* \"@openzeppelin/contracts/token/ERC20/ERC20.sol\":6153:6158  value */\n      dup1\n        /* \"@openzeppelin/contracts/token/ERC20/ERC20.sol\":6137:6149  _totalSupply */\n      0x02\n      0x00\n        /* \"@openzeppelin/contracts/token/ERC20/ERC20.sol\":6137:6158  _totalSupply += value */\n      dup3\n      dup3\n      sload\n      tag_273\n      swap2\n      swap1\n      tag_194\n      jump\t// in\n    tag_273:\n      swap3\n      pop\n      pop\n      dup2\n      swap1\n      sstore\n      pop\n        /* \"@openzeppelin/contracts/token/ERC20/ERC20.sol\":5997:6537  if (from == address(0)) {... */\n      jump(tag_274)\n    tag_272:\n        /* \"@openzeppelin/contracts/token/ERC20/ERC20.sol\":6189:6208  uint256 fromBalance */\n      0x00\n        /* \"@openzeppelin/contracts/token/ERC20/ERC20.sol\":6211:6220  _balances */\n      0x00\n        /* \"@openzeppelin/contracts/token/ERC20/ERC20.sol\":6211:6226  _balances[from] */\n      0x00\n        /* \"@openzeppelin/contracts/token/ERC20/ERC20.sol\":6221:6225  from */\n      dup6\n        /* \"@openzeppelin/contracts/token/ERC20/ERC20.sol\":6211:6226  _balances[from] */\n      0xffffffffffffffffffffffffffffffffffffffff\n      and\n      0xffffffffffffffffffffffffffffffffffffffff\n      and\n      dup2\n      mstore\n      0x20\n      add\n      swap1\n      dup2\n      mstore\n      0x20\n      add\n      0x00\n      keccak256\n      sload\n        /* \"@openzeppelin/contracts/token/ERC20/ERC20.sol\":6189:6226  uint256 fromBalance = _balances[from] */\n      swap1\n      pop\n        /* \"@openzeppelin/contracts/token/ERC20/ERC20.sol\":6258:6263  value */\n      dup2\n        /* \"@openzeppelin/contracts/token/ERC20/ERC20.sol\":6244:6255  fromBalance */\n      dup2\n        /* \"@openzeppelin/contracts/token/ERC20/ERC20.sol\":6244:6263  fromBalance < value */\n      lt\n        /* \"@openzeppelin/contracts/token/ERC20/ERC20.sol\":6240:6355  if (fromBalance < value) {... */\n      iszero\n      tag_275\n      jumpi\n        /* \"@openzeppelin/contracts/token/ERC20/ERC20.sol\":6315:6319  from */\n      dup4\n        /* \"@openzeppelin/contracts/token/ERC20/ERC20.sol\":6321:6332  fromBalance */\n      dup2\n        /* \"@openzeppelin/contracts/token/ERC20/ERC20.sol\":6334:6339  value */\n      dup4\n        /* \"@openzeppelin/contracts/token/ERC20/ERC20.sol\":6290:6340  ERC20InsufficientBalance(from, fromBalance, value) */\n      mload(0x40)\n      0xe450d38c00000000000000000000000000000000000000000000000000000000\n      dup2\n      mstore\n      0x04\n      add\n      tag_276\n      swap4\n      swap3\n      swap2\n      swap1\n      tag_214\n      jump\t// in\n    tag_276:\n      mload(0x40)\n      dup1\n      swap2\n      sub\n      swap1\n      revert\n        /* \"@openzeppelin/contracts/token/ERC20/ERC20.sol\":6240:6355  if (fromBalance < value) {... */\n    tag_275:\n        /* \"@openzeppelin/contracts/token/ERC20/ERC20.sol\":6507:6512  value */\n      dup2\n        /* \"@openzeppelin/contracts/token/ERC20/ERC20.sol\":6493:6504  fromBalance */\n      dup2\n        /* \"@openzeppelin/contracts/token/ERC20/ERC20.sol\":6493:6512  fromBalance - value */\n      sub\n        /* \"@openzeppelin/contracts/token/ERC20/ERC20.sol\":6475:6484  _balances */\n      0x00\n        /* \"@openzeppelin/contracts/token/ERC20/ERC20.sol\":6475:6490  _balances[from] */\n      0x00\n        /* \"@openzeppelin/contracts/token/ERC20/ERC20.sol\":6485:6489  from */\n      dup7\n        /* \"@openzeppelin/contracts/token/ERC20/ERC20.sol\":6475:6490  _balances[from] */\n      0xffffffffffffffffffffffffffffffffffffffff\n      and\n      0xffffffffffffffffffffffffffffffffffffffff\n      and\n      dup2\n      mstore\n      0x20\n      add\n      swap1\n      dup2\n      mstore\n      0x20\n      add\n      0x00\n      keccak256\n        /* \"@openzeppelin/contracts/token/ERC20/ERC20.sol\":6475:6512  _balances[from] = fromBalance - value */\n      dup2\n      swap1\n      sstore\n      pop\n        /* \"@openzeppelin/contracts/token/ERC20/ERC20.sol\":6175:6537  {... */\n      pop\n        /* \"@openzeppelin/contracts/token/ERC20/ERC20.sol\":5997:6537  if (from == address(0)) {... */\n    tag_274:\n        /* \"@openzeppelin/contracts/token/ERC20/ERC20.sol\":6565:6566  0 */\n      0x00\n        /* \"@openzeppelin/contracts/token/ERC20/ERC20.sol\":6551:6567  to == address(0) */\n      0xffffffffffffffffffffffffffffffffffffffff\n      and\n        /* \"@openzeppelin/contracts/token/ERC20/ERC20.sol\":6551:6553  to */\n      dup3\n        /* \"@openzeppelin/contracts/token/ERC20/ERC20.sol\":6551:6567  to == address(0) */\n      0xffffffffffffffffffffffffffffffffffffffff\n      and\n      sub\n        /* \"@openzeppelin/contracts/token/ERC20/ERC20.sol\":6547:6972  if (to == address(0)) {... */\n      tag_277\n      jumpi\n        /* \"@openzeppelin/contracts/token/ERC20/ERC20.sol\":6730:6735  value */\n      dup1\n        /* \"@openzeppelin/contracts/token/ERC20/ERC20.sol\":6714:6726  _totalSupply */\n      0x02\n      0x00\n        /* \"@openzeppelin/contracts/token/ERC20/ERC20.sol\":6714:6735  _totalSupply -= value */\n      dup3\n      dup3\n      sload\n      sub\n      swap3\n      pop\n      pop\n      dup2\n      swap1\n      sstore\n      pop\n        /* \"@openzeppelin/contracts/token/ERC20/ERC20.sol\":6547:6972  if (to == address(0)) {... */\n      jump(tag_278)\n    tag_277:\n        /* \"@openzeppelin/contracts/token/ERC20/ERC20.sol\":6942:6947  value */\n      dup1\n        /* \"@openzeppelin/contracts/token/ERC20/ERC20.sol\":6925:6934  _balances */\n      0x00\n        /* \"@openzeppelin/contracts/token/ERC20/ERC20.sol\":6925:6938  _balances[to] */\n      0x00\n        /* \"@openzeppelin/contracts/token/ERC20/ERC20.sol\":6935:6937  to */\n      dup5\n        /* \"@openzeppelin/contracts/token/ERC20/ERC20.sol\":6925:6938  _balances[to] */\n      0xffffffffffffffffffffffffffffffffffffffff\n      and\n      0xffffffffffffffffffffffffffffffffffffffff\n      and\n      dup2\n      mstore\n      0x20\n      add\n      swap1\n      dup2\n      mstore\n      0x20\n      add\n      0x00\n      keccak256\n      0x00\n        /* \"@openzeppelin/contracts/token/ERC20/ERC20.sol\":6925:6947  _balances[to] += value */\n      dup3\n      dup3\n      sload\n      add\n      swap3\n      pop\n      pop\n      dup2\n      swap1\n      sstore\n      pop\n        /* \"@openzeppelin/contracts/token/ERC20/ERC20.sol\":6547:6972  if (to == address(0)) {... */\n    tag_278:\n        /* \"@openzeppelin/contracts/token/ERC20/ERC20.sol\":7002:7004  to */\n      dup2\n        /* \"@openzeppelin/contracts/token/ERC20/ERC20.sol\":6987:7012  Transfer(from, to, value) */\n      0xffffffffffffffffffffffffffffffffffffffff\n      and\n        /* \"@openzeppelin/contracts/token/ERC20/ERC20.sol\":6996:7000  from */\n      dup4\n        /* \"@openzeppelin/contracts/token/ERC20/ERC20.sol\":6987:7012  Transfer(from, to, value) */\n      0xffffffffffffffffffffffffffffffffffffffff\n      and\n      0xddf252ad1be2c89b69c2b068fc378daa952ba7f163c4a11628f55a4df523b3ef\n        /* \"@openzeppelin/contracts/token/ERC20/ERC20.sol\":7006:7011  value */\n      dup4\n        /* \"@openzeppelin/contracts/token/ERC20/ERC20.sol\":6987:7012  Transfer(from, to, value) */\n      mload(0x40)\n      tag_279\n      swap2\n      swap1\n      tag_44\n      jump\t// in\n    tag_279:\n      mload(0x40)\n      dup1\n      swap2\n      sub\n      swap1\n      log3\n        /* \"@openzeppelin/contracts/token/ERC20/ERC20.sol\":5912:7019  function _update(address from, address to, uint256 value) internal virtual {... */\n      pop\n      pop\n      pop\n      jump\t// out\n        /* \"@openzeppelin/contracts/token/ERC20/utils/SafeERC20.sol\":8370:9090  function _callOptionalReturn(IERC20 token, bytes memory data) private {... */\n    tag_231:\n        /* \"@openzeppelin/contracts/token/ERC20/utils/SafeERC20.sol\":8450:8468  uint256 returnSize */\n      0x00\n        /* \"@openzeppelin/contracts/token/ERC20/utils/SafeERC20.sol\":8478:8497  uint256 returnValue */\n      0x00\n        /* \"@openzeppelin/contracts/token/ERC20/utils/SafeERC20.sol\":8616:8620  0x20 */\n      0x20\n        /* \"@openzeppelin/contracts/token/ERC20/utils/SafeERC20.sol\":8613:8614  0 */\n      0x00\n        /* \"@openzeppelin/contracts/token/ERC20/utils/SafeERC20.sol\":8606:8610  data */\n      dup5\n        /* \"@openzeppelin/contracts/token/ERC20/utils/SafeERC20.sol\":8600:8611  mload(data) */\n      mload\n        /* \"@openzeppelin/contracts/token/ERC20/utils/SafeERC20.sol\":8593:8597  0x20 */\n      0x20\n        /* \"@openzeppelin/contracts/token/ERC20/utils/SafeERC20.sol\":8587:8591  data */\n      dup7\n        /* \"@openzeppelin/contracts/token/ERC20/utils/SafeERC20.sol\":8583:8598  add(data, 0x20) */\n      add\n        /* \"@openzeppelin/contracts/token/ERC20/utils/SafeERC20.sol\":8580:8581  0 */\n      0x00\n        /* \"@openzeppelin/contracts/token/ERC20/utils/SafeERC20.sol\":8573:8578  token */\n      dup9\n        /* \"@openzeppelin/contracts/token/ERC20/utils/SafeERC20.sol\":8566:8571  gas() */\n      gas\n        /* \"@openzeppelin/contracts/token/ERC20/utils/SafeERC20.sol\":8561:8621  call(gas(), token, 0, add(data, 0x20), mload(data), 0, 0x20) */\n      call\n        /* \"@openzeppelin/contracts/token/ERC20/utils/SafeERC20.sol\":8673:8680  success */\n      dup1\n        /* \"@openzeppelin/contracts/token/ERC20/utils/SafeERC20.sol\":8663:8839  if iszero(success) {... */\n      tag_281\n      jumpi\n        /* \"@openzeppelin/contracts/token/ERC20/utils/SafeERC20.sol\":8717:8721  0x40 */\n      0x40\n        /* \"@openzeppelin/contracts/token/ERC20/utils/SafeERC20.sol\":8711:8722  mload(0x40) */\n      mload\n        /* \"@openzeppelin/contracts/token/ERC20/utils/SafeERC20.sol\":8762:8778  returndatasize() */\n      returndatasize\n        /* \"@openzeppelin/contracts/token/ERC20/utils/SafeERC20.sol\":8759:8760  0 */\n      0x00\n        /* \"@openzeppelin/contracts/token/ERC20/utils/SafeERC20.sol\":8754:8757  ptr */\n      dup3\n        /* \"@openzeppelin/contracts/token/ERC20/utils/SafeERC20.sol\":8739:8779  returndatacopy(ptr, 0, returndatasize()) */\n      returndatacopy\n        /* \"@openzeppelin/contracts/token/ERC20/utils/SafeERC20.sol\":8808:8824  returndatasize() */\n      returndatasize\n        /* \"@openzeppelin/contracts/token/ERC20/utils/SafeERC20.sol\":8803:8806  ptr */\n      dup2\n        /* \"@openzeppelin/contracts/token/ERC20/utils/SafeERC20.sol\":8796:8825  revert(ptr, returndatasize()) */\n      revert\n        /* \"@openzeppelin/contracts/token/ERC20/utils/SafeERC20.sol\":8663:8839  if iszero(success) {... */\n    tag_281:\n        /* \"@openzeppelin/contracts/token/ERC20/utils/SafeERC20.sol\":8866:8882  returndatasize() */\n      returndatasize\n        /* \"@openzeppelin/contracts/token/ERC20/utils/SafeERC20.sol\":8852:8882  returnSize := returndatasize() */\n      swap3\n      pop\n        /* \"@openzeppelin/contracts/token/ERC20/utils/SafeERC20.sol\":8916:8917  0 */\n      0x00\n        /* \"@openzeppelin/contracts/token/ERC20/utils/SafeERC20.sol\":8910:8918  mload(0) */\n      mload\n        /* \"@openzeppelin/contracts/token/ERC20/utils/SafeERC20.sol\":8895:8918  returnValue := mload(0) */\n      swap2\n      pop\n        /* \"@openzeppelin/contracts/token/ERC20/utils/SafeERC20.sol\":8532:8928  {... */\n      pop\n        /* \"@openzeppelin/contracts/token/ERC20/utils/SafeERC20.sol\":8956:8957  0 */\n      0x00\n        /* \"@openzeppelin/contracts/token/ERC20/utils/SafeERC20.sol\":8942:8952  returnSize */\n      dup3\n        /* \"@openzeppelin/contracts/token/ERC20/utils/SafeERC20.sol\":8942:8957  returnSize == 0 */\n      eq\n        /* \"@openzeppelin/contracts/token/ERC20/utils/SafeERC20.sol\":8942:9010  returnSize == 0 ? address(token).code.length == 0 : returnValue != 1 */\n      tag_282\n      jumpi\n        /* \"@openzeppelin/contracts/token/ERC20/utils/SafeERC20.sol\":9009:9010  1 */\n      0x01\n        /* \"@openzeppelin/contracts/token/ERC20/utils/SafeERC20.sol\":8994:9005  returnValue */\n      dup2\n        /* \"@openzeppelin/contracts/token/ERC20/utils/SafeERC20.sol\":8994:9010  returnValue != 1 */\n      eq\n      iszero\n        /* \"@openzeppelin/contracts/token/ERC20/utils/SafeERC20.sol\":8942:9010  returnSize == 0 ? address(token).code.length == 0 : returnValue != 1 */\n      jump(tag_283)\n    tag_282:\n        /* \"@openzeppelin/contracts/token/ERC20/utils/SafeERC20.sol\":8990:8991  0 */\n      0x00\n        /* \"@openzeppelin/contracts/token/ERC20/utils/SafeERC20.sol\":8968:8973  token */\n      dup5\n        /* \"@openzeppelin/contracts/token/ERC20/utils/SafeERC20.sol\":8960:8986  address(token).code.length */\n      0xffffffffffffffffffffffffffffffffffffffff\n      and\n      extcodesize\n        /* \"@openzeppelin/contracts/token/ERC20/utils/SafeERC20.sol\":8960:8991  address(token).code.length == 0 */\n      eq\n        /* \"@openzeppelin/contracts/token/ERC20/utils/SafeERC20.sol\":8942:9010  returnSize == 0 ? address(token).code.length == 0 : returnValue != 1 */\n    tag_283:\n        /* \"@openzeppelin/contracts/token/ERC20/utils/SafeERC20.sol\":8938:9084  if (returnSize == 0 ? address(token).code.length == 0 : returnValue != 1) {... */\n      iszero\n      tag_284\n      jumpi\n        /* \"@openzeppelin/contracts/token/ERC20/utils/SafeERC20.sol\":9066:9071  token */\n      dup4\n        /* \"@openzeppelin/contracts/token/ERC20/utils/SafeERC20.sol\":9033:9073  SafeERC20FailedOperation(address(token)) */\n      mload(0x40)\n      0x5274afe700000000000000000000000000000000000000000000000000000000\n      dup2\n      mstore\n      0x04\n      add\n      tag_285\n      swap2\n      swap1\n      tag_40\n      jump\t// in\n    tag_285:\n      mload(0x40)\n      dup1\n      swap2\n      sub\n      swap1\n      revert\n        /* \"@openzeppelin/contracts/token/ERC20/utils/SafeERC20.sol\":8938:9084  if (returnSize == 0 ? address(token).code.length == 0 : returnValue != 1) {... */\n    tag_284:\n        /* \"@openzeppelin/contracts/token/ERC20/utils/SafeERC20.sol\":8440:9090  {... */\n      pop\n      pop\n        /* \"@openzeppelin/contracts/token/ERC20/utils/SafeERC20.sol\":8370:9090  function _callOptionalReturn(IERC20 token, bytes memory data) private {... */\n      pop\n      pop\n      jump\t// out\n        /* \"#utility.yul\":7:106   */\n    tag_286:\n        /* \"#utility.yul\":59:65   */\n      0x00\n        /* \"#utility.yul\":93:98   */\n      dup2\n        /* \"#utility.yul\":87:99   */\n      mload\n        /* \"#utility.yul\":77:99   */\n      swap1\n      pop\n        /* \"#utility.yul\":7:106   */\n      swap2\n      swap1\n      pop\n      jump\t// out\n        /* \"#utility.yul\":112:281   */\n    tag_287:\n        /* \"#utility.yul\":196:207   */\n      0x00\n        /* \"#utility.yul\":230:236   */\n      dup3\n        /* \"#utility.yul\":225:228   */\n      dup3\n        /* \"#utility.yul\":218:237   */\n      mstore\n        /* \"#utility.yul\":270:274   */\n      0x20\n        /* \"#utility.yul\":265:268   */\n      dup3\n        /* \"#utility.yul\":261:275   */\n      add\n        /* \"#utility.yul\":246:275   */\n      swap1\n      pop\n        /* \"#utility.yul\":112:281   */\n      swap3\n      swap2\n      pop\n      pop\n      jump\t// out\n        /* \"#utility.yul\":287:426   */\n    tag_288:\n        /* \"#utility.yul\":376:382   */\n      dup3\n        /* \"#utility.yul\":371:374   */\n      dup2\n        /* \"#utility.yul\":366:369   */\n      dup4\n        /* \"#utility.yul\":360:383   */\n      mcopy\n        /* \"#utility.yul\":417:418   */\n      0x00\n        /* \"#utility.yul\":408:414   */\n      dup4\n        /* \"#utility.yul\":403:406   */\n      dup4\n        /* \"#utility.yul\":399:415   */\n      add\n        /* \"#utility.yul\":392:419   */\n      mstore\n        /* \"#utility.yul\":287:426   */\n      pop\n      pop\n      pop\n      jump\t// out\n        /* \"#utility.yul\":432:534   */\n    tag_289:\n        /* \"#utility.yul\":473:479   */\n      0x00\n        /* \"#utility.yul\":524:526   */\n      0x1f\n        /* \"#utility.yul\":520:527   */\n      not\n        /* \"#utility.yul\":515:517   */\n      0x1f\n        /* \"#utility.yul\":508:513   */\n      dup4\n        /* \"#utility.yul\":504:518   */\n      add\n        /* \"#utility.yul\":500:528   */\n      and\n        /* \"#utility.yul\":490:528   */\n      swap1\n      pop\n        /* \"#utility.yul\":432:534   */\n      swap2\n      swap1\n      pop\n      jump\t// out\n        /* \"#utility.yul\":540:917   */\n    tag_290:\n        /* \"#utility.yul\":628:631   */\n      0x00\n        /* \"#utility.yul\":656:695   */\n      tag_331\n        /* \"#utility.yul\":689:694   */\n      dup3\n        /* \"#utility.yul\":656:695   */\n      tag_286\n      jump\t// in\n    tag_331:\n        /* \"#utility.yul\":711:782   */\n      tag_332\n        /* \"#utility.yul\":775:781   */\n      dup2\n        /* \"#utility.yul\":770:773   */\n      dup6\n        /* \"#utility.yul\":711:782   */\n      tag_287\n      jump\t// in\n    tag_332:\n        /* \"#utility.yul\":704:782   */\n      swap4\n      pop\n        /* \"#utility.yul\":791:856   */\n      tag_333\n        /* \"#utility.yul\":849:855   */\n      dup2\n        /* \"#utility.yul\":844:847   */\n      dup6\n        /* \"#utility.yul\":837:841   */\n      0x20\n        /* \"#utility.yul\":830:835   */\n      dup7\n        /* \"#utility.yul\":826:842   */\n      add\n        /* \"#utility.yul\":791:856   */\n      tag_288\n      jump\t// in\n    tag_333:\n        /* \"#utility.yul\":881:910   */\n      tag_334\n        /* \"#utility.yul\":903:909   */\n      dup2\n        /* \"#utility.yul\":881:910   */\n      tag_289\n      jump\t// in\n    tag_334:\n        /* \"#utility.yul\":876:879   */\n      dup5\n        /* \"#utility.yul\":872:911   */\n      add\n        /* \"#utility.yul\":865:911   */\n      swap2\n      pop\n        /* \"#utility.yul\":632:917   */\n      pop\n        /* \"#utility.yul\":540:917   */\n      swap3\n      swap2\n      pop\n      pop\n      jump\t// out\n        /* \"#utility.yul\":923:1236   */\n    tag_26:\n        /* \"#utility.yul\":1036:1040   */\n      0x00\n        /* \"#utility.yul\":1074:1076   */\n      0x20\n        /* \"#utility.yul\":1063:1072   */\n      dup3\n        /* \"#utility.yul\":1059:1077   */\n      add\n        /* \"#utility.yul\":1051:1077   */\n      swap1\n      pop\n        /* \"#utility.yul\":1123:1132   */\n      dup2\n        /* \"#utility.yul\":1117:1121   */\n      dup2\n        /* \"#utility.yul\":1113:1133   */\n      sub\n        /* \"#utility.yul\":1109:1110   */\n      0x00\n        /* \"#utility.yul\":1098:1107   */\n      dup4\n        /* \"#utility.yul\":1094:1111   */\n      add\n        /* \"#utility.yul\":1087:1134   */\n      mstore\n        /* \"#utility.yul\":1151:1229   */\n      tag_336\n        /* \"#utility.yul\":1224:1228   */\n      dup2\n        /* \"#utility.yul\":1215:1221   */\n      dup5\n        /* \"#utility.yul\":1151:1229   */\n      tag_290\n      jump\t// in\n    tag_336:\n        /* \"#utility.yul\":1143:1229   */\n      swap1\n      pop\n        /* \"#utility.yul\":923:1236   */\n      swap3\n      swap2\n      pop\n      pop\n      jump\t// out\n        /* \"#utility.yul\":1242:1356   */\n    tag_291:\n        /* \"#utility.yul\":1279:1286   */\n      0x00\n        /* \"#utility.yul\":1319:1349   */\n      0xffffffffffffffffffffffffffff\n        /* \"#utility.yul\":1312:1317   */\n      dup3\n        /* \"#utility.yul\":1308:1350   */\n      and\n        /* \"#utility.yul\":1297:1350   */\n      swap1\n      pop\n        /* \"#utility.yul\":1242:1356   */\n      swap2\n      swap1\n      pop\n      jump\t// out\n        /* \"#utility.yul\":1362:1480   */\n    tag_292:\n        /* \"#utility.yul\":1449:1473   */\n      tag_339\n        /* \"#utility.yul\":1467:1472   */\n      dup2\n        /* \"#utility.yul\":1449:1473   */\n      tag_291\n      jump\t// in\n    tag_339:\n        /* \"#utility.yul\":1444:1447   */\n      dup3\n        /* \"#utility.yul\":1437:1474   */\n      mstore\n        /* \"#utility.yul\":1362:1480   */\n      pop\n      pop\n      jump\t// out\n        /* \"#utility.yul\":1486:1818   */\n    tag_30:\n        /* \"#utility.yul\":1607:1611   */\n      0x00\n        /* \"#utility.yul\":1645:1647   */\n      0x40\n        /* \"#utility.yul\":1634:1643   */\n      dup3\n        /* \"#utility.yul\":1630:1648   */\n      add\n        /* \"#utility.yul\":1622:1648   */\n      swap1\n      pop\n        /* \"#utility.yul\":1658:1729   */\n      tag_341\n        /* \"#utility.yul\":1726:1727   */\n      0x00\n        /* \"#utility.yul\":1715:1724   */\n      dup4\n        /* \"#utility.yul\":1711:1728   */\n      add\n        /* \"#utility.yul\":1702:1708   */\n      dup6\n        /* \"#utility.yul\":1658:1729   */\n      tag_292\n      jump\t// in\n    tag_341:\n        /* \"#utility.yul\":1739:1811   */\n      tag_342\n        /* \"#utility.yul\":1807:1809   */\n      0x20\n        /* \"#utility.yul\":1796:1805   */\n      dup4\n        /* \"#utility.yul\":1792:1810   */\n      add\n        /* \"#utility.yul\":1783:1789   */\n      dup5\n        /* \"#utility.yul\":1739:1811   */\n      tag_292\n      jump\t// in\n    tag_342:\n        /* \"#utility.yul\":1486:1818   */\n      swap4\n      swap3\n      pop\n      pop\n      pop\n      jump\t// out\n        /* \"#utility.yul\":1905:2022   */\n    tag_294:\n        /* \"#utility.yul\":2014:2015   */\n      0x00\n        /* \"#utility.yul\":2011:2012   */\n      0x00\n        /* \"#utility.yul\":2004:2016   */\n      revert\n        /* \"#utility.yul\":2151:2277   */\n    tag_296:\n        /* \"#utility.yul\":2188:2195   */\n      0x00\n        /* \"#utility.yul\":2228:2270   */\n      0xffffffffffffffffffffffffffffffffffffffff\n        /* \"#utility.yul\":2221:2226   */\n      dup3\n        /* \"#utility.yul\":2217:2271   */\n      and\n        /* \"#utility.yul\":2206:2271   */\n      swap1\n      pop\n        /* \"#utility.yul\":2151:2277   */\n      swap2\n      swap1\n      pop\n      jump\t// out\n        /* \"#utility.yul\":2283:2379   */\n    tag_297:\n        /* \"#utility.yul\":2320:2327   */\n      0x00\n        /* \"#utility.yul\":2349:2373   */\n      tag_348\n        /* \"#utility.yul\":2367:2372   */\n      dup3\n        /* \"#utility.yul\":2349:2373   */\n      tag_296\n      jump\t// in\n    tag_348:\n        /* \"#utility.yul\":2338:2373   */\n      swap1\n      pop\n        /* \"#utility.yul\":2283:2379   */\n      swap2\n      swap1\n      pop\n      jump\t// out\n        /* \"#utility.yul\":2385:2507   */\n    tag_298:\n        /* \"#utility.yul\":2458:2482   */\n      tag_350\n        /* \"#utility.yul\":2476:2481   */\n      dup2\n        /* \"#utility.yul\":2458:2482   */\n      tag_297\n      jump\t// in\n    tag_350:\n        /* \"#utility.yul\":2451:2456   */\n      dup2\n        /* \"#utility.yul\":2448:2483   */\n      eq\n        /* \"#utility.yul\":2438:2501   */\n      tag_351\n      jumpi\n        /* \"#utility.yul\":2497:2498   */\n      0x00\n        /* \"#utility.yul\":2494:2495   */\n      0x00\n        /* \"#utility.yul\":2487:2499   */\n      revert\n        /* \"#utility.yul\":2438:2501   */\n    tag_351:\n        /* \"#utility.yul\":2385:2507   */\n      pop\n      jump\t// out\n        /* \"#utility.yul\":2513:2652   */\n    tag_299:\n        /* \"#utility.yul\":2559:2564   */\n      0x00\n        /* \"#utility.yul\":2597:2603   */\n      dup2\n        /* \"#utility.yul\":2584:2604   */\n      calldataload\n        /* \"#utility.yul\":2575:2604   */\n      swap1\n      pop\n        /* \"#utility.yul\":2613:2646   */\n      tag_353\n        /* \"#utility.yul\":2640:2645   */\n      dup2\n        /* \"#utility.yul\":2613:2646   */\n      tag_298\n      jump\t// in\n    tag_353:\n        /* \"#utility.yul\":2513:2652   */\n      swap3\n      swap2\n      pop\n      pop\n      jump\t// out\n        /* \"#utility.yul\":2658:2735   */\n    tag_300:\n        /* \"#utility.yul\":2695:2702   */\n      0x00\n        /* \"#utility.yul\":2724:2729   */\n      dup2\n        /* \"#utility.yul\":2713:2729   */\n      swap1\n      pop\n        /* \"#utility.yul\":2658:2735   */\n      swap2\n      swap1\n      pop\n      jump\t// out\n        /* \"#utility.yul\":2741:2863   */\n    tag_301:\n        /* \"#utility.yul\":2814:2838   */\n      tag_356\n        /* \"#utility.yul\":2832:2837   */\n      dup2\n        /* \"#utility.yul\":2814:2838   */\n      tag_300\n      jump\t// in\n    tag_356:\n        /* \"#utility.yul\":2807:2812   */\n      dup2\n        /* \"#utility.yul\":2804:2839   */\n      eq\n        /* \"#utility.yul\":2794:2857   */\n      tag_357\n      jumpi\n        /* \"#utility.yul\":2853:2854   */\n      0x00\n        /* \"#utility.yul\":2850:2851   */\n      0x00\n        /* \"#utility.yul\":2843:2855   */\n      revert\n        /* \"#utility.yul\":2794:2857   */\n    tag_357:\n        /* \"#utility.yul\":2741:2863   */\n      pop\n      jump\t// out\n        /* \"#utility.yul\":2869:3008   */\n    tag_302:\n        /* \"#utility.yul\":2915:2920   */\n      0x00\n        /* \"#utility.yul\":2953:2959   */\n      dup2\n        /* \"#utility.yul\":2940:2960   */\n      calldataload\n        /* \"#utility.yul\":2931:2960   */\n      swap1\n      pop\n        /* \"#utility.yul\":2969:3002   */\n      tag_359\n        /* \"#utility.yul\":2996:3001   */\n      dup2\n        /* \"#utility.yul\":2969:3002   */\n      tag_301\n      jump\t// in\n    tag_359:\n        /* \"#utility.yul\":2869:3008   */\n      swap3\n      swap2\n      pop\n      pop\n      jump\t// out\n        /* \"#utility.yul\":3014:3488   */\n    tag_33:\n        /* \"#utility.yul\":3082:3088   */\n      0x00\n        /* \"#utility.yul\":3090:3096   */\n      0x00\n        /* \"#utility.yul\":3139:3141   */\n      0x40\n        /* \"#utility.yul\":3127:3136   */\n      dup4\n        /* \"#utility.yul\":3118:3125   */\n      dup6\n        /* \"#utility.yul\":3114:3137   */\n      sub\n        /* \"#utility.yul\":3110:3142   */\n      slt\n        /* \"#utility.yul\":3107:3226   */\n      iszero\n      tag_361\n      jumpi\n        /* \"#utility.yul\":3145:3224   */\n      tag_362\n      tag_294\n      jump\t// in\n    tag_362:\n        /* \"#utility.yul\":3107:3226   */\n    tag_361:\n        /* \"#utility.yul\":3265:3266   */\n      0x00\n        /* \"#utility.yul\":3290:3343   */\n      tag_363\n        /* \"#utility.yul\":3335:3342   */\n      dup6\n        /* \"#utility.yul\":3326:3332   */\n      dup3\n        /* \"#utility.yul\":3315:3324   */\n      dup7\n        /* \"#utility.yul\":3311:3333   */\n      add\n        /* \"#utility.yul\":3290:3343   */\n      tag_299\n      jump\t// in\n    tag_363:\n        /* \"#utility.yul\":3280:3343   */\n      swap3\n      pop\n        /* \"#utility.yul\":3236:3353   */\n      pop\n        /* \"#utility.yul\":3392:3394   */\n      0x20\n        /* \"#utility.yul\":3418:3471   */\n      tag_364\n        /* \"#utility.yul\":3463:3470   */\n      dup6\n        /* \"#utility.yul\":3454:3460   */\n      dup3\n        /* \"#utility.yul\":3443:3452   */\n      dup7\n        /* \"#utility.yul\":3439:3461   */\n      add\n        /* \"#utility.yul\":3418:3471   */\n      tag_302\n      jump\t// in\n    tag_364:\n        /* \"#utility.yul\":3408:3471   */\n      swap2\n      pop\n        /* \"#utility.yul\":3363:3481   */\n      pop\n        /* \"#utility.yul\":3014:3488   */\n      swap3\n      pop\n      swap3\n      swap1\n      pop\n      jump\t// out\n        /* \"#utility.yul\":3494:3584   */\n    tag_303:\n        /* \"#utility.yul\":3528:3535   */\n      0x00\n        /* \"#utility.yul\":3571:3576   */\n      dup2\n        /* \"#utility.yul\":3564:3577   */\n      iszero\n        /* \"#utility.yul\":3557:3578   */\n      iszero\n        /* \"#utility.yul\":3546:3578   */\n      swap1\n      pop\n        /* \"#utility.yul\":3494:3584   */\n      swap2\n      swap1\n      pop\n      jump\t// out\n        /* \"#utility.yul\":3590:3699   */\n    tag_304:\n        /* \"#utility.yul\":3671:3692   */\n      tag_367\n        /* \"#utility.yul\":3686:3691   */\n      dup2\n        /* \"#utility.yul\":3671:3692   */\n      tag_303\n      jump\t// in\n    tag_367:\n        /* \"#utility.yul\":3666:3669   */\n      dup3\n        /* \"#utility.yul\":3659:3693   */\n      mstore\n        /* \"#utility.yul\":3590:3699   */\n      pop\n      pop\n      jump\t// out\n        /* \"#utility.yul\":3705:3915   */\n    tag_36:\n        /* \"#utility.yul\":3792:3796   */\n      0x00\n        /* \"#utility.yul\":3830:3832   */\n      0x20\n        /* \"#utility.yul\":3819:3828   */\n      dup3\n        /* \"#utility.yul\":3815:3833   */\n      add\n        /* \"#utility.yul\":3807:3833   */\n      swap1\n      pop\n        /* \"#utility.yul\":3843:3908   */\n      tag_369\n        /* \"#utility.yul\":3905:3906   */\n      0x00\n        /* \"#utility.yul\":3894:3903   */\n      dup4\n        /* \"#utility.yul\":3890:3907   */\n      add\n        /* \"#utility.yul\":3881:3887   */\n      dup5\n        /* \"#utility.yul\":3843:3908   */\n      tag_304\n      jump\t// in\n    tag_369:\n        /* \"#utility.yul\":3705:3915   */\n      swap3\n      swap2\n      pop\n      pop\n      jump\t// out\n        /* \"#utility.yul\":3921:4039   */\n    tag_305:\n        /* \"#utility.yul\":4008:4032   */\n      tag_371\n        /* \"#utility.yul\":4026:4031   */\n      dup2\n        /* \"#utility.yul\":4008:4032   */\n      tag_297\n      jump\t// in\n    tag_371:\n        /* \"#utility.yul\":4003:4006   */\n      dup3\n        /* \"#utility.yul\":3996:4033   */\n      mstore\n        /* \"#utility.yul\":3921:4039   */\n      pop\n      pop\n      jump\t// out\n        /* \"#utility.yul\":4045:4267   */\n    tag_40:\n        /* \"#utility.yul\":4138:4142   */\n      0x00\n        /* \"#utility.yul\":4176:4178   */\n      0x20\n        /* \"#utility.yul\":4165:4174   */\n      dup3\n        /* \"#utility.yul\":4161:4179   */\n      add\n        /* \"#utility.yul\":4153:4179   */\n      swap1\n      pop\n        /* \"#utility.yul\":4189:4260   */\n      tag_373\n        /* \"#utility.yul\":4257:4258   */\n      0x00\n        /* \"#utility.yul\":4246:4255   */\n      dup4\n        /* \"#utility.yul\":4242:4259   */\n      add\n        /* \"#utility.yul\":4233:4239   */\n      dup5\n        /* \"#utility.yul\":4189:4260   */\n      tag_305\n      jump\t// in\n    tag_373:\n        /* \"#utility.yul\":4045:4267   */\n      swap3\n      swap2\n      pop\n      pop\n      jump\t// out\n        /* \"#utility.yul\":4273:4391   */\n    tag_306:\n        /* \"#utility.yul\":4360:4384   */\n      tag_375\n        /* \"#utility.yul\":4378:4383   */\n      dup2\n        /* \"#utility.yul\":4360:4384   */\n      tag_300\n      jump\t// in\n    tag_375:\n        /* \"#utility.yul\":4355:4358   */\n      dup3\n        /* \"#utility.yul\":4348:4385   */\n      mstore\n        /* \"#utility.yul\":4273:4391   */\n      pop\n      pop\n      jump\t// out\n        /* \"#utility.yul\":4397:4619   */\n    tag_44:\n        /* \"#utility.yul\":4490:4494   */\n      0x00\n        /* \"#utility.yul\":4528:4530   */\n      0x20\n        /* \"#utility.yul\":4517:4526   */\n      dup3\n        /* \"#utility.yul\":4513:4531   */\n      add\n        /* \"#utility.yul\":4505:4531   */\n      swap1\n      pop\n        /* \"#utility.yul\":4541:4612   */\n      tag_377\n        /* \"#utility.yul\":4609:4610   */\n      0x00\n        /* \"#utility.yul\":4598:4607   */\n      dup4\n        /* \"#utility.yul\":4594:4611   */\n      add\n        /* \"#utility.yul\":4585:4591   */\n      dup5\n        /* \"#utility.yul\":4541:4612   */\n      tag_306\n      jump\t// in\n    tag_377:\n        /* \"#utility.yul\":4397:4619   */\n      swap3\n      swap2\n      pop\n      pop\n      jump\t// out\n        /* \"#utility.yul\":4625:4847   */\n    tag_48:\n        /* \"#utility.yul\":4718:4722   */\n      0x00\n        /* \"#utility.yul\":4756:4758   */\n      0x20\n        /* \"#utility.yul\":4745:4754   */\n      dup3\n        /* \"#utility.yul\":4741:4759   */\n      add\n        /* \"#utility.yul\":4733:4759   */\n      swap1\n      pop\n        /* \"#utility.yul\":4769:4840   */\n      tag_379\n        /* \"#utility.yul\":4837:4838   */\n      0x00\n        /* \"#utility.yul\":4826:4835   */\n      dup4\n        /* \"#utility.yul\":4822:4839   */\n      add\n        /* \"#utility.yul\":4813:4819   */\n      dup5\n        /* \"#utility.yul\":4769:4840   */\n      tag_292\n      jump\t// in\n    tag_379:\n        /* \"#utility.yul\":4625:4847   */\n      swap3\n      swap2\n      pop\n      pop\n      jump\t// out\n        /* \"#utility.yul\":4853:5472   */\n    tag_51:\n        /* \"#utility.yul\":4930:4936   */\n      0x00\n        /* \"#utility.yul\":4938:4944   */\n      0x00\n        /* \"#utility.yul\":4946:4952   */\n      0x00\n        /* \"#utility.yul\":4995:4997   */\n      0x60\n        /* \"#utility.yul\":4983:4992   */\n      dup5\n        /* \"#utility.yul\":4974:4981   */\n      dup7\n        /* \"#utility.yul\":4970:4993   */\n      sub\n        /* \"#utility.yul\":4966:4998   */\n      slt\n        /* \"#utility.yul\":4963:5082   */\n      iszero\n      tag_381\n      jumpi\n        /* \"#utility.yul\":5001:5080   */\n      tag_382\n      tag_294\n      jump\t// in\n    tag_382:\n        /* \"#utility.yul\":4963:5082   */\n    tag_381:\n        /* \"#utility.yul\":5121:5122   */\n      0x00\n        /* \"#utility.yul\":5146:5199   */\n      tag_383\n        /* \"#utility.yul\":5191:5198   */\n      dup7\n        /* \"#utility.yul\":5182:5188   */\n      dup3\n        /* \"#utility.yul\":5171:5180   */\n      dup8\n        /* \"#utility.yul\":5167:5189   */\n      add\n        /* \"#utility.yul\":5146:5199   */\n      tag_299\n      jump\t// in\n    tag_383:\n        /* \"#utility.yul\":5136:5199   */\n      swap4\n      pop\n        /* \"#utility.yul\":5092:5209   */\n      pop\n        /* \"#utility.yul\":5248:5250   */\n      0x20\n        /* \"#utility.yul\":5274:5327   */\n      tag_384\n        /* \"#utility.yul\":5319:5326   */\n      dup7\n        /* \"#utility.yul\":5310:5316   */\n      dup3\n        /* \"#utility.yul\":5299:5308   */\n      dup8\n        /* \"#utility.yul\":5295:5317   */\n      add\n        /* \"#utility.yul\":5274:5327   */\n      tag_299\n      jump\t// in\n    tag_384:\n        /* \"#utility.yul\":5264:5327   */\n      swap3\n      pop\n        /* \"#utility.yul\":5219:5337   */\n      pop\n        /* \"#utility.yul\":5376:5378   */\n      0x40\n        /* \"#utility.yul\":5402:5455   */\n      tag_385\n        /* \"#utility.yul\":5447:5454   */\n      dup7\n        /* \"#utility.yul\":5438:5444   */\n      dup3\n        /* \"#utility.yul\":5427:5436   */\n      dup8\n        /* \"#utility.yul\":5423:5445   */\n      add\n        /* \"#utility.yul\":5402:5455   */\n      tag_302\n      jump\t// in\n    tag_385:\n        /* \"#utility.yul\":5392:5455   */\n      swap2\n      pop\n        /* \"#utility.yul\":5347:5465   */\n      pop\n        /* \"#utility.yul\":4853:5472   */\n      swap3\n      pop\n      swap3\n      pop\n      swap3\n      jump\t// out\n        /* \"#utility.yul\":5478:5564   */\n    tag_307:\n        /* \"#utility.yul\":5513:5520   */\n      0x00\n        /* \"#utility.yul\":5553:5557   */\n      0xff\n        /* \"#utility.yul\":5546:5551   */\n      dup3\n        /* \"#utility.yul\":5542:5558   */\n      and\n        /* \"#utility.yul\":5531:5558   */\n      swap1\n      pop\n        /* \"#utility.yul\":5478:5564   */\n      swap2\n      swap1\n      pop\n      jump\t// out\n        /* \"#utility.yul\":5570:5682   */\n    tag_308:\n        /* \"#utility.yul\":5653:5675   */\n      tag_388\n        /* \"#utility.yul\":5669:5674   */\n      dup2\n        /* \"#utility.yul\":5653:5675   */\n      tag_307\n      jump\t// in\n    tag_388:\n        /* \"#utility.yul\":5648:5651   */\n      dup3\n        /* \"#utility.yul\":5641:5676   */\n      mstore\n        /* \"#utility.yul\":5570:5682   */\n      pop\n      pop\n      jump\t// out\n        /* \"#utility.yul\":5688:5902   */\n    tag_57:\n        /* \"#utility.yul\":5777:5781   */\n      0x00\n        /* \"#utility.yul\":5815:5817   */\n      0x20\n        /* \"#utility.yul\":5804:5813   */\n      dup3\n        /* \"#utility.yul\":5800:5818   */\n      add\n        /* \"#utility.yul\":5792:5818   */\n      swap1\n      pop\n        /* \"#utility.yul\":5828:5895   */\n      tag_390\n        /* \"#utility.yul\":5892:5893   */\n      0x00\n        /* \"#utility.yul\":5881:5890   */\n      dup4\n        /* \"#utility.yul\":5877:5894   */\n      add\n        /* \"#utility.yul\":5868:5874   */\n      dup5\n        /* \"#utility.yul\":5828:5895   */\n      tag_308\n      jump\t// in\n    tag_390:\n        /* \"#utility.yul\":5688:5902   */\n      swap3\n      swap2\n      pop\n      pop\n      jump\t// out\n        /* \"#utility.yul\":5908:6237   */\n    tag_63:\n        /* \"#utility.yul\":5967:5973   */\n      0x00\n        /* \"#utility.yul\":6016:6018   */\n      0x20\n        /* \"#utility.yul\":6004:6013   */\n      dup3\n        /* \"#utility.yul\":5995:6002   */\n      dup5\n        /* \"#utility.yul\":5991:6014   */\n      sub\n        /* \"#utility.yul\":5987:6019   */\n      slt\n        /* \"#utility.yul\":5984:6103   */\n      iszero\n      tag_392\n      jumpi\n        /* \"#utility.yul\":6022:6101   */\n      tag_393\n      tag_294\n      jump\t// in\n    tag_393:\n        /* \"#utility.yul\":5984:6103   */\n    tag_392:\n        /* \"#utility.yul\":6142:6143   */\n      0x00\n        /* \"#utility.yul\":6167:6220   */\n      tag_394\n        /* \"#utility.yul\":6212:6219   */\n      dup5\n        /* \"#utility.yul\":6203:6209   */\n      dup3\n        /* \"#utility.yul\":6192:6201   */\n      dup6\n        /* \"#utility.yul\":6188:6210   */\n      add\n        /* \"#utility.yul\":6167:6220   */\n      tag_299\n      jump\t// in\n    tag_394:\n        /* \"#utility.yul\":6157:6220   */\n      swap2\n      pop\n        /* \"#utility.yul\":6113:6230   */\n      pop\n        /* \"#utility.yul\":5908:6237   */\n      swap3\n      swap2\n      pop\n      pop\n      jump\t// out\n        /* \"#utility.yul\":6243:6572   */\n    tag_71:\n        /* \"#utility.yul\":6302:6308   */\n      0x00\n        /* \"#utility.yul\":6351:6353   */\n      0x20\n        /* \"#utility.yul\":6339:6348   */\n      dup3\n        /* \"#utility.yul\":6330:6337   */\n      dup5\n        /* \"#utility.yul\":6326:6349   */\n      sub\n        /* \"#utility.yul\":6322:6354   */\n      slt\n        /* \"#utility.yul\":6319:6438   */\n      iszero\n      tag_396\n      jumpi\n        /* \"#utility.yul\":6357:6436   */\n      tag_397\n      tag_294\n      jump\t// in\n    tag_397:\n        /* \"#utility.yul\":6319:6438   */\n    tag_396:\n        /* \"#utility.yul\":6477:6478   */\n      0x00\n        /* \"#utility.yul\":6502:6555   */\n      tag_398\n        /* \"#utility.yul\":6547:6554   */\n      dup5\n        /* \"#utility.yul\":6538:6544   */\n      dup3\n        /* \"#utility.yul\":6527:6536   */\n      dup6\n        /* \"#utility.yul\":6523:6545   */\n      add\n        /* \"#utility.yul\":6502:6555   */\n      tag_302\n      jump\t// in\n    tag_398:\n        /* \"#utility.yul\":6492:6555   */\n      swap2\n      pop\n        /* \"#utility.yul\":6448:6565   */\n      pop\n        /* \"#utility.yul\":6243:6572   */\n      swap3\n      swap2\n      pop\n      pop\n      jump\t// out\n        /* \"#utility.yul\":6578:6910   */\n    tag_74:\n        /* \"#utility.yul\":6699:6703   */\n      0x00\n        /* \"#utility.yul\":6737:6739   */\n      0x40\n        /* \"#utility.yul\":6726:6735   */\n      dup3\n        /* \"#utility.yul\":6722:6740   */\n      add\n        /* \"#utility.yul\":6714:6740   */\n      swap1\n      pop\n        /* \"#utility.yul\":6750:6821   */\n      tag_400\n        /* \"#utility.yul\":6818:6819   */\n      0x00\n        /* \"#utility.yul\":6807:6816   */\n      dup4\n        /* \"#utility.yul\":6803:6820   */\n      add\n        /* \"#utility.yul\":6794:6800   */\n      dup6\n        /* \"#utility.yul\":6750:6821   */\n      tag_306\n      jump\t// in\n    tag_400:\n        /* \"#utility.yul\":6831:6903   */\n      tag_401\n        /* \"#utility.yul\":6899:6901   */\n      0x20\n        /* \"#utility.yul\":6888:6897   */\n      dup4\n        /* \"#utility.yul\":6884:6902   */\n      add\n        /* \"#utility.yul\":6875:6881   */\n      dup5\n        /* \"#utility.yul\":6831:6903   */\n      tag_306\n      jump\t// in\n    tag_401:\n        /* \"#utility.yul\":6578:6910   */\n      swap4\n      swap3\n      pop\n      pop\n      pop\n      jump\t// out\n        /* \"#utility.yul\":6916:7390   */\n    tag_77:\n        /* \"#utility.yul\":6984:6990   */\n      0x00\n        /* \"#utility.yul\":6992:6998   */\n      0x00\n        /* \"#utility.yul\":7041:7043   */\n      0x40\n        /* \"#utility.yul\":7029:7038   */\n      dup4\n        /* \"#utility.yul\":7020:7027   */\n      dup6\n        /* \"#utility.yul\":7016:7039   */\n      sub\n        /* \"#utility.yul\":7012:7044   */\n      slt\n        /* \"#utility.yul\":7009:7128   */\n      iszero\n      tag_403\n      jumpi\n        /* \"#utility.yul\":7047:7126   */\n      tag_404\n      tag_294\n      jump\t// in\n    tag_404:\n        /* \"#utility.yul\":7009:7128   */\n    tag_403:\n        /* \"#utility.yul\":7167:7168   */\n      0x00\n        /* \"#utility.yul\":7192:7245   */\n      tag_405\n        /* \"#utility.yul\":7237:7244   */\n      dup6\n        /* \"#utility.yul\":7228:7234   */\n      dup3\n        /* \"#utility.yul\":7217:7226   */\n      dup7\n        /* \"#utility.yul\":7213:7235   */\n      add\n        /* \"#utility.yul\":7192:7245   */\n      tag_302\n      jump\t// in\n    tag_405:\n        /* \"#utility.yul\":7182:7245   */\n      swap3\n      pop\n        /* \"#utility.yul\":7138:7255   */\n      pop\n        /* \"#utility.yul\":7294:7296   */\n      0x20\n        /* \"#utility.yul\":7320:7373   */\n      tag_406\n        /* \"#utility.yul\":7365:7372   */\n      dup6\n        /* \"#utility.yul\":7356:7362   */\n      dup3\n        /* \"#utility.yul\":7345:7354   */\n      dup7\n        /* \"#utility.yul\":7341:7363   */\n      add\n        /* \"#utility.yul\":7320:7373   */\n      tag_302\n      jump\t// in\n    tag_406:\n        /* \"#utility.yul\":7310:7373   */\n      swap2\n      pop\n        /* \"#utility.yul\":7265:7383   */\n      pop\n        /* \"#utility.yul\":6916:7390   */\n      swap3\n      pop\n      swap3\n      swap1\n      pop\n      jump\t// out\n        /* \"#utility.yul\":7396:7870   */\n    tag_89:\n        /* \"#utility.yul\":7464:7470   */\n      0x00\n        /* \"#utility.yul\":7472:7478   */\n      0x00\n        /* \"#utility.yul\":7521:7523   */\n      0x40\n        /* \"#utility.yul\":7509:7518   */\n      dup4\n        /* \"#utility.yul\":7500:7507   */\n      dup6\n        /* \"#utility.yul\":7496:7519   */\n      sub\n        /* \"#utility.yul\":7492:7524   */\n      slt\n        /* \"#utility.yul\":7489:7608   */\n      iszero\n      tag_408\n      jumpi\n        /* \"#utility.yul\":7527:7606   */\n      tag_409\n      tag_294\n      jump\t// in\n    tag_409:\n        /* \"#utility.yul\":7489:7608   */\n    tag_408:\n        /* \"#utility.yul\":7647:7648   */\n      0x00\n        /* \"#utility.yul\":7672:7725   */\n      tag_410\n        /* \"#utility.yul\":7717:7724   */\n      dup6\n        /* \"#utility.yul\":7708:7714   */\n      dup3\n        /* \"#utility.yul\":7697:7706   */\n      dup7\n        /* \"#utility.yul\":7693:7715   */\n      add\n        /* \"#utility.yul\":7672:7725   */\n      tag_299\n      jump\t// in\n    tag_410:\n        /* \"#utility.yul\":7662:7725   */\n      swap3\n      pop\n        /* \"#utility.yul\":7618:7735   */\n      pop\n        /* \"#utility.yul\":7774:7776   */\n      0x20\n        /* \"#utility.yul\":7800:7853   */\n      tag_411\n        /* \"#utility.yul\":7845:7852   */\n      dup6\n        /* \"#utility.yul\":7836:7842   */\n      dup3\n        /* \"#utility.yul\":7825:7834   */\n      dup7\n        /* \"#utility.yul\":7821:7843   */\n      add\n        /* \"#utility.yul\":7800:7853   */\n      tag_299\n      jump\t// in\n    tag_411:\n        /* \"#utility.yul\":7790:7853   */\n      swap2\n      pop\n        /* \"#utility.yul\":7745:7863   */\n      pop\n        /* \"#utility.yul\":7396:7870   */\n      swap3\n      pop\n      swap3\n      swap1\n      pop\n      jump\t// out\n        /* \"#utility.yul\":7876:8641   */\n    tag_94:\n        /* \"#utility.yul\":7962:7968   */\n      0x00\n        /* \"#utility.yul\":7970:7976   */\n      0x00\n        /* \"#utility.yul\":7978:7984   */\n      0x00\n        /* \"#utility.yul\":7986:7992   */\n      0x00\n        /* \"#utility.yul\":8035:8038   */\n      0x80\n        /* \"#utility.yul\":8023:8032   */\n      dup6\n        /* \"#utility.yul\":8014:8021   */\n      dup8\n        /* \"#utility.yul\":8010:8033   */\n      sub\n        /* \"#utility.yul\":8006:8039   */\n      slt\n        /* \"#utility.yul\":8003:8123   */\n      iszero\n      tag_413\n      jumpi\n        /* \"#utility.yul\":8042:8121   */\n      tag_414\n      tag_294\n      jump\t// in\n    tag_414:\n        /* \"#utility.yul\":8003:8123   */\n    tag_413:\n        /* \"#utility.yul\":8162:8163   */\n      0x00\n        /* \"#utility.yul\":8187:8240   */\n      tag_415\n        /* \"#utility.yul\":8232:8239   */\n      dup8\n        /* \"#utility.yul\":8223:8229   */\n      dup3\n        /* \"#utility.yul\":8212:8221   */\n      dup9\n        /* \"#utility.yul\":8208:8230   */\n      add\n        /* \"#utility.yul\":8187:8240   */\n      tag_299\n      jump\t// in\n    tag_415:\n        /* \"#utility.yul\":8177:8240   */\n      swap5\n      pop\n        /* \"#utility.yul\":8133:8250   */\n      pop\n        /* \"#utility.yul\":8289:8291   */\n      0x20\n        /* \"#utility.yul\":8315:8368   */\n      tag_416\n        /* \"#utility.yul\":8360:8367   */\n      dup8\n        /* \"#utility.yul\":8351:8357   */\n      dup3\n        /* \"#utility.yul\":8340:8349   */\n      dup9\n        /* \"#utility.yul\":8336:8358   */\n      add\n        /* \"#utility.yul\":8315:8368   */\n      tag_302\n      jump\t// in\n    tag_416:\n        /* \"#utility.yul\":8305:8368   */\n      swap4\n      pop\n        /* \"#utility.yul\":8260:8378   */\n      pop\n        /* \"#utility.yul\":8417:8419   */\n      0x40\n        /* \"#utility.yul\":8443:8496   */\n      tag_417\n        /* \"#utility.yul\":8488:8495   */\n      dup8\n        /* \"#utility.yul\":8479:8485   */\n      dup3\n        /* \"#utility.yul\":8468:8477   */\n      dup9\n        /* \"#utility.yul\":8464:8486   */\n      add\n        /* \"#utility.yul\":8443:8496   */\n      tag_302\n      jump\t// in\n    tag_417:\n        /* \"#utility.yul\":8433:8496   */\n      swap3\n      pop\n        /* \"#utility.yul\":8388:8506   */\n      pop\n        /* \"#utility.yul\":8545:8547   */\n      0x60\n        /* \"#utility.yul\":8571:8624   */\n      tag_418\n        /* \"#utility.yul\":8616:8623   */\n      dup8\n        /* \"#utility.yul\":8607:8613   */\n      dup3\n        /* \"#utility.yul\":8596:8605   */\n      dup9\n        /* \"#utility.yul\":8592:8614   */\n      add\n        /* \"#utility.yul\":8571:8624   */\n      tag_299\n      jump\t// in\n    tag_418:\n        /* \"#utility.yul\":8561:8624   */\n      swap2\n      pop\n        /* \"#utility.yul\":8516:8634   */\n      pop\n        /* \"#utility.yul\":7876:8641   */\n      swap3\n      swap6\n      swap2\n      swap5\n      pop\n      swap3\n      pop\n      jump\t// out\n        /* \"#utility.yul\":8647:8827   */\n    tag_309:\n        /* \"#utility.yul\":8695:8772   */\n      0x4e487b7100000000000000000000000000000000000000000000000000000000\n        /* \"#utility.yul\":8692:8693   */\n      0x00\n        /* \"#utility.yul\":8685:8773   */\n      mstore\n        /* \"#utility.yul\":8792:8796   */\n      0x22\n        /* \"#utility.yul\":8789:8790   */\n      0x04\n        /* \"#utility.yul\":8782:8797   */\n      mstore\n        /* \"#utility.yul\":8816:8820   */\n      0x24\n        /* \"#utility.yul\":8813:8814   */\n      0x00\n        /* \"#utility.yul\":8806:8821   */\n      revert\n        /* \"#utility.yul\":8833:9153   */\n    tag_99:\n        /* \"#utility.yul\":8877:8883   */\n      0x00\n        /* \"#utility.yul\":8914:8915   */\n      0x02\n        /* \"#utility.yul\":8908:8912   */\n      dup3\n        /* \"#utility.yul\":8904:8916   */\n      div\n        /* \"#utility.yul\":8894:8916   */\n      swap1\n      pop\n        /* \"#utility.yul\":8961:8962   */\n      0x01\n        /* \"#utility.yul\":8955:8959   */\n      dup3\n        /* \"#utility.yul\":8951:8963   */\n      and\n        /* \"#utility.yul\":8982:9000   */\n      dup1\n        /* \"#utility.yul\":8972:9053   */\n      tag_421\n      jumpi\n        /* \"#utility.yul\":9038:9042   */\n      0x7f\n        /* \"#utility.yul\":9030:9036   */\n      dup3\n        /* \"#utility.yul\":9026:9043   */\n      and\n        /* \"#utility.yul\":9016:9043   */\n      swap2\n      pop\n        /* \"#utility.yul\":8972:9053   */\n    tag_421:\n        /* \"#utility.yul\":9100:9102   */\n      0x20\n        /* \"#utility.yul\":9092:9098   */\n      dup3\n        /* \"#utility.yul\":9089:9103   */\n      lt\n        /* \"#utility.yul\":9069:9087   */\n      dup2\n        /* \"#utility.yul\":9066:9104   */\n      sub\n        /* \"#utility.yul\":9063:9147   */\n      tag_422\n      jumpi\n        /* \"#utility.yul\":9119:9137   */\n      tag_423\n      tag_309\n      jump\t// in\n    tag_423:\n        /* \"#utility.yul\":9063:9147   */\n    tag_422:\n        /* \"#utility.yul\":8884:9153   */\n      pop\n        /* \"#utility.yul\":8833:9153   */\n      swap2\n      swap1\n      pop\n      jump\t// out\n        /* \"#utility.yul\":9159:9312   */\n    tag_310:\n        /* \"#utility.yul\":9299:9304   */\n      0x4c50300000000000000000000000000000000000000000000000000000000000\n        /* \"#utility.yul\":9295:9296   */\n      0x00\n        /* \"#utility.yul\":9287:9293   */\n      dup3\n        /* \"#utility.yul\":9283:9297   */\n      add\n        /* \"#utility.yul\":9276:9305   */\n      mstore\n        /* \"#utility.yul\":9159:9312   */\n      pop\n      jump\t// out\n        /* \"#utility.yul\":9318:9683   */\n    tag_311:\n        /* \"#utility.yul\":9460:9463   */\n      0x00\n        /* \"#utility.yul\":9481:9547   */\n      tag_426\n        /* \"#utility.yul\":9545:9546   */\n      0x03\n        /* \"#utility.yul\":9540:9543   */\n      dup4\n        /* \"#utility.yul\":9481:9547   */\n      tag_287\n      jump\t// in\n    tag_426:\n        /* \"#utility.yul\":9474:9547   */\n      swap2\n      pop\n        /* \"#utility.yul\":9556:9649   */\n      tag_427\n        /* \"#utility.yul\":9645:9648   */\n      dup3\n        /* \"#utility.yul\":9556:9649   */\n      tag_310\n      jump\t// in\n    tag_427:\n        /* \"#utility.yul\":9674:9676   */\n      0x20\n        /* \"#utility.yul\":9669:9672   */\n      dup3\n        /* \"#utility.yul\":9665:9677   */\n      add\n        /* \"#utility.yul\":9658:9677   */\n      swap1\n      pop\n        /* \"#utility.yul\":9318:9683   */\n      swap2\n      swap1\n      pop\n      jump\t// out\n        /* \"#utility.yul\":9689:10108   */\n    tag_128:\n        /* \"#utility.yul\":9855:9859   */\n      0x00\n        /* \"#utility.yul\":9893:9895   */\n      0x20\n        /* \"#utility.yul\":9882:9891   */\n      dup3\n        /* \"#utility.yul\":9878:9896   */\n      add\n        /* \"#utility.yul\":9870:9896   */\n      swap1\n      pop\n        /* \"#utility.yul\":9942:9951   */\n      dup2\n        /* \"#utility.yul\":9936:9940   */\n      dup2\n        /* \"#utility.yul\":9932:9952   */\n      sub\n        /* \"#utility.yul\":9928:9929   */\n      0x00\n        /* \"#utility.yul\":9917:9926   */\n      dup4\n        /* \"#utility.yul\":9913:9930   */\n      add\n        /* \"#utility.yul\":9906:9953   */\n      mstore\n        /* \"#utility.yul\":9970:10101   */\n      tag_429\n        /* \"#utility.yul\":10096:10100   */\n      dup2\n        /* \"#utility.yul\":9970:10101   */\n      tag_311\n      jump\t// in\n    tag_429:\n        /* \"#utility.yul\":9962:10101   */\n      swap1\n      pop\n        /* \"#utility.yul\":9689:10108   */\n      swap2\n      swap1\n      pop\n      jump\t// out\n        /* \"#utility.yul\":10114:10294   */\n    tag_312:\n        /* \"#utility.yul\":10162:10239   */\n      0x4e487b7100000000000000000000000000000000000000000000000000000000\n        /* \"#utility.yul\":10159:10160   */\n      0x00\n        /* \"#utility.yul\":10152:10240   */\n      mstore\n        /* \"#utility.yul\":10259:10263   */\n      0x11\n        /* \"#utility.yul\":10256:10257   */\n      0x04\n        /* \"#utility.yul\":10249:10264   */\n      mstore\n        /* \"#utility.yul\":10283:10287   */\n      0x24\n        /* \"#utility.yul\":10280:10281   */\n      0x00\n        /* \"#utility.yul\":10273:10288   */\n      revert\n        /* \"#utility.yul\":10300:10710   */\n    tag_131:\n        /* \"#utility.yul\":10340:10347   */\n      0x00\n        /* \"#utility.yul\":10363:10383   */\n      tag_432\n        /* \"#utility.yul\":10381:10382   */\n      dup3\n        /* \"#utility.yul\":10363:10383   */\n      tag_300\n      jump\t// in\n    tag_432:\n        /* \"#utility.yul\":10358:10383   */\n      swap2\n      pop\n        /* \"#utility.yul\":10397:10417   */\n      tag_433\n        /* \"#utility.yul\":10415:10416   */\n      dup4\n        /* \"#utility.yul\":10397:10417   */\n      tag_300\n      jump\t// in\n    tag_433:\n        /* \"#utility.yul\":10392:10417   */\n      swap3\n      pop\n        /* \"#utility.yul\":10452:10453   */\n      dup3\n        /* \"#utility.yul\":10449:10450   */\n      dup3\n        /* \"#utility.yul\":10445:10454   */\n      mul\n        /* \"#utility.yul\":10474:10504   */\n      tag_434\n        /* \"#utility.yul\":10492:10503   */\n      dup2\n        /* \"#utility.yul\":10474:10504   */\n      tag_300\n      jump\t// in\n    tag_434:\n        /* \"#utility.yul\":10463:10504   */\n      swap2\n      pop\n        /* \"#utility.yul\":10653:10654   */\n      dup3\n        /* \"#utility.yul\":10644:10651   */\n      dup3\n        /* \"#utility.yul\":10640:10655   */\n      div\n        /* \"#utility.yul\":10637:10638   */\n      dup5\n        /* \"#utility.yul\":10634:10656   */\n      eq\n        /* \"#utility.yul\":10614:10615   */\n      dup4\n        /* \"#utility.yul\":10607:10616   */\n      iszero\n        /* \"#utility.yul\":10587:10670   */\n      or\n        /* \"#utility.yul\":10564:10703   */\n      tag_435\n      jumpi\n        /* \"#utility.yul\":10683:10701   */\n      tag_436\n      tag_312\n      jump\t// in\n    tag_436:\n        /* \"#utility.yul\":10564:10703   */\n    tag_435:\n        /* \"#utility.yul\":10348:10710   */\n      pop\n        /* \"#utility.yul\":10300:10710   */\n      swap3\n      swap2\n      pop\n      pop\n      jump\t// out\n        /* \"#utility.yul\":10716:10896   */\n    tag_313:\n        /* \"#utility.yul\":10764:10841   */\n      0x4e487b7100000000000000000000000000000000000000000000000000000000\n        /* \"#utility.yul\":10761:10762   */\n      0x00\n        /* \"#utility.yul\":10754:10842   */\n      mstore\n        /* \"#utility.yul\":10861:10865   */\n      0x12\n        /* \"#utility.yul\":10858:10859   */\n      0x04\n        /* \"#utility.yul\":10851:10866   */\n      mstore\n        /* \"#utility.yul\":10885:10889   */\n      0x24\n        /* \"#utility.yul\":10882:10883   */\n      0x00\n        /* \"#utility.yul\":10875:10890   */\n      revert\n        /* \"#utility.yul\":10902:11087   */\n    tag_133:\n        /* \"#utility.yul\":10942:10943   */\n      0x00\n        /* \"#utility.yul\":10959:10979   */\n      tag_439\n        /* \"#utility.yul\":10977:10978   */\n      dup3\n        /* \"#utility.yul\":10959:10979   */\n      tag_300\n      jump\t// in\n    tag_439:\n        /* \"#utility.yul\":10954:10979   */\n      swap2\n      pop\n        /* \"#utility.yul\":10993:11013   */\n      tag_440\n        /* \"#utility.yul\":11011:11012   */\n      dup4\n        /* \"#utility.yul\":10993:11013   */\n      tag_300\n      jump\t// in\n    tag_440:\n        /* \"#utility.yul\":10988:11013   */\n      swap3\n      pop\n        /* \"#utility.yul\":11032:11033   */\n      dup3\n        /* \"#utility.yul\":11022:11057   */\n      tag_441\n      jumpi\n        /* \"#utility.yul\":11037:11055   */\n      tag_442\n      tag_313\n      jump\t// in\n    tag_442:\n        /* \"#utility.yul\":11022:11057   */\n    tag_441:\n        /* \"#utility.yul\":11079:11080   */\n      dup3\n        /* \"#utility.yul\":11076:11077   */\n      dup3\n        /* \"#utility.yul\":11072:11081   */\n      div\n        /* \"#utility.yul\":11067:11081   */\n      swap1\n      pop\n        /* \"#utility.yul\":10902:11087   */\n      swap3\n      swap2\n      pop\n      pop\n      jump\t// out\n        /* \"#utility.yul\":11093:11535   */\n    tag_144:\n        /* \"#utility.yul\":11242:11246   */\n      0x00\n        /* \"#utility.yul\":11280:11282   */\n      0x60\n        /* \"#utility.yul\":11269:11278   */\n      dup3\n        /* \"#utility.yul\":11265:11283   */\n      add\n        /* \"#utility.yul\":11257:11283   */\n      swap1\n      pop\n        /* \"#utility.yul\":11293:11364   */\n      tag_444\n        /* \"#utility.yul\":11361:11362   */\n      0x00\n        /* \"#utility.yul\":11350:11359   */\n      dup4\n        /* \"#utility.yul\":11346:11363   */\n      add\n        /* \"#utility.yul\":11337:11343   */\n      dup7\n        /* \"#utility.yul\":11293:11364   */\n      tag_306\n      jump\t// in\n    tag_444:\n        /* \"#utility.yul\":11374:11446   */\n      tag_445\n        /* \"#utility.yul\":11442:11444   */\n      0x20\n        /* \"#utility.yul\":11431:11440   */\n      dup4\n        /* \"#utility.yul\":11427:11445   */\n      add\n        /* \"#utility.yul\":11418:11424   */\n      dup6\n        /* \"#utility.yul\":11374:11446   */\n      tag_306\n      jump\t// in\n    tag_445:\n        /* \"#utility.yul\":11456:11528   */\n      tag_446\n        /* \"#utility.yul\":11524:11526   */\n      0x40\n        /* \"#utility.yul\":11513:11522   */\n      dup4\n        /* \"#utility.yul\":11509:11527   */\n      add\n        /* \"#utility.yul\":11500:11506   */\n      dup5\n        /* \"#utility.yul\":11456:11528   */\n      tag_306\n      jump\t// in\n    tag_446:\n        /* \"#utility.yul\":11093:11535   */\n      swap5\n      swap4\n      pop\n      pop\n      pop\n      pop\n      jump\t// out\n        /* \"#utility.yul\":11541:11698   */\n    tag_314:\n        /* \"#utility.yul\":11681:11690   */\n      0x414d4f554e545300000000000000000000000000000000000000000000000000\n        /* \"#utility.yul\":11677:11678   */\n      0x00\n        /* \"#utility.yul\":11669:11675   */\n      dup3\n        /* \"#utility.yul\":11665:11679   */\n      add\n        /* \"#utility.yul\":11658:11691   */\n      mstore\n        /* \"#utility.yul\":11541:11698   */\n      pop\n      jump\t// out\n        /* \"#utility.yul\":11704:12069   */\n    tag_315:\n        /* \"#utility.yul\":11846:11849   */\n      0x00\n        /* \"#utility.yul\":11867:11933   */\n      tag_449\n        /* \"#utility.yul\":11931:11932   */\n      0x07\n        /* \"#utility.yul\":11926:11929   */\n      dup4\n        /* \"#utility.yul\":11867:11933   */\n      tag_287\n      jump\t// in\n    tag_449:\n        /* \"#utility.yul\":11860:11933   */\n      swap2\n      pop\n        /* \"#utility.yul\":11942:12035   */\n      tag_450\n        /* \"#utility.yul\":12031:12034   */\n      dup3\n        /* \"#utility.yul\":11942:12035   */\n      tag_314\n      jump\t// in\n    tag_450:\n        /* \"#utility.yul\":12060:12062   */\n      0x20\n        /* \"#utility.yul\":12055:12058   */\n      dup3\n        /* \"#utility.yul\":12051:12063   */\n      add\n        /* \"#utility.yul\":12044:12063   */\n      swap1\n      pop\n        /* \"#utility.yul\":11704:12069   */\n      swap2\n      swap1\n      pop\n      jump\t// out\n        /* \"#utility.yul\":12075:12494   */\n    tag_149:\n        /* \"#utility.yul\":12241:12245   */\n      0x00\n        /* \"#utility.yul\":12279:12281   */\n      0x20\n        /* \"#utility.yul\":12268:12277   */\n      dup3\n        /* \"#utility.yul\":12264:12282   */\n      add\n        /* \"#utility.yul\":12256:12282   */\n      swap1\n      pop\n        /* \"#utility.yul\":12328:12337   */\n      dup2\n        /* \"#utility.yul\":12322:12326   */\n      dup2\n        /* \"#utility.yul\":12318:12338   */\n      sub\n        /* \"#utility.yul\":12314:12315   */\n      0x00\n        /* \"#utility.yul\":12303:12312   */\n      dup4\n        /* \"#utility.yul\":12299:12316   */\n      add\n        /* \"#utility.yul\":12292:12339   */\n      mstore\n        /* \"#utility.yul\":12356:12487   */\n      tag_452\n        /* \"#utility.yul\":12482:12486   */\n      dup2\n        /* \"#utility.yul\":12356:12487   */\n      tag_315\n      jump\t// in\n    tag_452:\n        /* \"#utility.yul\":12348:12487   */\n      swap1\n      pop\n        /* \"#utility.yul\":12075:12494   */\n      swap2\n      swap1\n      pop\n      jump\t// out\n        /* \"#utility.yul\":12500:12655   */\n    tag_316:\n        /* \"#utility.yul\":12640:12647   */\n      0x544f4b454e000000000000000000000000000000000000000000000000000000\n        /* \"#utility.yul\":12636:12637   */\n      0x00\n        /* \"#utility.yul\":12628:12634   */\n      dup3\n        /* \"#utility.yul\":12624:12638   */\n      add\n        /* \"#utility.yul\":12617:12648   */\n      mstore\n        /* \"#utility.yul\":12500:12655   */\n      pop\n      jump\t// out\n        /* \"#utility.yul\":12661:13026   */\n    tag_317:\n        /* \"#utility.yul\":12803:12806   */\n      0x00\n        /* \"#utility.yul\":12824:12890   */\n      tag_455\n        /* \"#utility.yul\":12888:12889   */\n      0x05\n        /* \"#utility.yul\":12883:12886   */\n      dup4\n        /* \"#utility.yul\":12824:12890   */\n      tag_287\n      jump\t// in\n    tag_455:\n        /* \"#utility.yul\":12817:12890   */\n      swap2\n      pop\n        /* \"#utility.yul\":12899:12992   */\n      tag_456\n        /* \"#utility.yul\":12988:12991   */\n      dup3\n        /* \"#utility.yul\":12899:12992   */\n      tag_316\n      jump\t// in\n    tag_456:\n        /* \"#utility.yul\":13017:13019   */\n      0x20\n        /* \"#utility.yul\":13012:13015   */\n      dup3\n        /* \"#utility.yul\":13008:13020   */\n      add\n        /* \"#utility.yul\":13001:13020   */\n      swap1\n      pop\n        /* \"#utility.yul\":12661:13026   */\n      swap2\n      swap1\n      pop\n      jump\t// out\n        /* \"#utility.yul\":13032:13451   */\n    tag_179:\n        /* \"#utility.yul\":13198:13202   */\n      0x00\n        /* \"#utility.yul\":13236:13238   */\n      0x20\n        /* \"#utility.yul\":13225:13234   */\n      dup3\n        /* \"#utility.yul\":13221:13239   */\n      add\n        /* \"#utility.yul\":13213:13239   */\n      swap1\n      pop\n        /* \"#utility.yul\":13285:13294   */\n      dup2\n        /* \"#utility.yul\":13279:13283   */\n      dup2\n        /* \"#utility.yul\":13275:13295   */\n      sub\n        /* \"#utility.yul\":13271:13272   */\n      0x00\n        /* \"#utility.yul\":13260:13269   */\n      dup4\n        /* \"#utility.yul\":13256:13273   */\n      add\n        /* \"#utility.yul\":13249:13296   */\n      mstore\n        /* \"#utility.yul\":13313:13444   */\n      tag_458\n        /* \"#utility.yul\":13439:13443   */\n      dup2\n        /* \"#utility.yul\":13313:13444   */\n      tag_317\n      jump\t// in\n    tag_458:\n        /* \"#utility.yul\":13305:13444   */\n      swap1\n      pop\n        /* \"#utility.yul\":13032:13451   */\n      swap2\n      swap1\n      pop\n      jump\t// out\n        /* \"#utility.yul\":13457:13610   */\n    tag_318:\n        /* \"#utility.yul\":13597:13602   */\n      0x494e300000000000000000000000000000000000000000000000000000000000\n        /* \"#utility.yul\":13593:13594   */\n      0x00\n        /* \"#utility.yul\":13585:13591   */\n      dup3\n        /* \"#utility.yul\":13581:13595   */\n      add\n        /* \"#utility.yul\":13574:13603   */\n      mstore\n        /* \"#utility.yul\":13457:13610   */\n      pop\n      jump\t// out\n        /* \"#utility.yul\":13616:13981   */\n    tag_319:\n        /* \"#utility.yul\":13758:13761   */\n      0x00\n        /* \"#utility.yul\":13779:13845   */\n      tag_461\n        /* \"#utility.yul\":13843:13844   */\n      0x03\n        /* \"#utility.yul\":13838:13841   */\n      dup4\n        /* \"#utility.yul\":13779:13845   */\n      tag_287\n      jump\t// in\n    tag_461:\n        /* \"#utility.yul\":13772:13845   */\n      swap2\n      pop\n        /* \"#utility.yul\":13854:13947   */\n      tag_462\n        /* \"#utility.yul\":13943:13946   */\n      dup3\n        /* \"#utility.yul\":13854:13947   */\n      tag_318\n      jump\t// in\n    tag_462:\n        /* \"#utility.yul\":13972:13974   */\n      0x20\n        /* \"#utility.yul\":13967:13970   */\n      dup3\n        /* \"#utility.yul\":13963:13975   */\n      add\n        /* \"#utility.yul\":13956:13975   */\n      swap1\n      pop\n        /* \"#utility.yul\":13616:13981   */\n      swap2\n      swap1\n      pop\n      jump\t// out\n        /* \"#utility.yul\":13987:14406   */\n    tag_182:\n        /* \"#utility.yul\":14153:14157   */\n      0x00\n        /* \"#utility.yul\":14191:14193   */\n      0x20\n        /* \"#utility.yul\":14180:14189   */\n      dup3\n        /* \"#utility.yul\":14176:14194   */\n      add\n        /* \"#utility.yul\":14168:14194   */\n      swap1\n      pop\n        /* \"#utility.yul\":14240:14249   */\n      dup2\n        /* \"#utility.yul\":14234:14238   */\n      dup2\n        /* \"#utility.yul\":14230:14250   */\n      sub\n        /* \"#utility.yul\":14226:14227   */\n      0x00\n        /* \"#utility.yul\":14215:14224   */\n      dup4\n        /* \"#utility.yul\":14211:14228   */\n      add\n        /* \"#utility.yul\":14204:14251   */\n      mstore\n        /* \"#utility.yul\":14268:14399   */\n      tag_464\n        /* \"#utility.yul\":14394:14398   */\n      dup2\n        /* \"#utility.yul\":14268:14399   */\n      tag_319\n      jump\t// in\n    tag_464:\n        /* \"#utility.yul\":14260:14399   */\n      swap1\n      pop\n        /* \"#utility.yul\":13987:14406   */\n      swap2\n      swap1\n      pop\n      jump\t// out\n        /* \"#utility.yul\":14412:14565   */\n    tag_320:\n        /* \"#utility.yul\":14552:14557   */\n      0x544f300000000000000000000000000000000000000000000000000000000000\n        /* \"#utility.yul\":14548:14549   */\n      0x00\n        /* \"#utility.yul\":14540:14546   */\n      dup3\n        /* \"#utility.yul\":14536:14550   */\n      add\n        /* \"#utility.yul\":14529:14558   */\n      mstore\n        /* \"#utility.yul\":14412:14565   */\n      pop\n      jump\t// out\n        /* \"#utility.yul\":14571:14936   */\n    tag_321:\n        /* \"#utility.yul\":14713:14716   */\n      0x00\n        /* \"#utility.yul\":14734:14800   */\n      tag_467\n        /* \"#utility.yul\":14798:14799   */\n      0x03\n        /* \"#utility.yul\":14793:14796   */\n      dup4\n        /* \"#utility.yul\":14734:14800   */\n      tag_287\n      jump\t// in\n    tag_467:\n        /* \"#utility.yul\":14727:14800   */\n      swap2\n      pop\n        /* \"#utility.yul\":14809:14902   */\n      tag_468\n        /* \"#utility.yul\":14898:14901   */\n      dup3\n        /* \"#utility.yul\":14809:14902   */\n      tag_320\n      jump\t// in\n    tag_468:\n        /* \"#utility.yul\":14927:14929   */\n      0x20\n        /* \"#utility.yul\":14922:14925   */\n      dup3\n        /* \"#utility.yul\":14918:14930   */\n      add\n        /* \"#utility.yul\":14911:14930   */\n      swap1\n      pop\n        /* \"#utility.yul\":14571:14936   */\n      swap2\n      swap1\n      pop\n      jump\t// out\n        /* \"#utility.yul\":14942:15361   */\n    tag_185:\n        /* \"#utility.yul\":15108:15112   */\n      0x00\n        /* \"#utility.yul\":15146:15148   */\n      0x20\n        /* \"#utility.yul\":15135:15144   */\n      dup3\n        /* \"#utility.yul\":15131:15149   */\n      add\n        /* \"#utility.yul\":15123:15149   */\n      swap1\n      pop\n        /* \"#utility.yul\":15195:15204   */\n      dup2\n        /* \"#utility.yul\":15189:15193   */\n      dup2\n        /* \"#utility.yul\":15185:15205   */\n      sub\n        /* \"#utility.yul\":15181:15182   */\n      0x00\n        /* \"#utility.yul\":15170:15179   */\n      dup4\n        /* \"#utility.yul\":15166:15183   */\n      add\n        /* \"#utility.yul\":15159:15206   */\n      mstore\n        /* \"#utility.yul\":15223:15354   */\n      tag_470\n        /* \"#utility.yul\":15349:15353   */\n      dup2\n        /* \"#utility.yul\":15223:15354   */\n      tag_321\n      jump\t// in\n    tag_470:\n        /* \"#utility.yul\":15215:15354   */\n      swap1\n      pop\n        /* \"#utility.yul\":14942:15361   */\n      swap2\n      swap1\n      pop\n      jump\t// out\n        /* \"#utility.yul\":15367:15558   */\n    tag_194:\n        /* \"#utility.yul\":15407:15410   */\n      0x00\n        /* \"#utility.yul\":15426:15446   */\n      tag_472\n        /* \"#utility.yul\":15444:15445   */\n      dup3\n        /* \"#utility.yul\":15426:15446   */\n      tag_300\n      jump\t// in\n    tag_472:\n        /* \"#utility.yul\":15421:15446   */\n      swap2\n      pop\n        /* \"#utility.yul\":15460:15480   */\n      tag_473\n        /* \"#utility.yul\":15478:15479   */\n      dup4\n        /* \"#utility.yul\":15460:15480   */\n      tag_300\n      jump\t// in\n    tag_473:\n        /* \"#utility.yul\":15455:15480   */\n      swap3\n      pop\n        /* \"#utility.yul\":15503:15504   */\n      dup3\n        /* \"#utility.yul\":15500:15501   */\n      dup3\n        /* \"#utility.yul\":15496:15505   */\n      add\n        /* \"#utility.yul\":15489:15505   */\n      swap1\n      pop\n        /* \"#utility.yul\":15524:15527   */\n      dup1\n        /* \"#utility.yul\":15521:15522   */\n      dup3\n        /* \"#utility.yul\":15518:15528   */\n      gt\n        /* \"#utility.yul\":15515:15551   */\n      iszero\n      tag_474\n      jumpi\n        /* \"#utility.yul\":15531:15549   */\n      tag_475\n      tag_312\n      jump\t// in\n    tag_475:\n        /* \"#utility.yul\":15515:15551   */\n    tag_474:\n        /* \"#utility.yul\":15367:15558   */\n      swap3\n      swap2\n      pop\n      pop\n      jump\t// out\n        /* \"#utility.yul\":15564:15722   */\n    tag_322:\n        /* \"#utility.yul\":15704:15714   */\n      0x534c495050414745000000000000000000000000000000000000000000000000\n        /* \"#utility.yul\":15700:15701   */\n      0x00\n        /* \"#utility.yul\":15692:15698   */\n      dup3\n        /* \"#utility.yul\":15688:15702   */\n      add\n        /* \"#utility.yul\":15681:15715   */\n      mstore\n        /* \"#utility.yul\":15564:15722   */\n      pop\n      jump\t// out\n        /* \"#utility.yul\":15728:16093   */\n    tag_323:\n        /* \"#utility.yul\":15870:15873   */\n      0x00\n        /* \"#utility.yul\":15891:15957   */\n      tag_478\n        /* \"#utility.yul\":15955:15956   */\n      0x08\n        /* \"#utility.yul\":15950:15953   */\n      dup4\n        /* \"#utility.yul\":15891:15957   */\n      tag_287\n      jump\t// in\n    tag_478:\n        /* \"#utility.yul\":15884:15957   */\n      swap2\n      pop\n        /* \"#utility.yul\":15966:16059   */\n      tag_479\n        /* \"#utility.yul\":16055:16058   */\n      dup3\n        /* \"#utility.yul\":15966:16059   */\n      tag_322\n      jump\t// in\n    tag_479:\n        /* \"#utility.yul\":16084:16086   */\n      0x20\n        /* \"#utility.yul\":16079:16082   */\n      dup3\n        /* \"#utility.yul\":16075:16087   */\n      add\n        /* \"#utility.yul\":16068:16087   */\n      swap1\n      pop\n        /* \"#utility.yul\":15728:16093   */\n      swap2\n      swap1\n      pop\n      jump\t// out\n        /* \"#utility.yul\":16099:16518   */\n    tag_200:\n        /* \"#utility.yul\":16265:16269   */\n      0x00\n        /* \"#utility.yul\":16303:16305   */\n      0x20\n        /* \"#utility.yul\":16292:16301   */\n      dup3\n        /* \"#utility.yul\":16288:16306   */\n      add\n        /* \"#utility.yul\":16280:16306   */\n      swap1\n      pop\n        /* \"#utility.yul\":16352:16361   */\n      dup2\n        /* \"#utility.yul\":16346:16350   */\n      dup2\n        /* \"#utility.yul\":16342:16362   */\n      sub\n        /* \"#utility.yul\":16338:16339   */\n      0x00\n        /* \"#utility.yul\":16327:16336   */\n      dup4\n        /* \"#utility.yul\":16323:16340   */\n      add\n        /* \"#utility.yul\":16316:16363   */\n      mstore\n        /* \"#utility.yul\":16380:16511   */\n      tag_481\n        /* \"#utility.yul\":16506:16510   */\n      dup2\n        /* \"#utility.yul\":16380:16511   */\n      tag_323\n      jump\t// in\n    tag_481:\n        /* \"#utility.yul\":16372:16511   */\n      swap1\n      pop\n        /* \"#utility.yul\":16099:16518   */\n      swap2\n      swap1\n      pop\n      jump\t// out\n        /* \"#utility.yul\":16524:17188   */\n    tag_204:\n        /* \"#utility.yul\":16729:16733   */\n      0x00\n        /* \"#utility.yul\":16767:16770   */\n      0xa0\n        /* \"#utility.yul\":16756:16765   */\n      dup3\n        /* \"#utility.yul\":16752:16771   */\n      add\n        /* \"#utility.yul\":16744:16771   */\n      swap1\n      pop\n        /* \"#utility.yul\":16781:16852   */\n      tag_483\n        /* \"#utility.yul\":16849:16850   */\n      0x00\n        /* \"#utility.yul\":16838:16847   */\n      dup4\n        /* \"#utility.yul\":16834:16851   */\n      add\n        /* \"#utility.yul\":16825:16831   */\n      dup9\n        /* \"#utility.yul\":16781:16852   */\n      tag_305\n      jump\t// in\n    tag_483:\n        /* \"#utility.yul\":16862:16934   */\n      tag_484\n        /* \"#utility.yul\":16930:16932   */\n      0x20\n        /* \"#utility.yul\":16919:16928   */\n      dup4\n        /* \"#utility.yul\":16915:16933   */\n      add\n        /* \"#utility.yul\":16906:16912   */\n      dup8\n        /* \"#utility.yul\":16862:16934   */\n      tag_305\n      jump\t// in\n    tag_484:\n        /* \"#utility.yul\":16944:17016   */\n      tag_485\n        /* \"#utility.yul\":17012:17014   */\n      0x40\n        /* \"#utility.yul\":17001:17010   */\n      dup4\n        /* \"#utility.yul\":16997:17015   */\n      add\n        /* \"#utility.yul\":16988:16994   */\n      dup7\n        /* \"#utility.yul\":16944:17016   */\n      tag_306\n      jump\t// in\n    tag_485:\n        /* \"#utility.yul\":17026:17098   */\n      tag_486\n        /* \"#utility.yul\":17094:17096   */\n      0x60\n        /* \"#utility.yul\":17083:17092   */\n      dup4\n        /* \"#utility.yul\":17079:17097   */\n      add\n        /* \"#utility.yul\":17070:17076   */\n      dup6\n        /* \"#utility.yul\":17026:17098   */\n      tag_306\n      jump\t// in\n    tag_486:\n        /* \"#utility.yul\":17108:17181   */\n      tag_487\n        /* \"#utility.yul\":17176:17179   */\n      0x80\n        /* \"#utility.yul\":17165:17174   */\n      dup4\n        /* \"#utility.yul\":17161:17180   */\n      add\n        /* \"#utility.yul\":17152:17158   */\n      dup5\n        /* \"#utility.yul\":17108:17181   */\n      tag_305\n      jump\t// in\n    tag_487:\n        /* \"#utility.yul\":16524:17188   */\n      swap7\n      swap6\n      pop\n      pop\n      pop\n      pop\n      pop\n      pop\n      jump\t// out\n        /* \"#utility.yul\":17194:17636   */\n    tag_214:\n        /* \"#utility.yul\":17343:17347   */\n      0x00\n        /* \"#utility.yul\":17381:17383   */\n      0x60\n        /* \"#utility.yul\":17370:17379   */\n      dup3\n        /* \"#utility.yul\":17366:17384   */\n      add\n        /* \"#utility.yul\":17358:17384   */\n      swap1\n      pop\n        /* \"#utility.yul\":17394:17465   */\n      tag_489\n        /* \"#utility.yul\":17462:17463   */\n      0x00\n        /* \"#utility.yul\":17451:17460   */\n      dup4\n        /* \"#utility.yul\":17447:17464   */\n      add\n        /* \"#utility.yul\":17438:17444   */\n      dup7\n        /* \"#utility.yul\":17394:17465   */\n      tag_305\n      jump\t// in\n    tag_489:\n        /* \"#utility.yul\":17475:17547   */\n      tag_490\n        /* \"#utility.yul\":17543:17545   */\n      0x20\n        /* \"#utility.yul\":17532:17541   */\n      dup4\n        /* \"#utility.yul\":17528:17546   */\n      add\n        /* \"#utility.yul\":17519:17525   */\n      dup6\n        /* \"#utility.yul\":17475:17547   */\n      tag_306\n      jump\t// in\n    tag_490:\n        /* \"#utility.yul\":17557:17629   */\n      tag_491\n        /* \"#utility.yul\":17625:17627   */\n      0x40\n        /* \"#utility.yul\":17614:17623   */\n      dup4\n        /* \"#utility.yul\":17610:17628   */\n      add\n        /* \"#utility.yul\":17601:17607   */\n      dup5\n        /* \"#utility.yul\":17557:17629   */\n      tag_306\n      jump\t// in\n    tag_491:\n        /* \"#utility.yul\":17194:17636   */\n      swap5\n      swap4\n      pop\n      pop\n      pop\n      pop\n      jump\t// out\n        /* \"#utility.yul\":17642:17974   */\n    tag_230:\n        /* \"#utility.yul\":17763:17767   */\n      0x00\n        /* \"#utility.yul\":17801:17803   */\n      0x40\n        /* \"#utility.yul\":17790:17799   */\n      dup3\n        /* \"#utility.yul\":17786:17804   */\n      add\n        /* \"#utility.yul\":17778:17804   */\n      swap1\n      pop\n        /* \"#utility.yul\":17814:17885   */\n      tag_493\n        /* \"#utility.yul\":17882:17883   */\n      0x00\n        /* \"#utility.yul\":17871:17880   */\n      dup4\n        /* \"#utility.yul\":17867:17884   */\n      add\n        /* \"#utility.yul\":17858:17864   */\n      dup6\n        /* \"#utility.yul\":17814:17885   */\n      tag_305\n      jump\t// in\n    tag_493:\n        /* \"#utility.yul\":17895:17967   */\n      tag_494\n        /* \"#utility.yul\":17963:17965   */\n      0x20\n        /* \"#utility.yul\":17952:17961   */\n      dup4\n        /* \"#utility.yul\":17948:17966   */\n      add\n        /* \"#utility.yul\":17939:17945   */\n      dup5\n        /* \"#utility.yul\":17895:17967   */\n      tag_306\n      jump\t// in\n    tag_494:\n        /* \"#utility.yul\":17642:17974   */\n      swap4\n      swap3\n      pop\n      pop\n      pop\n      jump\t// out\n        /* \"#utility.yul\":17980:18123   */\n    tag_324:\n        /* \"#utility.yul\":18037:18042   */\n      0x00\n        /* \"#utility.yul\":18068:18074   */\n      dup2\n        /* \"#utility.yul\":18062:18075   */\n      mload\n        /* \"#utility.yul\":18053:18075   */\n      swap1\n      pop\n        /* \"#utility.yul\":18084:18117   */\n      tag_496\n        /* \"#utility.yul\":18111:18116   */\n      dup2\n        /* \"#utility.yul\":18084:18117   */\n      tag_301\n      jump\t// in\n    tag_496:\n        /* \"#utility.yul\":17980:18123   */\n      swap3\n      swap2\n      pop\n      pop\n      jump\t// out\n        /* \"#utility.yul\":18129:18480   */\n    tag_237:\n        /* \"#utility.yul\":18199:18205   */\n      0x00\n        /* \"#utility.yul\":18248:18250   */\n      0x20\n        /* \"#utility.yul\":18236:18245   */\n      dup3\n        /* \"#utility.yul\":18227:18234   */\n      dup5\n        /* \"#utility.yul\":18223:18246   */\n      sub\n        /* \"#utility.yul\":18219:18251   */\n      slt\n        /* \"#utility.yul\":18216:18335   */\n      iszero\n      tag_498\n      jumpi\n        /* \"#utility.yul\":18254:18333   */\n      tag_499\n      tag_294\n      jump\t// in\n    tag_499:\n        /* \"#utility.yul\":18216:18335   */\n    tag_498:\n        /* \"#utility.yul\":18374:18375   */\n      0x00\n        /* \"#utility.yul\":18399:18463   */\n      tag_500\n        /* \"#utility.yul\":18455:18462   */\n      dup5\n        /* \"#utility.yul\":18446:18452   */\n      dup3\n        /* \"#utility.yul\":18435:18444   */\n      dup6\n        /* \"#utility.yul\":18431:18453   */\n      add\n        /* \"#utility.yul\":18399:18463   */\n      tag_324\n      jump\t// in\n    tag_500:\n        /* \"#utility.yul\":18389:18463   */\n      swap2\n      pop\n        /* \"#utility.yul\":18345:18473   */\n      pop\n        /* \"#utility.yul\":18129:18480   */\n      swap3\n      swap2\n      pop\n      pop\n      jump\t// out\n        /* \"#utility.yul\":18486:18928   */\n    tag_245:\n        /* \"#utility.yul\":18635:18639   */\n      0x00\n        /* \"#utility.yul\":18673:18675   */\n      0x60\n        /* \"#utility.yul\":18662:18671   */\n      dup3\n        /* \"#utility.yul\":18658:18676   */\n      add\n        /* \"#utility.yul\":18650:18676   */\n      swap1\n      pop\n        /* \"#utility.yul\":18686:18757   */\n      tag_502\n        /* \"#utility.yul\":18754:18755   */\n      0x00\n        /* \"#utility.yul\":18743:18752   */\n      dup4\n        /* \"#utility.yul\":18739:18756   */\n      add\n        /* \"#utility.yul\":18730:18736   */\n      dup7\n        /* \"#utility.yul\":18686:18757   */\n      tag_305\n      jump\t// in\n    tag_502:\n        /* \"#utility.yul\":18767:18839   */\n      tag_503\n        /* \"#utility.yul\":18835:18837   */\n      0x20\n        /* \"#utility.yul\":18824:18833   */\n      dup4\n        /* \"#utility.yul\":18820:18838   */\n      add\n        /* \"#utility.yul\":18811:18817   */\n      dup6\n        /* \"#utility.yul\":18767:18839   */\n      tag_305\n      jump\t// in\n    tag_503:\n        /* \"#utility.yul\":18849:18921   */\n      tag_504\n        /* \"#utility.yul\":18917:18919   */\n      0x40\n        /* \"#utility.yul\":18906:18915   */\n      dup4\n        /* \"#utility.yul\":18902:18920   */\n      add\n        /* \"#utility.yul\":18893:18899   */\n      dup5\n        /* \"#utility.yul\":18849:18921   */\n      tag_306\n      jump\t// in\n    tag_504:\n        /* \"#utility.yul\":18486:18928   */\n      swap5\n      swap4\n      pop\n      pop\n      pop\n      pop\n      jump\t// out\n\n    auxdata: 0xa2646970667358221220faa3a699e59edb5ac54ef8c038b8f53107e5c51d7b0e8b6ee13654217fbf83b464736f6c634300081f0033\n}\n",
				"bytecode": {
					"linkReferences": {},
					"object": "60c060405234801561000f575f5ffd5b5060405161295738038061295783398181016040528101906100319190610237565b6040518060400160405280600881526020017f4c5020746f6b656e0000000000000000000000000000000000000000000000008152506040518060400160405280600281526020017f4c5000000000000000000000000000000000000000000000000000000000000081525081600390816100ac91906104b2565b5080600490816100bc91906104b2565b5050508073ffffffffffffffffffffffffffffffffffffffff168273ffffffffffffffffffffffffffffffffffffffff160361012d576040517f08c379a0000000000000000000000000000000000000000000000000000000008152600401610124906105db565b60405180910390fd5b8073ffffffffffffffffffffffffffffffffffffffff168273ffffffffffffffffffffffffffffffffffffffff161061016757808261016a565b81815b8073ffffffffffffffffffffffffffffffffffffffff1660a09073ffffffffffffffffffffffffffffffffffffffff168152508173ffffffffffffffffffffffffffffffffffffffff1660809073ffffffffffffffffffffffffffffffffffffffff16815250505050506105f9565b5f5ffd5b5f73ffffffffffffffffffffffffffffffffffffffff82169050919050565b5f610206826101dd565b9050919050565b610216816101fc565b8114610220575f5ffd5b50565b5f815190506102318161020d565b92915050565b5f5f6040838503121561024d5761024c6101d9565b5b5f61025a85828601610223565b925050602061026b85828601610223565b9150509250929050565b5f81519050919050565b7f4e487b71000000000000000000000000000000000000000000000000000000005f52604160045260245ffd5b7f4e487b71000000000000000000000000000000000000000000000000000000005f52602260045260245ffd5b5f60028204905060018216806102f057607f821691505b602082108103610303576103026102ac565b5b50919050565b5f819050815f5260205f209050919050565b5f6020601f8301049050919050565b5f82821b905092915050565b5f600883026103657fffffffffffffffffffffffffffffffffffffffffffffffffffffffffffffffff8261032a565b61036f868361032a565b95508019841693508086168417925050509392505050565b5f819050919050565b5f819050919050565b5f6103b36103ae6103a984610387565b610390565b610387565b9050919050565b5f819050919050565b6103cc83610399565b6103e06103d8826103ba565b848454610336565b825550505050565b5f5f905090565b6103f76103e8565b6104028184846103c3565b505050565b5b818110156104255761041a5f826103ef565b600181019050610408565b5050565b601f82111561046a5761043b81610309565b6104448461031b565b81016020851015610453578190505b61046761045f8561031b565b830182610407565b50505b505050565b5f82821c905092915050565b5f61048a5f198460080261046f565b1980831691505092915050565b5f6104a2838361047b565b9150826002028217905092915050565b6104bb82610275565b67ffffffffffffffff8111156104d4576104d361027f565b5b6104de82546102d9565b6104e9828285610429565b5f60209050601f83116001811461051a575f8415610508578287015190505b6105128582610497565b865550610579565b601f19841661052886610309565b5f5b8281101561054f5784890151825560018201915060208501945060208101905061052a565b8683101561056c5784890151610568601f89168261047b565b8355505b6001600288020188555050505b505050505050565b5f82825260208201905092915050565b7f426f746820616464726573736573206172652073616d650000000000000000005f82015250565b5f6105c5601783610581565b91506105d082610591565b602082019050919050565b5f6020820190508181035f8301526105f2816105b9565b9050919050565b60805160a0516122f06106675f395f8181610517015281816107420152818161088901528181610b5301528181610d10015261128f01525f8181610494015281816106f70152818161083c01528181610afe01528181610c9301528181610cea01526111c401526122f05ff3fe608060405234801561000f575f5ffd5b5060043610610109575f3560e01c80635f64b55b116100a05780639cd441da1161006f5780639cd441da146102bf578063a9059cbb146102ef578063dc5fa6c51461031f578063dd62ed3e1461033d578063f3e6ea8a1461036d57610109565b80635f64b55b1461022257806370a082311461024057806395d89b41146102705780639c8f9f231461028e57610109565b806318160ddd116100dc57806318160ddd1461019857806319e36f3b146101b657806323b872dd146101d4578063313ce5671461020457610109565b806306fdde031461010d5780630902f1ac1461012b578063095ea7b31461014a5780630fc63d101461017a575b5f5ffd5b61011561039d565b60405161012291906119de565b60405180910390f35b61013361042d565b604051610141929190611a26565b60405180910390f35b610164600480360381019061015f9190611ade565b610470565b6040516101719190611b36565b60405180910390f35b610182610492565b60405161018f9190611b5e565b60405180910390f35b6101a06104b6565b6040516101ad9190611b86565b60405180910390f35b6101be6104bf565b6040516101cb9190611b9f565b60405180910390f35b6101ee60048036038101906101e99190611bb8565b6104df565b6040516101fb9190611b36565b60405180910390f35b61020c61050d565b6040516102199190611c23565b60405180910390f35b61022a610515565b6040516102379190611b5e565b60405180910390f35b61025a60048036038101906102559190611c3c565b610539565b6040516102679190611b86565b60405180910390f35b61027861057e565b60405161028591906119de565b60405180910390f35b6102a860048036038101906102a39190611c67565b61060e565b6040516102b6929190611c92565b60405180910390f35b6102d960048036038101906102d49190611cb9565b6107e6565b6040516102e69190611b86565b60405180910390f35b61030960048036038101906103049190611ade565b610a38565b6040516103169190611b36565b60405180910390f35b610327610a5a565b6040516103349190611b9f565b60405180910390f35b61035760048036038101906103529190611cf7565b610a79565b6040516103649190611b86565b60405180910390f35b61038760048036038101906103829190611d35565b610afb565b6040516103949190611b86565b60405180910390f35b6060600380546103ac90611dc6565b80601f01602080910402602001604051908101604052809291908181526020018280546103d890611dc6565b80156104235780601f106103fa57610100808354040283529160200191610423565b820191905f5260205f20905b81548152906001019060200180831161040657829003601f168201915b5050505050905090565b5f5f60055f9054906101000a90046dffffffffffffffffffffffffffff166005600e9054906101000a90046dffffffffffffffffffffffffffff16915091509091565b5f5f61047a610f28565b9050610487818585610f2f565b600191505092915050565b7f000000000000000000000000000000000000000000000000000000000000000081565b5f600254905090565b6005600e9054906101000a90046dffffffffffffffffffffffffffff1681565b5f5f6104e9610f28565b90506104f6858285610f41565b610501858585610fd4565b60019150509392505050565b5f6012905090565b7f000000000000000000000000000000000000000000000000000000000000000081565b5f5f5f8373ffffffffffffffffffffffffffffffffffffffff1673ffffffffffffffffffffffffffffffffffffffff1681526020019081526020015f20549050919050565b60606004805461058d90611dc6565b80601f01602080910402602001604051908101604052809291908181526020018280546105b990611dc6565b80156106045780601f106105db57610100808354040283529160200191610604565b820191905f5260205f20905b8154815290600101906020018083116105e757829003601f168201915b5050505050905090565b5f5f5f8311610652576040517f08c379a000000000000000000000000000000000000000000000000000000000815260040161064990611e40565b60405180910390fd5b5f61065b6104b6565b90508060055f9054906101000a90046dffffffffffffffffffffffffffff166dffffffffffffffffffffffffffff16856106959190611e8b565b61069f9190611ef9565b9250806005600e9054906101000a90046dffffffffffffffffffffffffffff166dffffffffffffffffffffffffffff16856106da9190611e8b565b6106e49190611ef9565b91506106f033856110c4565b61073b33847f000000000000000000000000000000000000000000000000000000000000000073ffffffffffffffffffffffffffffffffffffffff166111439092919063ffffffff16565b61078633837f000000000000000000000000000000000000000000000000000000000000000073ffffffffffffffffffffffffffffffffffffffff166111439092919063ffffffff16565b61078e6111c2565b3373ffffffffffffffffffffffffffffffffffffffff167f59c3a0b60c6ab7deb62e1440c9e72441db6db7dfe514dba8cb18e60c0d896efa8484876040516107d893929190611f29565b60405180910390a250915091565b5f5f831180156107f557505f82115b610834576040517f08c379a000000000000000000000000000000000000000000000000000000000815260040161082b90611fa8565b60405180910390fd5b6108813330857f000000000000000000000000000000000000000000000000000000000000000073ffffffffffffffffffffffffffffffffffffffff1661135b909392919063ffffffff16565b6108ce3330847f000000000000000000000000000000000000000000000000000000000000000073ffffffffffffffffffffffffffffffffffffffff1661135b909392919063ffffffff16565b5f6108d76104b6565b90505f81036108fb576108f483856108ef9190611e8b565b6113dd565b915061098b565b61098860055f9054906101000a90046dffffffffffffffffffffffffffff166dffffffffffffffffffffffffffff1682866109369190611e8b565b6109409190611ef9565b6005600e9054906101000a90046dffffffffffffffffffffffffffff166dffffffffffffffffffffffffffff1683866109799190611e8b565b6109839190611ef9565b611454565b91505b5f82116109cd576040517f08c379a00000000000000000000000000000000000000000000000000000000081526004016109c490611e40565b60405180910390fd5b6109d7338361146c565b6109df6111c2565b3373ffffffffffffffffffffffffffffffffffffffff167fbeb3885786d637a474cbc287c0a44587231633a077f0bd30354d5a4b18996fce858585604051610a2993929190611f29565b60405180910390a25092915050565b5f5f610a42610f28565b9050610a4f818585610fd4565b600191505092915050565b60055f9054906101000a90046dffffffffffffffffffffffffffff1681565b5f60015f8473ffffffffffffffffffffffffffffffffffffffff1673ffffffffffffffffffffffffffffffffffffffff1681526020019081526020015f205f8373ffffffffffffffffffffffffffffffffffffffff1673ffffffffffffffffffffffffffffffffffffffff1681526020019081526020015f2054905092915050565b5f7f000000000000000000000000000000000000000000000000000000000000000073ffffffffffffffffffffffffffffffffffffffff168573ffffffffffffffffffffffffffffffffffffffff161480610ba157507f000000000000000000000000000000000000000000000000000000000000000073ffffffffffffffffffffffffffffffffffffffff168573ffffffffffffffffffffffffffffffffffffffff16145b610be0576040517f08c379a0000000000000000000000000000000000000000000000000000000008152600401610bd790612010565b60405180910390fd5b5f8411610c22576040517f08c379a0000000000000000000000000000000000000000000000000000000008152600401610c1990612078565b60405180910390fd5b5f73ffffffffffffffffffffffffffffffffffffffff168273ffffffffffffffffffffffffffffffffffffffff1603610c90576040517f08c379a0000000000000000000000000000000000000000000000000000000008152600401610c87906120e0565b60405180910390fd5b5f7f000000000000000000000000000000000000000000000000000000000000000073ffffffffffffffffffffffffffffffffffffffff168673ffffffffffffffffffffffffffffffffffffffff161490505f81610d0e577f0000000000000000000000000000000000000000000000000000000000000000610d30565b7f00000000000000000000000000000000000000000000000000000000000000005b90505f5f83610d77576005600e9054906101000a90046dffffffffffffffffffffffffffff1660055f9054906101000a90046dffffffffffffffffffffffffffff16610db1565b60055f9054906101000a90046dffffffffffffffffffffffffffff166005600e9054906101000a90046dffffffffffffffffffffffffffff165b6dffffffffffffffffffffffffffff1691506dffffffffffffffffffffffffffff169150610e0233308a8c73ffffffffffffffffffffffffffffffffffffffff1661135b909392919063ffffffff16565b5f6103e589610e119190611e8b565b9050806103e884610e229190611e8b565b610e2c91906120fe565b8282610e389190611e8b565b610e429190611ef9565b9550878610158015610e5357505f86115b610e92576040517f08c379a0000000000000000000000000000000000000000000000000000000008152600401610e899061217b565b60405180910390fd5b610ebd87878673ffffffffffffffffffffffffffffffffffffffff166111439092919063ffffffff16565b610ec56111c2565b3373ffffffffffffffffffffffffffffffffffffffff167f54787c404bb33c88e86f4baf88183a3b0141d0a848e6a9f7a13b66ae3a9b73d18b868c8a8c604051610f13959493929190612199565b60405180910390a25050505050949350505050565b5f33905090565b610f3c83838360016114eb565b505050565b5f610f4c8484610a79565b90507fffffffffffffffffffffffffffffffffffffffffffffffffffffffffffffffff811015610fce5781811015610fbf578281836040517ffb8f41b2000000000000000000000000000000000000000000000000000000008152600401610fb6939291906121ea565b60405180910390fd5b610fcd84848484035f6114eb565b5b50505050565b5f73ffffffffffffffffffffffffffffffffffffffff168373ffffffffffffffffffffffffffffffffffffffff1603611044575f6040517f96c6fd1e00000000000000000000000000000000000000000000000000000000815260040161103b9190611b5e565b60405180910390fd5b5f73ffffffffffffffffffffffffffffffffffffffff168273ffffffffffffffffffffffffffffffffffffffff16036110b4575f6040517fec442f050000000000000000000000000000000000000000000000000000000081526004016110ab9190611b5e565b60405180910390fd5b6110bf8383836116ba565b505050565b5f73ffffffffffffffffffffffffffffffffffffffff168273ffffffffffffffffffffffffffffffffffffffff1603611134575f6040517f96c6fd1e00000000000000000000000000000000000000000000000000000000815260040161112b9190611b5e565b60405180910390fd5b61113f825f836116ba565b5050565b6111bd838473ffffffffffffffffffffffffffffffffffffffff1663a9059cbb858560405160240161117692919061221f565b604051602081830303815290604052915060e01b6020820180517bffffffffffffffffffffffffffffffffffffffffffffffffffffffff83818316178352505050506118d3565b505050565b7f000000000000000000000000000000000000000000000000000000000000000073ffffffffffffffffffffffffffffffffffffffff166370a08231306040518263ffffffff1660e01b815260040161121b9190611b5e565b602060405180830381865afa158015611236573d5f5f3e3d5ffd5b505050506040513d601f19601f8201168201806040525081019061125a919061225a565b60055f6101000a8154816dffffffffffffffffffffffffffff02191690836dffffffffffffffffffffffffffff1602179055507f000000000000000000000000000000000000000000000000000000000000000073ffffffffffffffffffffffffffffffffffffffff166370a08231306040518263ffffffff1660e01b81526004016112e69190611b5e565b602060405180830381865afa158015611301573d5f5f3e3d5ffd5b505050506040513d601f19601f82011682018060405250810190611325919061225a565b6005600e6101000a8154816dffffffffffffffffffffffffffff02191690836dffffffffffffffffffffffffffff160217905550565b6113d7848573ffffffffffffffffffffffffffffffffffffffff166323b872dd86868660405160240161139093929190612285565b604051602081830303815290604052915060e01b6020820180517bffffffffffffffffffffffffffffffffffffffffffffffffffffffff83818316178352505050506118d3565b50505050565b5f6003821115611442578190505f60016002846113fa9190611ef9565b61140491906120fe565b90505b8181101561143c5780915060028182856114219190611ef9565b61142b91906120fe565b6114359190611ef9565b9050611407565b5061144f565b5f821461144e57600190505b5b919050565b5f8183106114625781611464565b825b905092915050565b5f73ffffffffffffffffffffffffffffffffffffffff168273ffffffffffffffffffffffffffffffffffffffff16036114dc575f6040517fec442f050000000000000000000000000000000000000000000000000000000081526004016114d39190611b5e565b60405180910390fd5b6114e75f83836116ba565b5050565b5f73ffffffffffffffffffffffffffffffffffffffff168473ffffffffffffffffffffffffffffffffffffffff160361155b575f6040517fe602df050000000000000000000000000000000000000000000000000000000081526004016115529190611b5e565b60405180910390fd5b5f73ffffffffffffffffffffffffffffffffffffffff168373ffffffffffffffffffffffffffffffffffffffff16036115cb575f6040517f94280d620000000000000000000000000000000000000000000000000000000081526004016115c29190611b5e565b60405180910390fd5b8160015f8673ffffffffffffffffffffffffffffffffffffffff1673ffffffffffffffffffffffffffffffffffffffff1681526020019081526020015f205f8573ffffffffffffffffffffffffffffffffffffffff1673ffffffffffffffffffffffffffffffffffffffff1681526020019081526020015f208190555080156116b4578273ffffffffffffffffffffffffffffffffffffffff168473ffffffffffffffffffffffffffffffffffffffff167f8c5be1e5ebec7d5bd14f71427d1e84f3dd0314c0f7b2291e5b200ac8c7c3b925846040516116ab9190611b86565b60405180910390a35b50505050565b5f73ffffffffffffffffffffffffffffffffffffffff168373ffffffffffffffffffffffffffffffffffffffff160361170a578060025f8282546116fe91906120fe565b925050819055506117d8565b5f5f5f8573ffffffffffffffffffffffffffffffffffffffff1673ffffffffffffffffffffffffffffffffffffffff1681526020019081526020015f2054905081811015611793578381836040517fe450d38c00000000000000000000000000000000000000000000000000000000815260040161178a939291906121ea565b60405180910390fd5b8181035f5f8673ffffffffffffffffffffffffffffffffffffffff1673ffffffffffffffffffffffffffffffffffffffff1681526020019081526020015f2081905550505b5f73ffffffffffffffffffffffffffffffffffffffff168273ffffffffffffffffffffffffffffffffffffffff160361181f578060025f8282540392505081905550611869565b805f5f8473ffffffffffffffffffffffffffffffffffffffff1673ffffffffffffffffffffffffffffffffffffffff1681526020019081526020015f205f82825401925050819055505b8173ffffffffffffffffffffffffffffffffffffffff168373ffffffffffffffffffffffffffffffffffffffff167fddf252ad1be2c89b69c2b068fc378daa952ba7f163c4a11628f55a4df523b3ef836040516118c69190611b86565b60405180910390a3505050565b5f5f60205f8451602086015f885af1806118f2576040513d5f823e3d81fd5b3d92505f519150505f821461190b576001811415611926565b5f8473ffffffffffffffffffffffffffffffffffffffff163b145b1561196857836040517f5274afe700000000000000000000000000000000000000000000000000000000815260040161195f9190611b5e565b60405180910390fd5b50505050565b5f81519050919050565b5f82825260208201905092915050565b8281835e5f83830152505050565b5f601f19601f8301169050919050565b5f6119b08261196e565b6119ba8185611978565b93506119ca818560208601611988565b6119d381611996565b840191505092915050565b5f6020820190508181035f8301526119f681846119a6565b905092915050565b5f6dffffffffffffffffffffffffffff82169050919050565b611a20816119fe565b82525050565b5f604082019050611a395f830185611a17565b611a466020830184611a17565b9392505050565b5f5ffd5b5f73ffffffffffffffffffffffffffffffffffffffff82169050919050565b5f611a7a82611a51565b9050919050565b611a8a81611a70565b8114611a94575f5ffd5b50565b5f81359050611aa581611a81565b92915050565b5f819050919050565b611abd81611aab565b8114611ac7575f5ffd5b50565b5f81359050611ad881611ab4565b92915050565b5f5f60408385031215611af457611af3611a4d565b5b5f611b0185828601611a97565b9250506020611b1285828601611aca565b9150509250929050565b5f8115159050919050565b611b3081611b1c565b82525050565b5f602082019050611b495f830184611b27565b92915050565b611b5881611a70565b82525050565b5f602082019050611b715f830184611b4f565b92915050565b611b8081611aab565b82525050565b5f602082019050611b995f830184611b77565b92915050565b5f602082019050611bb25f830184611a17565b92915050565b5f5f5f60608486031215611bcf57611bce611a4d565b5b5f611bdc86828701611a97565b9350506020611bed86828701611a97565b9250506040611bfe86828701611aca565b9150509250925092565b5f60ff82169050919050565b611c1d81611c08565b82525050565b5f602082019050611c365f830184611c14565b92915050565b5f60208284031215611c5157611c50611a4d565b5b5f611c5e84828501611a97565b91505092915050565b5f60208284031215611c7c57611c7b611a4d565b5b5f611c8984828501611aca565b91505092915050565b5f604082019050611ca55f830185611b77565b611cb26020830184611b77565b9392505050565b5f5f60408385031215611ccf57611cce611a4d565b5b5f611cdc85828601611aca565b9250506020611ced85828601611aca565b9150509250929050565b5f5f60408385031215611d0d57611d0c611a4d565b5b5f611d1a85828601611a97565b9250506020611d2b85828601611a97565b9150509250929050565b5f5f5f5f60808587031215611d4d57611d4c611a4d565b5b5f611d5a87828801611a97565b9450506020611d6b87828801611aca565b9350506040611d7c87828801611aca565b9250506060611d8d87828801611a97565b91505092959194509250565b7f4e487b71000000000000000000000000000000000000000000000000000000005f52602260045260245ffd5b5f6002820490506001821680611ddd57607f821691505b602082108103611df057611def611d99565b5b50919050565b7f4c503000000000000000000000000000000000000000000000000000000000005f82015250565b5f611e2a600383611978565b9150611e3582611df6565b602082019050919050565b5f6020820190508181035f830152611e5781611e1e565b9050919050565b7f4e487b71000000000000000000000000000000000000000000000000000000005f52601160045260245ffd5b5f611e9582611aab565b9150611ea083611aab565b9250828202611eae81611aab565b91508282048414831517611ec557611ec4611e5e565b5b5092915050565b7f4e487b71000000000000000000000000000000000000000000000000000000005f52601260045260245ffd5b5f611f0382611aab565b9150611f0e83611aab565b925082611f1e57611f1d611ecc565b5b828204905092915050565b5f606082019050611f3c5f830186611b77565b611f496020830185611b77565b611f566040830184611b77565b949350505050565b7f414d4f554e5453000000000000000000000000000000000000000000000000005f82015250565b5f611f92600783611978565b9150611f9d82611f5e565b602082019050919050565b5f6020820190508181035f830152611fbf81611f86565b9050919050565b7f544f4b454e0000000000000000000000000000000000000000000000000000005f82015250565b5f611ffa600583611978565b915061200582611fc6565b602082019050919050565b5f6020820190508181035f83015261202781611fee565b9050919050565b7f494e3000000000000000000000000000000000000000000000000000000000005f82015250565b5f612062600383611978565b915061206d8261202e565b602082019050919050565b5f6020820190508181035f83015261208f81612056565b9050919050565b7f544f3000000000000000000000000000000000000000000000000000000000005f82015250565b5f6120ca600383611978565b91506120d582612096565b602082019050919050565b5f6020820190508181035f8301526120f7816120be565b9050919050565b5f61210882611aab565b915061211383611aab565b925082820190508082111561212b5761212a611e5e565b5b92915050565b7f534c4950504147450000000000000000000000000000000000000000000000005f82015250565b5f612165600883611978565b915061217082612131565b602082019050919050565b5f6020820190508181035f83015261219281612159565b9050919050565b5f60a0820190506121ac5f830188611b4f565b6121b96020830187611b4f565b6121c66040830186611b77565b6121d36060830185611b77565b6121e06080830184611b4f565b9695505050505050565b5f6060820190506121fd5f830186611b4f565b61220a6020830185611b77565b6122176040830184611b77565b949350505050565b5f6040820190506122325f830185611b4f565b61223f6020830184611b77565b9392505050565b5f8151905061225481611ab4565b92915050565b5f6020828403121561226f5761226e611a4d565b5b5f61227c84828501612246565b91505092915050565b5f6060820190506122985f830186611b4f565b6122a56020830185611b4f565b6122b26040830184611b77565b94935050505056fea2646970667358221220faa3a699e59edb5ac54ef8c038b8f53107e5c51d7b0e8b6ee13654217fbf83b464736f6c634300081f0033",
					"opcodes": "PUSH1 0xC0 PUSH1 0x40 MSTORE CALLVALUE DUP1 ISZERO PUSH2 0xF JUMPI PUSH0 PUSH0 REVERT JUMPDEST POP PUSH1 0x40 MLOAD PUSH2 0x2957 CODESIZE SUB DUP1 PUSH2 0x2957 DUP4 CODECOPY DUP2 DUP2 ADD PUSH1 0x40 MSTORE DUP2 ADD SWAP1 PUSH2 0x31 SWAP2 SWAP1 PUSH2 0x237 JUMP JUMPDEST PUSH1 0x40 MLOAD DUP1 PUSH1 0x40 ADD PUSH1 0x40 MSTORE DUP1 PUSH1 0x8 DUP2 MSTORE PUSH1 0x20 ADD PUSH32 0x4C5020746F6B656E000000000000000000000000000000000000000000000000 DUP2 MSTORE POP PUSH1 0x40 MLOAD DUP1 PUSH1 0x40 ADD PUSH1 0x40 MSTORE DUP1 PUSH1 0x2 DUP2 MSTORE PUSH1 0x20 ADD PUSH32 0x4C50000000000000000000000000000000000000000000000000000000000000 DUP2 MSTORE POP DUP2 PUSH1 0x3 SWAP1 DUP2 PUSH2 0xAC SWAP2 SWAP1 PUSH2 0x4B2 JUMP JUMPDEST POP DUP1 PUSH1 0x4 SWAP1 DUP2 PUSH2 0xBC SWAP2 SWAP1 PUSH2 0x4B2 JUMP JUMPDEST POP POP POP DUP1 PUSH20 0xFFFFFFFFFFFFFFFFFFFFFFFFFFFFFFFFFFFFFFFF AND DUP3 PUSH20 0xFFFFFFFFFFFFFFFFFFFFFFFFFFFFFFFFFFFFFFFF AND SUB PUSH2 0x12D JUMPI PUSH1 0x40 MLOAD PUSH32 0x8C379A000000000000000000000000000000000000000000000000000000000 DUP2 MSTORE PUSH1 0x4 ADD PUSH2 0x124 SWAP1 PUSH2 0x5DB JUMP JUMPDEST PUSH1 0x40 MLOAD DUP1 SWAP2 SUB SWAP1 REVERT JUMPDEST DUP1 PUSH20 0xFFFFFFFFFFFFFFFFFFFFFFFFFFFFFFFFFFFFFFFF AND DUP3 PUSH20 0xFFFFFFFFFFFFFFFFFFFFFFFFFFFFFFFFFFFFFFFF AND LT PUSH2 0x167 JUMPI DUP1 DUP3 PUSH2 0x16A JUMP JUMPDEST DUP2 DUP2 JUMPDEST DUP1 PUSH20 0xFFFFFFFFFFFFFFFFFFFFFFFFFFFFFFFFFFFFFFFF AND PUSH1 0xA0 SWAP1 PUSH20 0xFFFFFFFFFFFFFFFFFFFFFFFFFFFFFFFFFFFFFFFF AND DUP2 MSTORE POP DUP2 PUSH20 0xFFFFFFFFFFFFFFFFFFFFFFFFFFFFFFFFFFFFFFFF AND PUSH1 0x80 SWAP1 PUSH20 0xFFFFFFFFFFFFFFFFFFFFFFFFFFFFFFFFFFFFFFFF AND DUP2 MSTORE POP POP POP POP POP PUSH2 0x5F9 JUMP JUMPDEST PUSH0 PUSH0 REVERT JUMPDEST PUSH0 PUSH20 0xFFFFFFFFFFFFFFFFFFFFFFFFFFFFFFFFFFFFFFFF DUP3 AND SWAP1 POP SWAP2 SWAP1 POP JUMP JUMPDEST PUSH0 PUSH2 0x206 DUP3 PUSH2 0x1DD JUMP JUMPDEST SWAP1 POP SWAP2 SWAP1 POP JUMP JUMPDEST PUSH2 0x216 DUP2 PUSH2 0x1FC JUMP JUMPDEST DUP2 EQ PUSH2 0x220 JUMPI PUSH0 PUSH0 REVERT JUMPDEST POP JUMP JUMPDEST PUSH0 DUP2 MLOAD SWAP1 POP PUSH2 0x231 DUP2 PUSH2 0x20D JUMP JUMPDEST SWAP3 SWAP2 POP POP JUMP JUMPDEST PUSH0 PUSH0 PUSH1 0x40 DUP4 DUP6 SUB SLT ISZERO PUSH2 0x24D JUMPI PUSH2 0x24C PUSH2 0x1D9 JUMP JUMPDEST JUMPDEST PUSH0 PUSH2 0x25A DUP6 DUP3 DUP7 ADD PUSH2 0x223 JUMP JUMPDEST SWAP3 POP POP PUSH1 0x20 PUSH2 0x26B DUP6 DUP3 DUP7 ADD PUSH2 0x223 JUMP JUMPDEST SWAP2 POP POP SWAP3 POP SWAP3 SWAP1 POP JUMP JUMPDEST PUSH0 DUP2 MLOAD SWAP1 POP SWAP2 SWAP1 POP JUMP JUMPDEST PUSH32 0x4E487B7100000000000000000000000000000000000000000000000000000000 PUSH0 MSTORE PUSH1 0x41 PUSH1 0x4 MSTORE PUSH1 0x24 PUSH0 REVERT JUMPDEST PUSH32 0x4E487B7100000000000000000000000000000000000000000000000000000000 PUSH0 MSTORE PUSH1 0x22 PUSH1 0x4 MSTORE PUSH1 0x24 PUSH0 REVERT JUMPDEST PUSH0 PUSH1 0x2 DUP3 DIV SWAP1 POP PUSH1 0x1 DUP3 AND DUP1 PUSH2 0x2F0 JUMPI PUSH1 0x7F DUP3 AND SWAP2 POP JUMPDEST PUSH1 0x20 DUP3 LT DUP2 SUB PUSH2 0x303 JUMPI PUSH2 0x302 PUSH2 0x2AC JUMP JUMPDEST JUMPDEST POP SWAP2 SWAP1 POP JUMP JUMPDEST PUSH0 DUP2 SWAP1 POP DUP2 PUSH0 MSTORE PUSH1 0x20 PUSH0 KECCAK256 SWAP1 POP SWAP2 SWAP1 POP JUMP JUMPDEST PUSH0 PUSH1 0x20 PUSH1 0x1F DUP4 ADD DIV SWAP1 POP SWAP2 SWAP1 POP JUMP JUMPDEST PUSH0 DUP3 DUP3 SHL SWAP1 POP SWAP3 SWAP2 POP POP JUMP JUMPDEST PUSH0 PUSH1 0x8 DUP4 MUL PUSH2 0x365 PUSH32 0xFFFFFFFFFFFFFFFFFFFFFFFFFFFFFFFFFFFFFFFFFFFFFFFFFFFFFFFFFFFFFFFF DUP3 PUSH2 0x32A JUMP JUMPDEST PUSH2 0x36F DUP7 DUP4 PUSH2 0x32A JUMP JUMPDEST SWAP6 POP DUP1 NOT DUP5 AND SWAP4 POP DUP1 DUP7 AND DUP5 OR SWAP3 POP POP POP SWAP4 SWAP3 POP POP POP JUMP JUMPDEST PUSH0 DUP2 SWAP1 POP SWAP2 SWAP1 POP JUMP JUMPDEST PUSH0 DUP2 SWAP1 POP SWAP2 SWAP1 POP JUMP JUMPDEST PUSH0 PUSH2 0x3B3 PUSH2 0x3AE PUSH2 0x3A9 DUP5 PUSH2 0x387 JUMP JUMPDEST PUSH2 0x390 JUMP JUMPDEST PUSH2 0x387 JUMP JUMPDEST SWAP1 POP SWAP2 SWAP1 POP JUMP JUMPDEST PUSH0 DUP2 SWAP1 POP SWAP2 SWAP1 POP JUMP JUMPDEST PUSH2 0x3CC DUP4 PUSH2 0x399 JUMP JUMPDEST PUSH2 0x3E0 PUSH2 0x3D8 DUP3 PUSH2 0x3BA JUMP JUMPDEST DUP5 DUP5 SLOAD PUSH2 0x336 JUMP JUMPDEST DUP3 SSTORE POP POP POP POP JUMP JUMPDEST PUSH0 PUSH0 SWAP1 POP SWAP1 JUMP JUMPDEST PUSH2 0x3F7 PUSH2 0x3E8 JUMP JUMPDEST PUSH2 0x402 DUP2 DUP5 DUP5 PUSH2 0x3C3 JUMP JUMPDEST POP POP POP JUMP JUMPDEST JUMPDEST DUP2 DUP2 LT ISZERO PUSH2 0x425 JUMPI PUSH2 0x41A PUSH0 DUP3 PUSH2 0x3EF JUMP JUMPDEST PUSH1 0x1 DUP2 ADD SWAP1 POP PUSH2 0x408 JUMP JUMPDEST POP POP JUMP JUMPDEST PUSH1 0x1F DUP3 GT ISZERO PUSH2 0x46A JUMPI PUSH2 0x43B DUP2 PUSH2 0x309 JUMP JUMPDEST PUSH2 0x444 DUP5 PUSH2 0x31B JUMP JUMPDEST DUP2 ADD PUSH1 0x20 DUP6 LT ISZERO PUSH2 0x453 JUMPI DUP2 SWAP1 POP JUMPDEST PUSH2 0x467 PUSH2 0x45F DUP6 PUSH2 0x31B JUMP JUMPDEST DUP4 ADD DUP3 PUSH2 0x407 JUMP JUMPDEST POP POP JUMPDEST POP POP POP JUMP JUMPDEST PUSH0 DUP3 DUP3 SHR SWAP1 POP SWAP3 SWAP2 POP POP JUMP JUMPDEST PUSH0 PUSH2 0x48A PUSH0 NOT DUP5 PUSH1 0x8 MUL PUSH2 0x46F JUMP JUMPDEST NOT DUP1 DUP4 AND SWAP2 POP POP SWAP3 SWAP2 POP POP JUMP JUMPDEST PUSH0 PUSH2 0x4A2 DUP4 DUP4 PUSH2 0x47B JUMP JUMPDEST SWAP2 POP DUP3 PUSH1 0x2 MUL DUP3 OR SWAP1 POP SWAP3 SWAP2 POP POP JUMP JUMPDEST PUSH2 0x4BB DUP3 PUSH2 0x275 JUMP JUMPDEST PUSH8 0xFFFFFFFFFFFFFFFF DUP2 GT ISZERO PUSH2 0x4D4 JUMPI PUSH2 0x4D3 PUSH2 0x27F JUMP JUMPDEST JUMPDEST PUSH2 0x4DE DUP3 SLOAD PUSH2 0x2D9 JUMP JUMPDEST PUSH2 0x4E9 DUP3 DUP3 DUP6 PUSH2 0x429 JUMP JUMPDEST PUSH0 PUSH1 0x20 SWAP1 POP PUSH1 0x1F DUP4 GT PUSH1 0x1 DUP2 EQ PUSH2 0x51A JUMPI PUSH0 DUP5 ISZERO PUSH2 0x508 JUMPI DUP3 DUP8 ADD MLOAD SWAP1 POP JUMPDEST PUSH2 0x512 DUP6 DUP3 PUSH2 0x497 JUMP JUMPDEST DUP7 SSTORE POP PUSH2 0x579 JUMP JUMPDEST PUSH1 0x1F NOT DUP5 AND PUSH2 0x528 DUP7 PUSH2 0x309 JUMP JUMPDEST PUSH0 JUMPDEST DUP3 DUP2 LT ISZERO PUSH2 0x54F JUMPI DUP5 DUP10 ADD MLOAD DUP3 SSTORE PUSH1 0x1 DUP3 ADD SWAP2 POP PUSH1 0x20 DUP6 ADD SWAP5 POP PUSH1 0x20 DUP2 ADD SWAP1 POP PUSH2 0x52A JUMP JUMPDEST DUP7 DUP4 LT ISZERO PUSH2 0x56C JUMPI DUP5 DUP10 ADD MLOAD PUSH2 0x568 PUSH1 0x1F DUP10 AND DUP3 PUSH2 0x47B JUMP JUMPDEST DUP4 SSTORE POP JUMPDEST PUSH1 0x1 PUSH1 0x2 DUP9 MUL ADD DUP9 SSTORE POP POP POP JUMPDEST POP POP POP POP POP POP JUMP JUMPDEST PUSH0 DUP3 DUP3 MSTORE PUSH1 0x20 DUP3 ADD SWAP1 POP SWAP3 SWAP2 POP POP JUMP JUMPDEST PUSH32 0x426F746820616464726573736573206172652073616D65000000000000000000 PUSH0 DUP3 ADD MSTORE POP JUMP JUMPDEST PUSH0 PUSH2 0x5C5 PUSH1 0x17 DUP4 PUSH2 0x581 JUMP JUMPDEST SWAP2 POP PUSH2 0x5D0 DUP3 PUSH2 0x591 JUMP JUMPDEST PUSH1 0x20 DUP3 ADD SWAP1 POP SWAP2 SWAP1 POP JUMP JUMPDEST PUSH0 PUSH1 0x20 DUP3 ADD SWAP1 POP DUP2 DUP2 SUB PUSH0 DUP4 ADD MSTORE PUSH2 0x5F2 DUP2 PUSH2 0x5B9 JUMP JUMPDEST SWAP1 POP SWAP2 SWAP1 POP JUMP JUMPDEST PUSH1 0x80 MLOAD PUSH1 0xA0 MLOAD PUSH2 0x22F0 PUSH2 0x667 PUSH0 CODECOPY PUSH0 DUP2 DUP2 PUSH2 0x517 ADD MSTORE DUP2 DUP2 PUSH2 0x742 ADD MSTORE DUP2 DUP2 PUSH2 0x889 ADD MSTORE DUP2 DUP2 PUSH2 0xB53 ADD MSTORE DUP2 DUP2 PUSH2 0xD10 ADD MSTORE PUSH2 0x128F ADD MSTORE PUSH0 DUP2 DUP2 PUSH2 0x494 ADD MSTORE DUP2 DUP2 PUSH2 0x6F7 ADD MSTORE DUP2 DUP2 PUSH2 0x83C ADD MSTORE DUP2 DUP2 PUSH2 0xAFE ADD MSTORE DUP2 DUP2 PUSH2 0xC93 ADD MSTORE DUP2 DUP2 PUSH2 0xCEA ADD MSTORE PUSH2 0x11C4 ADD MSTORE PUSH2 0x22F0 PUSH0 RETURN INVALID PUSH1 0x80 PUSH1 0x40 MSTORE CALLVALUE DUP1 ISZERO PUSH2 0xF JUMPI PUSH0 PUSH0 REVERT JUMPDEST POP PUSH1 0x4 CALLDATASIZE LT PUSH2 0x109 JUMPI PUSH0 CALLDATALOAD PUSH1 0xE0 SHR DUP1 PUSH4 0x5F64B55B GT PUSH2 0xA0 JUMPI DUP1 PUSH4 0x9CD441DA GT PUSH2 0x6F JUMPI DUP1 PUSH4 0x9CD441DA EQ PUSH2 0x2BF JUMPI DUP1 PUSH4 0xA9059CBB EQ PUSH2 0x2EF JUMPI DUP1 PUSH4 0xDC5FA6C5 EQ PUSH2 0x31F JUMPI DUP1 PUSH4 0xDD62ED3E EQ PUSH2 0x33D JUMPI DUP1 PUSH4 0xF3E6EA8A EQ PUSH2 0x36D JUMPI PUSH2 0x109 JUMP JUMPDEST DUP1 PUSH4 0x5F64B55B EQ PUSH2 0x222 JUMPI DUP1 PUSH4 0x70A08231 EQ PUSH2 0x240 JUMPI DUP1 PUSH4 0x95D89B41 EQ PUSH2 0x270 JUMPI DUP1 PUSH4 0x9C8F9F23 EQ PUSH2 0x28E JUMPI PUSH2 0x109 JUMP JUMPDEST DUP1 PUSH4 0x18160DDD GT PUSH2 0xDC JUMPI DUP1 PUSH4 0x18160DDD EQ PUSH2 0x198 JUMPI DUP1 PUSH4 0x19E36F3B EQ PUSH2 0x1B6 JUMPI DUP1 PUSH4 0x23B872DD EQ PUSH2 0x1D4 JUMPI DUP1 PUSH4 0x313CE567 EQ PUSH2 0x204 JUMPI PUSH2 0x109 JUMP JUMPDEST DUP1 PUSH4 0x6FDDE03 EQ PUSH2 0x10D JUMPI DUP1 PUSH4 0x902F1AC EQ PUSH2 0x12B JUMPI DUP1 PUSH4 0x95EA7B3 EQ PUSH2 0x14A JUMPI DUP1 PUSH4 0xFC63D10 EQ PUSH2 0x17A JUMPI JUMPDEST PUSH0 PUSH0 REVERT JUMPDEST PUSH2 0x115 PUSH2 0x39D JUMP JUMPDEST PUSH1 0x40 MLOAD PUSH2 0x122 SWAP2 SWAP1 PUSH2 0x19DE JUMP JUMPDEST PUSH1 0x40 MLOAD DUP1 SWAP2 SUB SWAP1 RETURN JUMPDEST PUSH2 0x133 PUSH2 0x42D JUMP JUMPDEST PUSH1 0x40 MLOAD PUSH2 0x141 SWAP3 SWAP2 SWAP1 PUSH2 0x1A26 JUMP JUMPDEST PUSH1 0x40 MLOAD DUP1 SWAP2 SUB SWAP1 RETURN JUMPDEST PUSH2 0x164 PUSH1 0x4 DUP1 CALLDATASIZE SUB DUP2 ADD SWAP1 PUSH2 0x15F SWAP2 SWAP1 PUSH2 0x1ADE JUMP JUMPDEST PUSH2 0x470 JUMP JUMPDEST PUSH1 0x40 MLOAD PUSH2 0x171 SWAP2 SWAP1 PUSH2 0x1B36 JUMP JUMPDEST PUSH1 0x40 MLOAD DUP1 SWAP2 SUB SWAP1 RETURN JUMPDEST PUSH2 0x182 PUSH2 0x492 JUMP JUMPDEST PUSH1 0x40 MLOAD PUSH2 0x18F SWAP2 SWAP1 PUSH2 0x1B5E JUMP JUMPDEST PUSH1 0x40 MLOAD DUP1 SWAP2 SUB SWAP1 RETURN JUMPDEST PUSH2 0x1A0 PUSH2 0x4B6 JUMP JUMPDEST PUSH1 0x40 MLOAD PUSH2 0x1AD SWAP2 SWAP1 PUSH2 0x1B86 JUMP JUMPDEST PUSH1 0x40 MLOAD DUP1 SWAP2 SUB SWAP1 RETURN JUMPDEST PUSH2 0x1BE PUSH2 0x4BF JUMP JUMPDEST PUSH1 0x40 MLOAD PUSH2 0x1CB SWAP2 SWAP1 PUSH2 0x1B9F JUMP JUMPDEST PUSH1 0x40 MLOAD DUP1 SWAP2 SUB SWAP1 RETURN JUMPDEST PUSH2 0x1EE PUSH1 0x4 DUP1 CALLDATASIZE SUB DUP2 ADD SWAP1 PUSH2 0x1E9 SWAP2 SWAP1 PUSH2 0x1BB8 JUMP JUMPDEST PUSH2 0x4DF JUMP JUMPDEST PUSH1 0x40 MLOAD PUSH2 0x1FB SWAP2 SWAP1 PUSH2 0x1B36 JUMP JUMPDEST PUSH1 0x40 MLOAD DUP1 SWAP2 SUB SWAP1 RETURN JUMPDEST PUSH2 0x20C PUSH2 0x50D JUMP JUMPDEST PUSH1 0x40 MLOAD PUSH2 0x219 SWAP2 SWAP1 PUSH2 0x1C23 JUMP JUMPDEST PUSH1 0x40 MLOAD DUP1 SWAP2 SUB SWAP1 RETURN JUMPDEST PUSH2 0x22A PUSH2 0x515 JUMP JUMPDEST PUSH1 0x40 MLOAD PUSH2 0x237 SWAP2 SWAP1 PUSH2 0x1B5E JUMP JUMPDEST PUSH1 0x40 MLOAD DUP1 SWAP2 SUB SWAP1 RETURN JUMPDEST PUSH2 0x25A PUSH1 0x4 DUP1 CALLDATASIZE SUB DUP2 ADD SWAP1 PUSH2 0x255 SWAP2 SWAP1 PUSH2 0x1C3C JUMP JUMPDEST PUSH2 0x539 JUMP JUMPDEST PUSH1 0x40 MLOAD PUSH2 0x267 SWAP2 SWAP1 PUSH2 0x1B86 JUMP JUMPDEST PUSH1 0x40 MLOAD DUP1 SWAP2 SUB SWAP1 RETURN JUMPDEST PUSH2 0x278 PUSH2 0x57E JUMP JUMPDEST PUSH1 0x40 MLOAD PUSH2 0x285 SWAP2 SWAP1 PUSH2 0x19DE JUMP JUMPDEST PUSH1 0x40 MLOAD DUP1 SWAP2 SUB SWAP1 RETURN JUMPDEST PUSH2 0x2A8 PUSH1 0x4 DUP1 CALLDATASIZE SUB DUP2 ADD SWAP1 PUSH2 0x2A3 SWAP2 SWAP1 PUSH2 0x1C67 JUMP JUMPDEST PUSH2 0x60E JUMP JUMPDEST PUSH1 0x40 MLOAD PUSH2 0x2B6 SWAP3 SWAP2 SWAP1 PUSH2 0x1C92 JUMP JUMPDEST PUSH1 0x40 MLOAD DUP1 SWAP2 SUB SWAP1 RETURN JUMPDEST PUSH2 0x2D9 PUSH1 0x4 DUP1 CALLDATASIZE SUB DUP2 ADD SWAP1 PUSH2 0x2D4 SWAP2 SWAP1 PUSH2 0x1CB9 JUMP JUMPDEST PUSH2 0x7E6 JUMP JUMPDEST PUSH1 0x40 MLOAD PUSH2 0x2E6 SWAP2 SWAP1 PUSH2 0x1B86 JUMP JUMPDEST PUSH1 0x40 MLOAD DUP1 SWAP2 SUB SWAP1 RETURN JUMPDEST PUSH2 0x309 PUSH1 0x4 DUP1 CALLDATASIZE SUB DUP2 ADD SWAP1 PUSH2 0x304 SWAP2 SWAP1 PUSH2 0x1ADE JUMP JUMPDEST PUSH2 0xA38 JUMP JUMPDEST PUSH1 0x40 MLOAD PUSH2 0x316 SWAP2 SWAP1 PUSH2 0x1B36 JUMP JUMPDEST PUSH1 0x40 MLOAD DUP1 SWAP2 SUB SWAP1 RETURN JUMPDEST PUSH2 0x327 PUSH2 0xA5A JUMP JUMPDEST PUSH1 0x40 MLOAD PUSH2 0x334 SWAP2 SWAP1 PUSH2 0x1B9F JUMP JUMPDEST PUSH1 0x40 MLOAD DUP1 SWAP2 SUB SWAP1 RETURN JUMPDEST PUSH2 0x357 PUSH1 0x4 DUP1 CALLDATASIZE SUB DUP2 ADD SWAP1 PUSH2 0x352 SWAP2 SWAP1 PUSH2 0x1CF7 JUMP JUMPDEST PUSH2 0xA79 JUMP JUMPDEST PUSH1 0x40 MLOAD PUSH2 0x364 SWAP2 SWAP1 PUSH2 0x1B86 JUMP JUMPDEST PUSH1 0x40 MLOAD DUP1 SWAP2 SUB SWAP1 RETURN JUMPDEST PUSH2 0x387 PUSH1 0x4 DUP1 CALLDATASIZE SUB DUP2 ADD SWAP1 PUSH2 0x382 SWAP2 SWAP1 PUSH2 0x1D35 JUMP JUMPDEST PUSH2 0xAFB JUMP JUMPDEST PUSH1 0x40 MLOAD PUSH2 0x394 SWAP2 SWAP1 PUSH2 0x1B86 JUMP JUMPDEST PUSH1 0x40 MLOAD DUP1 SWAP2 SUB SWAP1 RETURN JUMPDEST PUSH1 0x60 PUSH1 0x3 DUP1 SLOAD PUSH2 0x3AC SWAP1 PUSH2 0x1DC6 JUMP JUMPDEST DUP1 PUSH1 0x1F ADD PUSH1 0x20 DUP1 SWAP2 DIV MUL PUSH1 0x20 ADD PUSH1 0x40 MLOAD SWAP1 DUP2 ADD PUSH1 0x40 MSTORE DUP1 SWAP3 SWAP2 SWAP1 DUP2 DUP2 MSTORE PUSH1 0x20 ADD DUP3 DUP1 SLOAD PUSH2 0x3D8 SWAP1 PUSH2 0x1DC6 JUMP JUMPDEST DUP1 ISZERO PUSH2 0x423 JUMPI DUP1 PUSH1 0x1F LT PUSH2 0x3FA JUMPI PUSH2 0x100 DUP1 DUP4 SLOAD DIV MUL DUP4 MSTORE SWAP2 PUSH1 0x20 ADD SWAP2 PUSH2 0x423 JUMP JUMPDEST DUP3 ADD SWAP2 SWAP1 PUSH0 MSTORE PUSH1 0x20 PUSH0 KECCAK256 SWAP1 JUMPDEST DUP2 SLOAD DUP2 MSTORE SWAP1 PUSH1 0x1 ADD SWAP1 PUSH1 0x20 ADD DUP1 DUP4 GT PUSH2 0x406 JUMPI DUP3 SWAP1 SUB PUSH1 0x1F AND DUP3 ADD SWAP2 JUMPDEST POP POP POP POP POP SWAP1 POP SWAP1 JUMP JUMPDEST PUSH0 PUSH0 PUSH1 0x5 PUSH0 SWAP1 SLOAD SWAP1 PUSH2 0x100 EXP SWAP1 DIV PUSH14 0xFFFFFFFFFFFFFFFFFFFFFFFFFFFF AND PUSH1 0x5 PUSH1 0xE SWAP1 SLOAD SWAP1 PUSH2 0x100 EXP SWAP1 DIV PUSH14 0xFFFFFFFFFFFFFFFFFFFFFFFFFFFF AND SWAP2 POP SWAP2 POP SWAP1 SWAP2 JUMP JUMPDEST PUSH0 PUSH0 PUSH2 0x47A PUSH2 0xF28 JUMP JUMPDEST SWAP1 POP PUSH2 0x487 DUP2 DUP6 DUP6 PUSH2 0xF2F JUMP JUMPDEST PUSH1 0x1 SWAP2 POP POP SWAP3 SWAP2 POP POP JUMP JUMPDEST PUSH32 0x0 DUP2 JUMP JUMPDEST PUSH0 PUSH1 0x2 SLOAD SWAP1 POP SWAP1 JUMP JUMPDEST PUSH1 0x5 PUSH1 0xE SWAP1 SLOAD SWAP1 PUSH2 0x100 EXP SWAP1 DIV PUSH14 0xFFFFFFFFFFFFFFFFFFFFFFFFFFFF AND DUP2 JUMP JUMPDEST PUSH0 PUSH0 PUSH2 0x4E9 PUSH2 0xF28 JUMP JUMPDEST SWAP1 POP PUSH2 0x4F6 DUP6 DUP3 DUP6 PUSH2 0xF41 JUMP JUMPDEST PUSH2 0x501 DUP6 DUP6 DUP6 PUSH2 0xFD4 JUMP JUMPDEST PUSH1 0x1 SWAP2 POP POP SWAP4 SWAP3 POP POP POP JUMP JUMPDEST PUSH0 PUSH1 0x12 SWAP1 POP SWAP1 JUMP JUMPDEST PUSH32 0x0 DUP2 JUMP JUMPDEST PUSH0 PUSH0 PUSH0 DUP4 PUSH20 0xFFFFFFFFFFFFFFFFFFFFFFFFFFFFFFFFFFFFFFFF AND PUSH20 0xFFFFFFFFFFFFFFFFFFFFFFFFFFFFFFFFFFFFFFFF AND DUP2 MSTORE PUSH1 0x20 ADD SWAP1 DUP2 MSTORE PUSH1 0x20 ADD PUSH0 KECCAK256 SLOAD SWAP1 POP SWAP2 SWAP1 POP JUMP JUMPDEST PUSH1 0x60 PUSH1 0x4 DUP1 SLOAD PUSH2 0x58D SWAP1 PUSH2 0x1DC6 JUMP JUMPDEST DUP1 PUSH1 0x1F ADD PUSH1 0x20 DUP1 SWAP2 DIV MUL PUSH1 0x20 ADD PUSH1 0x40 MLOAD SWAP1 DUP2 ADD PUSH1 0x40 MSTORE DUP1 SWAP3 SWAP2 SWAP1 DUP2 DUP2 MSTORE PUSH1 0x20 ADD DUP3 DUP1 SLOAD PUSH2 0x5B9 SWAP1 PUSH2 0x1DC6 JUMP JUMPDEST DUP1 ISZERO PUSH2 0x604 JUMPI DUP1 PUSH1 0x1F LT PUSH2 0x5DB JUMPI PUSH2 0x100 DUP1 DUP4 SLOAD DIV MUL DUP4 MSTORE SWAP2 PUSH1 0x20 ADD SWAP2 PUSH2 0x604 JUMP JUMPDEST DUP3 ADD SWAP2 SWAP1 PUSH0 MSTORE PUSH1 0x20 PUSH0 KECCAK256 SWAP1 JUMPDEST DUP2 SLOAD DUP2 MSTORE SWAP1 PUSH1 0x1 ADD SWAP1 PUSH1 0x20 ADD DUP1 DUP4 GT PUSH2 0x5E7 JUMPI DUP3 SWAP1 SUB PUSH1 0x1F AND DUP3 ADD SWAP2 JUMPDEST POP POP POP POP POP SWAP1 POP SWAP1 JUMP JUMPDEST PUSH0 PUSH0 PUSH0 DUP4 GT PUSH2 0x652 JUMPI PUSH1 0x40 MLOAD PUSH32 0x8C379A000000000000000000000000000000000000000000000000000000000 DUP2 MSTORE PUSH1 0x4 ADD PUSH2 0x649 SWAP1 PUSH2 0x1E40 JUMP JUMPDEST PUSH1 0x40 MLOAD DUP1 SWAP2 SUB SWAP1 REVERT JUMPDEST PUSH0 PUSH2 0x65B PUSH2 0x4B6 JUMP JUMPDEST SWAP1 POP DUP1 PUSH1 0x5 PUSH0 SWAP1 SLOAD SWAP1 PUSH2 0x100 EXP SWAP1 DIV PUSH14 0xFFFFFFFFFFFFFFFFFFFFFFFFFFFF AND PUSH14 0xFFFFFFFFFFFFFFFFFFFFFFFFFFFF AND DUP6 PUSH2 0x695 SWAP2 SWAP1 PUSH2 0x1E8B JUMP JUMPDEST PUSH2 0x69F SWAP2 SWAP1 PUSH2 0x1EF9 JUMP JUMPDEST SWAP3 POP DUP1 PUSH1 0x5 PUSH1 0xE SWAP1 SLOAD SWAP1 PUSH2 0x100 EXP SWAP1 DIV PUSH14 0xFFFFFFFFFFFFFFFFFFFFFFFFFFFF AND PUSH14 0xFFFFFFFFFFFFFFFFFFFFFFFFFFFF AND DUP6 PUSH2 0x6DA SWAP2 SWAP1 PUSH2 0x1E8B JUMP JUMPDEST PUSH2 0x6E4 SWAP2 SWAP1 PUSH2 0x1EF9 JUMP JUMPDEST SWAP2 POP PUSH2 0x6F0 CALLER DUP6 PUSH2 0x10C4 JUMP JUMPDEST PUSH2 0x73B CALLER DUP5 PUSH32 0x0 PUSH20 0xFFFFFFFFFFFFFFFFFFFFFFFFFFFFFFFFFFFFFFFF AND PUSH2 0x1143 SWAP1 SWAP3 SWAP2 SWAP1 PUSH4 0xFFFFFFFF AND JUMP JUMPDEST PUSH2 0x786 CALLER DUP4 PUSH32 0x0 PUSH20 0xFFFFFFFFFFFFFFFFFFFFFFFFFFFFFFFFFFFFFFFF AND PUSH2 0x1143 SWAP1 SWAP3 SWAP2 SWAP1 PUSH4 0xFFFFFFFF AND JUMP JUMPDEST PUSH2 0x78E PUSH2 0x11C2 JUMP JUMPDEST CALLER PUSH20 0xFFFFFFFFFFFFFFFFFFFFFFFFFFFFFFFFFFFFFFFF AND PUSH32 0x59C3A0B60C6AB7DEB62E1440C9E72441DB6DB7DFE514DBA8CB18E60C0D896EFA DUP5 DUP5 DUP8 PUSH1 0x40 MLOAD PUSH2 0x7D8 SWAP4 SWAP3 SWAP2 SWAP1 PUSH2 0x1F29 JUMP JUMPDEST PUSH1 0x40 MLOAD DUP1 SWAP2 SUB SWAP1 LOG2 POP SWAP2 POP SWAP2 JUMP JUMPDEST PUSH0 PUSH0 DUP4 GT DUP1 ISZERO PUSH2 0x7F5 JUMPI POP PUSH0 DUP3 GT JUMPDEST PUSH2 0x834 JUMPI PUSH1 0x40 MLOAD PUSH32 0x8C379A000000000000000000000000000000000000000000000000000000000 DUP2 MSTORE PUSH1 0x4 ADD PUSH2 0x82B SWAP1 PUSH2 0x1FA8 JUMP JUMPDEST PUSH1 0x40 MLOAD DUP1 SWAP2 SUB SWAP1 REVERT JUMPDEST PUSH2 0x881 CALLER ADDRESS DUP6 PUSH32 0x0 PUSH20 0xFFFFFFFFFFFFFFFFFFFFFFFFFFFFFFFFFFFFFFFF AND PUSH2 0x135B SWAP1 SWAP4 SWAP3 SWAP2 SWAP1 PUSH4 0xFFFFFFFF AND JUMP JUMPDEST PUSH2 0x8CE CALLER ADDRESS DUP5 PUSH32 0x0 PUSH20 0xFFFFFFFFFFFFFFFFFFFFFFFFFFFFFFFFFFFFFFFF AND PUSH2 0x135B SWAP1 SWAP4 SWAP3 SWAP2 SWAP1 PUSH4 0xFFFFFFFF AND JUMP JUMPDEST PUSH0 PUSH2 0x8D7 PUSH2 0x4B6 JUMP JUMPDEST SWAP1 POP PUSH0 DUP2 SUB PUSH2 0x8FB JUMPI PUSH2 0x8F4 DUP4 DUP6 PUSH2 0x8EF SWAP2 SWAP1 PUSH2 0x1E8B JUMP JUMPDEST PUSH2 0x13DD JUMP JUMPDEST SWAP2 POP PUSH2 0x98B JUMP JUMPDEST PUSH2 0x988 PUSH1 0x5 PUSH0 SWAP1 SLOAD SWAP1 PUSH2 0x100 EXP SWAP1 DIV PUSH14 0xFFFFFFFFFFFFFFFFFFFFFFFFFFFF AND PUSH14 0xFFFFFFFFFFFFFFFFFFFFFFFFFFFF AND DUP3 DUP7 PUSH2 0x936 SWAP2 SWAP1 PUSH2 0x1E8B JUMP JUMPDEST PUSH2 0x940 SWAP2 SWAP1 PUSH2 0x1EF9 JUMP JUMPDEST PUSH1 0x5 PUSH1 0xE SWAP1 SLOAD SWAP1 PUSH2 0x100 EXP SWAP1 DIV PUSH14 0xFFFFFFFFFFFFFFFFFFFFFFFFFFFF AND PUSH14 0xFFFFFFFFFFFFFFFFFFFFFFFFFFFF AND DUP4 DUP7 PUSH2 0x979 SWAP2 SWAP1 PUSH2 0x1E8B JUMP JUMPDEST PUSH2 0x983 SWAP2 SWAP1 PUSH2 0x1EF9 JUMP JUMPDEST PUSH2 0x1454 JUMP JUMPDEST SWAP2 POP JUMPDEST PUSH0 DUP3 GT PUSH2 0x9CD JUMPI PUSH1 0x40 MLOAD PUSH32 0x8C379A000000000000000000000000000000000000000000000000000000000 DUP2 MSTORE PUSH1 0x4 ADD PUSH2 0x9C4 SWAP1 PUSH2 0x1E40 JUMP JUMPDEST PUSH1 0x40 MLOAD DUP1 SWAP2 SUB SWAP1 REVERT JUMPDEST PUSH2 0x9D7 CALLER DUP4 PUSH2 0x146C JUMP JUMPDEST PUSH2 0x9DF PUSH2 0x11C2 JUMP JUMPDEST CALLER PUSH20 0xFFFFFFFFFFFFFFFFFFFFFFFFFFFFFFFFFFFFFFFF AND PUSH32 0xBEB3885786D637A474CBC287C0A44587231633A077F0BD30354D5A4B18996FCE DUP6 DUP6 DUP6 PUSH1 0x40 MLOAD PUSH2 0xA29 SWAP4 SWAP3 SWAP2 SWAP1 PUSH2 0x1F29 JUMP JUMPDEST PUSH1 0x40 MLOAD DUP1 SWAP2 SUB SWAP1 LOG2 POP SWAP3 SWAP2 POP POP JUMP JUMPDEST PUSH0 PUSH0 PUSH2 0xA42 PUSH2 0xF28 JUMP JUMPDEST SWAP1 POP PUSH2 0xA4F DUP2 DUP6 DUP6 PUSH2 0xFD4 JUMP JUMPDEST PUSH1 0x1 SWAP2 POP POP SWAP3 SWAP2 POP POP JUMP JUMPDEST PUSH1 0x5 PUSH0 SWAP1 SLOAD SWAP1 PUSH2 0x100 EXP SWAP1 DIV PUSH14 0xFFFFFFFFFFFFFFFFFFFFFFFFFFFF AND DUP2 JUMP JUMPDEST PUSH0 PUSH1 0x1 PUSH0 DUP5 PUSH20 0xFFFFFFFFFFFFFFFFFFFFFFFFFFFFFFFFFFFFFFFF AND PUSH20 0xFFFFFFFFFFFFFFFFFFFFFFFFFFFFFFFFFFFFFFFF AND DUP2 MSTORE PUSH1 0x20 ADD SWAP1 DUP2 MSTORE PUSH1 0x20 ADD PUSH0 KECCAK256 PUSH0 DUP4 PUSH20 0xFFFFFFFFFFFFFFFFFFFFFFFFFFFFFFFFFFFFFFFF AND PUSH20 0xFFFFFFFFFFFFFFFFFFFFFFFFFFFFFFFFFFFFFFFF AND DUP2 MSTORE PUSH1 0x20 ADD SWAP1 DUP2 MSTORE PUSH1 0x20 ADD PUSH0 KECCAK256 SLOAD SWAP1 POP SWAP3 SWAP2 POP POP JUMP JUMPDEST PUSH0 PUSH32 0x0 PUSH20 0xFFFFFFFFFFFFFFFFFFFFFFFFFFFFFFFFFFFFFFFF AND DUP6 PUSH20 0xFFFFFFFFFFFFFFFFFFFFFFFFFFFFFFFFFFFFFFFF AND EQ DUP1 PUSH2 0xBA1 JUMPI POP PUSH32 0x0 PUSH20 0xFFFFFFFFFFFFFFFFFFFFFFFFFFFFFFFFFFFFFFFF AND DUP6 PUSH20 0xFFFFFFFFFFFFFFFFFFFFFFFFFFFFFFFFFFFFFFFF AND EQ JUMPDEST PUSH2 0xBE0 JUMPI PUSH1 0x40 MLOAD PUSH32 0x8C379A000000000000000000000000000000000000000000000000000000000 DUP2 MSTORE PUSH1 0x4 ADD PUSH2 0xBD7 SWAP1 PUSH2 0x2010 JUMP JUMPDEST PUSH1 0x40 MLOAD DUP1 SWAP2 SUB SWAP1 REVERT JUMPDEST PUSH0 DUP5 GT PUSH2 0xC22 JUMPI PUSH1 0x40 MLOAD PUSH32 0x8C379A000000000000000000000000000000000000000000000000000000000 DUP2 MSTORE PUSH1 0x4 ADD PUSH2 0xC19 SWAP1 PUSH2 0x2078 JUMP JUMPDEST PUSH1 0x40 MLOAD DUP1 SWAP2 SUB SWAP1 REVERT JUMPDEST PUSH0 PUSH20 0xFFFFFFFFFFFFFFFFFFFFFFFFFFFFFFFFFFFFFFFF AND DUP3 PUSH20 0xFFFFFFFFFFFFFFFFFFFFFFFFFFFFFFFFFFFFFFFF AND SUB PUSH2 0xC90 JUMPI PUSH1 0x40 MLOAD PUSH32 0x8C379A000000000000000000000000000000000000000000000000000000000 DUP2 MSTORE PUSH1 0x4 ADD PUSH2 0xC87 SWAP1 PUSH2 0x20E0 JUMP JUMPDEST PUSH1 0x40 MLOAD DUP1 SWAP2 SUB SWAP1 REVERT JUMPDEST PUSH0 PUSH32 0x0 PUSH20 0xFFFFFFFFFFFFFFFFFFFFFFFFFFFFFFFFFFFFFFFF AND DUP7 PUSH20 0xFFFFFFFFFFFFFFFFFFFFFFFFFFFFFFFFFFFFFFFF AND EQ SWAP1 POP PUSH0 DUP2 PUSH2 0xD0E JUMPI PUSH32 0x0 PUSH2 0xD30 JUMP JUMPDEST PUSH32 0x0 JUMPDEST SWAP1 POP PUSH0 PUSH0 DUP4 PUSH2 0xD77 JUMPI PUSH1 0x5 PUSH1 0xE SWAP1 SLOAD SWAP1 PUSH2 0x100 EXP SWAP1 DIV PUSH14 0xFFFFFFFFFFFFFFFFFFFFFFFFFFFF AND PUSH1 0x5 PUSH0 SWAP1 SLOAD SWAP1 PUSH2 0x100 EXP SWAP1 DIV PUSH14 0xFFFFFFFFFFFFFFFFFFFFFFFFFFFF AND PUSH2 0xDB1 JUMP JUMPDEST PUSH1 0x5 PUSH0 SWAP1 SLOAD SWAP1 PUSH2 0x100 EXP SWAP1 DIV PUSH14 0xFFFFFFFFFFFFFFFFFFFFFFFFFFFF AND PUSH1 0x5 PUSH1 0xE SWAP1 SLOAD SWAP1 PUSH2 0x100 EXP SWAP1 DIV PUSH14 0xFFFFFFFFFFFFFFFFFFFFFFFFFFFF AND JUMPDEST PUSH14 0xFFFFFFFFFFFFFFFFFFFFFFFFFFFF AND SWAP2 POP PUSH14 0xFFFFFFFFFFFFFFFFFFFFFFFFFFFF AND SWAP2 POP PUSH2 0xE02 CALLER ADDRESS DUP11 DUP13 PUSH20 0xFFFFFFFFFFFFFFFFFFFFFFFFFFFFFFFFFFFFFFFF AND PUSH2 0x135B SWAP1 SWAP4 SWAP3 SWAP2 SWAP1 PUSH4 0xFFFFFFFF AND JUMP JUMPDEST PUSH0 PUSH2 0x3E5 DUP10 PUSH2 0xE11 SWAP2 SWAP1 PUSH2 0x1E8B JUMP JUMPDEST SWAP1 POP DUP1 PUSH2 0x3E8 DUP5 PUSH2 0xE22 SWAP2 SWAP1 PUSH2 0x1E8B JUMP JUMPDEST PUSH2 0xE2C SWAP2 SWAP1 PUSH2 0x20FE JUMP JUMPDEST DUP3 DUP3 PUSH2 0xE38 SWAP2 SWAP1 PUSH2 0x1E8B JUMP JUMPDEST PUSH2 0xE42 SWAP2 SWAP1 PUSH2 0x1EF9 JUMP JUMPDEST SWAP6 POP DUP8 DUP7 LT ISZERO DUP1 ISZERO PUSH2 0xE53 JUMPI POP PUSH0 DUP7 GT JUMPDEST PUSH2 0xE92 JUMPI PUSH1 0x40 MLOAD PUSH32 0x8C379A000000000000000000000000000000000000000000000000000000000 DUP2 MSTORE PUSH1 0x4 ADD PUSH2 0xE89 SWAP1 PUSH2 0x217B JUMP JUMPDEST PUSH1 0x40 MLOAD DUP1 SWAP2 SUB SWAP1 REVERT JUMPDEST PUSH2 0xEBD DUP8 DUP8 DUP7 PUSH20 0xFFFFFFFFFFFFFFFFFFFFFFFFFFFFFFFFFFFFFFFF AND PUSH2 0x1143 SWAP1 SWAP3 SWAP2 SWAP1 PUSH4 0xFFFFFFFF AND JUMP JUMPDEST PUSH2 0xEC5 PUSH2 0x11C2 JUMP JUMPDEST CALLER PUSH20 0xFFFFFFFFFFFFFFFFFFFFFFFFFFFFFFFFFFFFFFFF AND PUSH32 0x54787C404BB33C88E86F4BAF88183A3B0141D0A848E6A9F7A13B66AE3A9B73D1 DUP12 DUP7 DUP13 DUP11 DUP13 PUSH1 0x40 MLOAD PUSH2 0xF13 SWAP6 SWAP5 SWAP4 SWAP3 SWAP2 SWAP1 PUSH2 0x2199 JUMP JUMPDEST PUSH1 0x40 MLOAD DUP1 SWAP2 SUB SWAP1 LOG2 POP POP POP POP POP SWAP5 SWAP4 POP POP POP POP JUMP JUMPDEST PUSH0 CALLER SWAP1 POP SWAP1 JUMP JUMPDEST PUSH2 0xF3C DUP4 DUP4 DUP4 PUSH1 0x1 PUSH2 0x14EB JUMP JUMPDEST POP POP POP JUMP JUMPDEST PUSH0 PUSH2 0xF4C DUP5 DUP5 PUSH2 0xA79 JUMP JUMPDEST SWAP1 POP PUSH32 0xFFFFFFFFFFFFFFFFFFFFFFFFFFFFFFFFFFFFFFFFFFFFFFFFFFFFFFFFFFFFFFFF DUP2 LT ISZERO PUSH2 0xFCE JUMPI DUP2 DUP2 LT ISZERO PUSH2 0xFBF JUMPI DUP3 DUP2 DUP4 PUSH1 0x40 MLOAD PUSH32 0xFB8F41B200000000000000000000000000000000000000000000000000000000 DUP2 MSTORE PUSH1 0x4 ADD PUSH2 0xFB6 SWAP4 SWAP3 SWAP2 SWAP1 PUSH2 0x21EA JUMP JUMPDEST PUSH1 0x40 MLOAD DUP1 SWAP2 SUB SWAP1 REVERT JUMPDEST PUSH2 0xFCD DUP5 DUP5 DUP5 DUP5 SUB PUSH0 PUSH2 0x14EB JUMP JUMPDEST JUMPDEST POP POP POP POP JUMP JUMPDEST PUSH0 PUSH20 0xFFFFFFFFFFFFFFFFFFFFFFFFFFFFFFFFFFFFFFFF AND DUP4 PUSH20 0xFFFFFFFFFFFFFFFFFFFFFFFFFFFFFFFFFFFFFFFF AND SUB PUSH2 0x1044 JUMPI PUSH0 PUSH1 0x40 MLOAD PUSH32 0x96C6FD1E00000000000000000000000000000000000000000000000000000000 DUP2 MSTORE PUSH1 0x4 ADD PUSH2 0x103B SWAP2 SWAP1 PUSH2 0x1B5E JUMP JUMPDEST PUSH1 0x40 MLOAD DUP1 SWAP2 SUB SWAP1 REVERT JUMPDEST PUSH0 PUSH20 0xFFFFFFFFFFFFFFFFFFFFFFFFFFFFFFFFFFFFFFFF AND DUP3 PUSH20 0xFFFFFFFFFFFFFFFFFFFFFFFFFFFFFFFFFFFFFFFF AND SUB PUSH2 0x10B4 JUMPI PUSH0 PUSH1 0x40 MLOAD PUSH32 0xEC442F0500000000000000000000000000000000000000000000000000000000 DUP2 MSTORE PUSH1 0x4 ADD PUSH2 0x10AB SWAP2 SWAP1 PUSH2 0x1B5E JUMP JUMPDEST PUSH1 0x40 MLOAD DUP1 SWAP2 SUB SWAP1 REVERT JUMPDEST PUSH2 0x10BF DUP4 DUP4 DUP4 PUSH2 0x16BA JUMP JUMPDEST POP POP POP JUMP JUMPDEST PUSH0 PUSH20 0xFFFFFFFFFFFFFFFFFFFFFFFFFFFFFFFFFFFFFFFF AND DUP3 PUSH20 0xFFFFFFFFFFFFFFFFFFFFFFFFFFFFFFFFFFFFFFFF AND SUB PUSH2 0x1134 JUMPI PUSH0 PUSH1 0x40 MLOAD PUSH32 0x96C6FD1E00000000000000000000000000000000000000000000000000000000 DUP2 MSTORE PUSH1 0x4 ADD PUSH2 0x112B SWAP2 SWAP1 PUSH2 0x1B5E JUMP JUMPDEST PUSH1 0x40 MLOAD DUP1 SWAP2 SUB SWAP1 REVERT JUMPDEST PUSH2 0x113F DUP3 PUSH0 DUP4 PUSH2 0x16BA JUMP JUMPDEST POP POP JUMP JUMPDEST PUSH2 0x11BD DUP4 DUP5 PUSH20 0xFFFFFFFFFFFFFFFFFFFFFFFFFFFFFFFFFFFFFFFF AND PUSH4 0xA9059CBB DUP6 DUP6 PUSH1 0x40 MLOAD PUSH1 0x24 ADD PUSH2 0x1176 SWAP3 SWAP2 SWAP1 PUSH2 0x221F JUMP JUMPDEST PUSH1 0x40 MLOAD PUSH1 0x20 DUP2 DUP4 SUB SUB DUP2 MSTORE SWAP1 PUSH1 0x40 MSTORE SWAP2 POP PUSH1 0xE0 SHL PUSH1 0x20 DUP3 ADD DUP1 MLOAD PUSH28 0xFFFFFFFFFFFFFFFFFFFFFFFFFFFFFFFFFFFFFFFFFFFFFFFFFFFFFFFF DUP4 DUP2 DUP4 AND OR DUP4 MSTORE POP POP POP POP PUSH2 0x18D3 JUMP JUMPDEST POP POP POP JUMP JUMPDEST PUSH32 0x0 PUSH20 0xFFFFFFFFFFFFFFFFFFFFFFFFFFFFFFFFFFFFFFFF AND PUSH4 0x70A08231 ADDRESS PUSH1 0x40 MLOAD DUP3 PUSH4 0xFFFFFFFF AND PUSH1 0xE0 SHL DUP2 MSTORE PUSH1 0x4 ADD PUSH2 0x121B SWAP2 SWAP1 PUSH2 0x1B5E JUMP JUMPDEST PUSH1 0x20 PUSH1 0x40 MLOAD DUP1 DUP4 SUB DUP2 DUP7 GAS STATICCALL ISZERO DUP1 ISZERO PUSH2 0x1236 JUMPI RETURNDATASIZE PUSH0 PUSH0 RETURNDATACOPY RETURNDATASIZE PUSH0 REVERT JUMPDEST POP POP POP POP PUSH1 0x40 MLOAD RETURNDATASIZE PUSH1 0x1F NOT PUSH1 0x1F DUP3 ADD AND DUP3 ADD DUP1 PUSH1 0x40 MSTORE POP DUP2 ADD SWAP1 PUSH2 0x125A SWAP2 SWAP1 PUSH2 0x225A JUMP JUMPDEST PUSH1 0x5 PUSH0 PUSH2 0x100 EXP DUP2 SLOAD DUP2 PUSH14 0xFFFFFFFFFFFFFFFFFFFFFFFFFFFF MUL NOT AND SWAP1 DUP4 PUSH14 0xFFFFFFFFFFFFFFFFFFFFFFFFFFFF AND MUL OR SWAP1 SSTORE POP PUSH32 0x0 PUSH20 0xFFFFFFFFFFFFFFFFFFFFFFFFFFFFFFFFFFFFFFFF AND PUSH4 0x70A08231 ADDRESS PUSH1 0x40 MLOAD DUP3 PUSH4 0xFFFFFFFF AND PUSH1 0xE0 SHL DUP2 MSTORE PUSH1 0x4 ADD PUSH2 0x12E6 SWAP2 SWAP1 PUSH2 0x1B5E JUMP JUMPDEST PUSH1 0x20 PUSH1 0x40 MLOAD DUP1 DUP4 SUB DUP2 DUP7 GAS STATICCALL ISZERO DUP1 ISZERO PUSH2 0x1301 JUMPI RETURNDATASIZE PUSH0 PUSH0 RETURNDATACOPY RETURNDATASIZE PUSH0 REVERT JUMPDEST POP POP POP POP PUSH1 0x40 MLOAD RETURNDATASIZE PUSH1 0x1F NOT PUSH1 0x1F DUP3 ADD AND DUP3 ADD DUP1 PUSH1 0x40 MSTORE POP DUP2 ADD SWAP1 PUSH2 0x1325 SWAP2 SWAP1 PUSH2 0x225A JUMP JUMPDEST PUSH1 0x5 PUSH1 0xE PUSH2 0x100 EXP DUP2 SLOAD DUP2 PUSH14 0xFFFFFFFFFFFFFFFFFFFFFFFFFFFF MUL NOT AND SWAP1 DUP4 PUSH14 0xFFFFFFFFFFFFFFFFFFFFFFFFFFFF AND MUL OR SWAP1 SSTORE POP JUMP JUMPDEST PUSH2 0x13D7 DUP5 DUP6 PUSH20 0xFFFFFFFFFFFFFFFFFFFFFFFFFFFFFFFFFFFFFFFF AND PUSH4 0x23B872DD DUP7 DUP7 DUP7 PUSH1 0x40 MLOAD PUSH1 0x24 ADD PUSH2 0x1390 SWAP4 SWAP3 SWAP2 SWAP1 PUSH2 0x2285 JUMP JUMPDEST PUSH1 0x40 MLOAD PUSH1 0x20 DUP2 DUP4 SUB SUB DUP2 MSTORE SWAP1 PUSH1 0x40 MSTORE SWAP2 POP PUSH1 0xE0 SHL PUSH1 0x20 DUP3 ADD DUP1 MLOAD PUSH28 0xFFFFFFFFFFFFFFFFFFFFFFFFFFFFFFFFFFFFFFFFFFFFFFFFFFFFFFFF DUP4 DUP2 DUP4 AND OR DUP4 MSTORE POP POP POP POP PUSH2 0x18D3 JUMP JUMPDEST POP POP POP POP JUMP JUMPDEST PUSH0 PUSH1 0x3 DUP3 GT ISZERO PUSH2 0x1442 JUMPI DUP2 SWAP1 POP PUSH0 PUSH1 0x1 PUSH1 0x2 DUP5 PUSH2 0x13FA SWAP2 SWAP1 PUSH2 0x1EF9 JUMP JUMPDEST PUSH2 0x1404 SWAP2 SWAP1 PUSH2 0x20FE JUMP JUMPDEST SWAP1 POP JUMPDEST DUP2 DUP2 LT ISZERO PUSH2 0x143C JUMPI DUP1 SWAP2 POP PUSH1 0x2 DUP2 DUP3 DUP6 PUSH2 0x1421 SWAP2 SWAP1 PUSH2 0x1EF9 JUMP JUMPDEST PUSH2 0x142B SWAP2 SWAP1 PUSH2 0x20FE JUMP JUMPDEST PUSH2 0x1435 SWAP2 SWAP1 PUSH2 0x1EF9 JUMP JUMPDEST SWAP1 POP PUSH2 0x1407 JUMP JUMPDEST POP PUSH2 0x144F JUMP JUMPDEST PUSH0 DUP3 EQ PUSH2 0x144E JUMPI PUSH1 0x1 SWAP1 POP JUMPDEST JUMPDEST SWAP2 SWAP1 POP JUMP JUMPDEST PUSH0 DUP2 DUP4 LT PUSH2 0x1462 JUMPI DUP2 PUSH2 0x1464 JUMP JUMPDEST DUP3 JUMPDEST SWAP1 POP SWAP3 SWAP2 POP POP JUMP JUMPDEST PUSH0 PUSH20 0xFFFFFFFFFFFFFFFFFFFFFFFFFFFFFFFFFFFFFFFF AND DUP3 PUSH20 0xFFFFFFFFFFFFFFFFFFFFFFFFFFFFFFFFFFFFFFFF AND SUB PUSH2 0x14DC JUMPI PUSH0 PUSH1 0x40 MLOAD PUSH32 0xEC442F0500000000000000000000000000000000000000000000000000000000 DUP2 MSTORE PUSH1 0x4 ADD PUSH2 0x14D3 SWAP2 SWAP1 PUSH2 0x1B5E JUMP JUMPDEST PUSH1 0x40 MLOAD DUP1 SWAP2 SUB SWAP1 REVERT JUMPDEST PUSH2 0x14E7 PUSH0 DUP4 DUP4 PUSH2 0x16BA JUMP JUMPDEST POP POP JUMP JUMPDEST PUSH0 PUSH20 0xFFFFFFFFFFFFFFFFFFFFFFFFFFFFFFFFFFFFFFFF AND DUP5 PUSH20 0xFFFFFFFFFFFFFFFFFFFFFFFFFFFFFFFFFFFFFFFF AND SUB PUSH2 0x155B JUMPI PUSH0 PUSH1 0x40 MLOAD PUSH32 0xE602DF0500000000000000000000000000000000000000000000000000000000 DUP2 MSTORE PUSH1 0x4 ADD PUSH2 0x1552 SWAP2 SWAP1 PUSH2 0x1B5E JUMP JUMPDEST PUSH1 0x40 MLOAD DUP1 SWAP2 SUB SWAP1 REVERT JUMPDEST PUSH0 PUSH20 0xFFFFFFFFFFFFFFFFFFFFFFFFFFFFFFFFFFFFFFFF AND DUP4 PUSH20 0xFFFFFFFFFFFFFFFFFFFFFFFFFFFFFFFFFFFFFFFF AND SUB PUSH2 0x15CB JUMPI PUSH0 PUSH1 0x40 MLOAD PUSH32 0x94280D6200000000000000000000000000000000000000000000000000000000 DUP2 MSTORE PUSH1 0x4 ADD PUSH2 0x15C2 SWAP2 SWAP1 PUSH2 0x1B5E JUMP JUMPDEST PUSH1 0x40 MLOAD DUP1 SWAP2 SUB SWAP1 REVERT JUMPDEST DUP2 PUSH1 0x1 PUSH0 DUP7 PUSH20 0xFFFFFFFFFFFFFFFFFFFFFFFFFFFFFFFFFFFFFFFF AND PUSH20 0xFFFFFFFFFFFFFFFFFFFFFFFFFFFFFFFFFFFFFFFF AND DUP2 MSTORE PUSH1 0x20 ADD SWAP1 DUP2 MSTORE PUSH1 0x20 ADD PUSH0 KECCAK256 PUSH0 DUP6 PUSH20 0xFFFFFFFFFFFFFFFFFFFFFFFFFFFFFFFFFFFFFFFF AND PUSH20 0xFFFFFFFFFFFFFFFFFFFFFFFFFFFFFFFFFFFFFFFF AND DUP2 MSTORE PUSH1 0x20 ADD SWAP1 DUP2 MSTORE PUSH1 0x20 ADD PUSH0 KECCAK256 DUP2 SWAP1 SSTORE POP DUP1 ISZERO PUSH2 0x16B4 JUMPI DUP3 PUSH20 0xFFFFFFFFFFFFFFFFFFFFFFFFFFFFFFFFFFFFFFFF AND DUP5 PUSH20 0xFFFFFFFFFFFFFFFFFFFFFFFFFFFFFFFFFFFFFFFF AND PUSH32 0x8C5BE1E5EBEC7D5BD14F71427D1E84F3DD0314C0F7B2291E5B200AC8C7C3B925 DUP5 PUSH1 0x40 MLOAD PUSH2 0x16AB SWAP2 SWAP1 PUSH2 0x1B86 JUMP JUMPDEST PUSH1 0x40 MLOAD DUP1 SWAP2 SUB SWAP1 LOG3 JUMPDEST POP POP POP POP JUMP JUMPDEST PUSH0 PUSH20 0xFFFFFFFFFFFFFFFFFFFFFFFFFFFFFFFFFFFFFFFF AND DUP4 PUSH20 0xFFFFFFFFFFFFFFFFFFFFFFFFFFFFFFFFFFFFFFFF AND SUB PUSH2 0x170A JUMPI DUP1 PUSH1 0x2 PUSH0 DUP3 DUP3 SLOAD PUSH2 0x16FE SWAP2 SWAP1 PUSH2 0x20FE JUMP JUMPDEST SWAP3 POP POP DUP2 SWAP1 SSTORE POP PUSH2 0x17D8 JUMP JUMPDEST PUSH0 PUSH0 PUSH0 DUP6 PUSH20 0xFFFFFFFFFFFFFFFFFFFFFFFFFFFFFFFFFFFFFFFF AND PUSH20 0xFFFFFFFFFFFFFFFFFFFFFFFFFFFFFFFFFFFFFFFF AND DUP2 MSTORE PUSH1 0x20 ADD SWAP1 DUP2 MSTORE PUSH1 0x20 ADD PUSH0 KECCAK256 SLOAD SWAP1 POP DUP2 DUP2 LT ISZERO PUSH2 0x1793 JUMPI DUP4 DUP2 DUP4 PUSH1 0x40 MLOAD PUSH32 0xE450D38C00000000000000000000000000000000000000000000000000000000 DUP2 MSTORE PUSH1 0x4 ADD PUSH2 0x178A SWAP4 SWAP3 SWAP2 SWAP1 PUSH2 0x21EA JUMP JUMPDEST PUSH1 0x40 MLOAD DUP1 SWAP2 SUB SWAP1 REVERT JUMPDEST DUP2 DUP2 SUB PUSH0 PUSH0 DUP7 PUSH20 0xFFFFFFFFFFFFFFFFFFFFFFFFFFFFFFFFFFFFFFFF AND PUSH20 0xFFFFFFFFFFFFFFFFFFFFFFFFFFFFFFFFFFFFFFFF AND DUP2 MSTORE PUSH1 0x20 ADD SWAP1 DUP2 MSTORE PUSH1 0x20 ADD PUSH0 KECCAK256 DUP2 SWAP1 SSTORE POP POP JUMPDEST PUSH0 PUSH20 0xFFFFFFFFFFFFFFFFFFFFFFFFFFFFFFFFFFFFFFFF AND DUP3 PUSH20 0xFFFFFFFFFFFFFFFFFFFFFFFFFFFFFFFFFFFFFFFF AND SUB PUSH2 0x181F JUMPI DUP1 PUSH1 0x2 PUSH0 DUP3 DUP3 SLOAD SUB SWAP3 POP POP DUP2 SWAP1 SSTORE POP PUSH2 0x1869 JUMP JUMPDEST DUP1 PUSH0 PUSH0 DUP5 PUSH20 0xFFFFFFFFFFFFFFFFFFFFFFFFFFFFFFFFFFFFFFFF AND PUSH20 0xFFFFFFFFFFFFFFFFFFFFFFFFFFFFFFFFFFFFFFFF AND DUP2 MSTORE PUSH1 0x20 ADD SWAP1 DUP2 MSTORE PUSH1 0x20 ADD PUSH0 KECCAK256 PUSH0 DUP3 DUP3 SLOAD ADD SWAP3 POP POP DUP2 SWAP1 SSTORE POP JUMPDEST DUP2 PUSH20 0xFFFFFFFFFFFFFFFFFFFFFFFFFFFFFFFFFFFFFFFF AND DUP4 PUSH20 0xFFFFFFFFFFFFFFFFFFFFFFFFFFFFFFFFFFFFFFFF AND PUSH32 0xDDF252AD1BE2C89B69C2B068FC378DAA952BA7F163C4A11628F55A4DF523B3EF DUP4 PUSH1 0x40 MLOAD PUSH2 0x18C6 SWAP2 SWAP1 PUSH2 0x1B86 JUMP JUMPDEST PUSH1 0x40 MLOAD DUP1 SWAP2 SUB SWAP1 LOG3 POP POP POP JUMP JUMPDEST PUSH0 PUSH0 PUSH1 0x20 PUSH0 DUP5 MLOAD PUSH1 0x20 DUP7 ADD PUSH0 DUP9 GAS CALL DUP1 PUSH2 0x18F2 JUMPI PUSH1 0x40 MLOAD RETURNDATASIZE PUSH0 DUP3 RETURNDATACOPY RETURNDATASIZE DUP2 REVERT JUMPDEST RETURNDATASIZE SWAP3 POP PUSH0 MLOAD SWAP2 POP POP PUSH0 DUP3 EQ PUSH2 0x190B JUMPI PUSH1 0x1 DUP2 EQ ISZERO PUSH2 0x1926 JUMP JUMPDEST PUSH0 DUP5 PUSH20 0xFFFFFFFFFFFFFFFFFFFFFFFFFFFFFFFFFFFFFFFF AND EXTCODESIZE EQ JUMPDEST ISZERO PUSH2 0x1968 JUMPI DUP4 PUSH1 0x40 MLOAD PUSH32 0x5274AFE700000000000000000000000000000000000000000000000000000000 DUP2 MSTORE PUSH1 0x4 ADD PUSH2 0x195F SWAP2 SWAP1 PUSH2 0x1B5E JUMP JUMPDEST PUSH1 0x40 MLOAD DUP1 SWAP2 SUB SWAP1 REVERT JUMPDEST POP POP POP POP JUMP JUMPDEST PUSH0 DUP2 MLOAD SWAP1 POP SWAP2 SWAP1 POP JUMP JUMPDEST PUSH0 DUP3 DUP3 MSTORE PUSH1 0x20 DUP3 ADD SWAP1 POP SWAP3 SWAP2 POP POP JUMP JUMPDEST DUP3 DUP2 DUP4 MCOPY PUSH0 DUP4 DUP4 ADD MSTORE POP POP POP JUMP JUMPDEST PUSH0 PUSH1 0x1F NOT PUSH1 0x1F DUP4 ADD AND SWAP1 POP SWAP2 SWAP1 POP JUMP JUMPDEST PUSH0 PUSH2 0x19B0 DUP3 PUSH2 0x196E JUMP JUMPDEST PUSH2 0x19BA DUP2 DUP6 PUSH2 0x1978 JUMP JUMPDEST SWAP4 POP PUSH2 0x19CA DUP2 DUP6 PUSH1 0x20 DUP7 ADD PUSH2 0x1988 JUMP JUMPDEST PUSH2 0x19D3 DUP2 PUSH2 0x1996 JUMP JUMPDEST DUP5 ADD SWAP2 POP POP SWAP3 SWAP2 POP POP JUMP JUMPDEST PUSH0 PUSH1 0x20 DUP3 ADD SWAP1 POP DUP2 DUP2 SUB PUSH0 DUP4 ADD MSTORE PUSH2 0x19F6 DUP2 DUP5 PUSH2 0x19A6 JUMP JUMPDEST SWAP1 POP SWAP3 SWAP2 POP POP JUMP JUMPDEST PUSH0 PUSH14 0xFFFFFFFFFFFFFFFFFFFFFFFFFFFF DUP3 AND SWAP1 POP SWAP2 SWAP1 POP JUMP JUMPDEST PUSH2 0x1A20 DUP2 PUSH2 0x19FE JUMP JUMPDEST DUP3 MSTORE POP POP JUMP JUMPDEST PUSH0 PUSH1 0x40 DUP3 ADD SWAP1 POP PUSH2 0x1A39 PUSH0 DUP4 ADD DUP6 PUSH2 0x1A17 JUMP JUMPDEST PUSH2 0x1A46 PUSH1 0x20 DUP4 ADD DUP5 PUSH2 0x1A17 JUMP JUMPDEST SWAP4 SWAP3 POP POP POP JUMP JUMPDEST PUSH0 PUSH0 REVERT JUMPDEST PUSH0 PUSH20 0xFFFFFFFFFFFFFFFFFFFFFFFFFFFFFFFFFFFFFFFF DUP3 AND SWAP1 POP SWAP2 SWAP1 POP JUMP JUMPDEST PUSH0 PUSH2 0x1A7A DUP3 PUSH2 0x1A51 JUMP JUMPDEST SWAP1 POP SWAP2 SWAP1 POP JUMP JUMPDEST PUSH2 0x1A8A DUP2 PUSH2 0x1A70 JUMP JUMPDEST DUP2 EQ PUSH2 0x1A94 JUMPI PUSH0 PUSH0 REVERT JUMPDEST POP JUMP JUMPDEST PUSH0 DUP2 CALLDATALOAD SWAP1 POP PUSH2 0x1AA5 DUP2 PUSH2 0x1A81 JUMP JUMPDEST SWAP3 SWAP2 POP POP JUMP JUMPDEST PUSH0 DUP2 SWAP1 POP SWAP2 SWAP1 POP JUMP JUMPDEST PUSH2 0x1ABD DUP2 PUSH2 0x1AAB JUMP JUMPDEST DUP2 EQ PUSH2 0x1AC7 JUMPI PUSH0 PUSH0 REVERT JUMPDEST POP JUMP JUMPDEST PUSH0 DUP2 CALLDATALOAD SWAP1 POP PUSH2 0x1AD8 DUP2 PUSH2 0x1AB4 JUMP JUMPDEST SWAP3 SWAP2 POP POP JUMP JUMPDEST PUSH0 PUSH0 PUSH1 0x40 DUP4 DUP6 SUB SLT ISZERO PUSH2 0x1AF4 JUMPI PUSH2 0x1AF3 PUSH2 0x1A4D JUMP JUMPDEST JUMPDEST PUSH0 PUSH2 0x1B01 DUP6 DUP3 DUP7 ADD PUSH2 0x1A97 JUMP JUMPDEST SWAP3 POP POP PUSH1 0x20 PUSH2 0x1B12 DUP6 DUP3 DUP7 ADD PUSH2 0x1ACA JUMP JUMPDEST SWAP2 POP POP SWAP3 POP SWAP3 SWAP1 POP JUMP JUMPDEST PUSH0 DUP2 ISZERO ISZERO SWAP1 POP SWAP2 SWAP1 POP JUMP JUMPDEST PUSH2 0x1B30 DUP2 PUSH2 0x1B1C JUMP JUMPDEST DUP3 MSTORE POP POP JUMP JUMPDEST PUSH0 PUSH1 0x20 DUP3 ADD SWAP1 POP PUSH2 0x1B49 PUSH0 DUP4 ADD DUP5 PUSH2 0x1B27 JUMP JUMPDEST SWAP3 SWAP2 POP POP JUMP JUMPDEST PUSH2 0x1B58 DUP2 PUSH2 0x1A70 JUMP JUMPDEST DUP3 MSTORE POP POP JUMP JUMPDEST PUSH0 PUSH1 0x20 DUP3 ADD SWAP1 POP PUSH2 0x1B71 PUSH0 DUP4 ADD DUP5 PUSH2 0x1B4F JUMP JUMPDEST SWAP3 SWAP2 POP POP JUMP JUMPDEST PUSH2 0x1B80 DUP2 PUSH2 0x1AAB JUMP JUMPDEST DUP3 MSTORE POP POP JUMP JUMPDEST PUSH0 PUSH1 0x20 DUP3 ADD SWAP1 POP PUSH2 0x1B99 PUSH0 DUP4 ADD DUP5 PUSH2 0x1B77 JUMP JUMPDEST SWAP3 SWAP2 POP POP JUMP JUMPDEST PUSH0 PUSH1 0x20 DUP3 ADD SWAP1 POP PUSH2 0x1BB2 PUSH0 DUP4 ADD DUP5 PUSH2 0x1A17 JUMP JUMPDEST SWAP3 SWAP2 POP POP JUMP JUMPDEST PUSH0 PUSH0 PUSH0 PUSH1 0x60 DUP5 DUP7 SUB SLT ISZERO PUSH2 0x1BCF JUMPI PUSH2 0x1BCE PUSH2 0x1A4D JUMP JUMPDEST JUMPDEST PUSH0 PUSH2 0x1BDC DUP7 DUP3 DUP8 ADD PUSH2 0x1A97 JUMP JUMPDEST SWAP4 POP POP PUSH1 0x20 PUSH2 0x1BED DUP7 DUP3 DUP8 ADD PUSH2 0x1A97 JUMP JUMPDEST SWAP3 POP POP PUSH1 0x40 PUSH2 0x1BFE DUP7 DUP3 DUP8 ADD PUSH2 0x1ACA JUMP JUMPDEST SWAP2 POP POP SWAP3 POP SWAP3 POP SWAP3 JUMP JUMPDEST PUSH0 PUSH1 0xFF DUP3 AND SWAP1 POP SWAP2 SWAP1 POP JUMP JUMPDEST PUSH2 0x1C1D DUP2 PUSH2 0x1C08 JUMP JUMPDEST DUP3 MSTORE POP POP JUMP JUMPDEST PUSH0 PUSH1 0x20 DUP3 ADD SWAP1 POP PUSH2 0x1C36 PUSH0 DUP4 ADD DUP5 PUSH2 0x1C14 JUMP JUMPDEST SWAP3 SWAP2 POP POP JUMP JUMPDEST PUSH0 PUSH1 0x20 DUP3 DUP5 SUB SLT ISZERO PUSH2 0x1C51 JUMPI PUSH2 0x1C50 PUSH2 0x1A4D JUMP JUMPDEST JUMPDEST PUSH0 PUSH2 0x1C5E DUP5 DUP3 DUP6 ADD PUSH2 0x1A97 JUMP JUMPDEST SWAP2 POP POP SWAP3 SWAP2 POP POP JUMP JUMPDEST PUSH0 PUSH1 0x20 DUP3 DUP5 SUB SLT ISZERO PUSH2 0x1C7C JUMPI PUSH2 0x1C7B PUSH2 0x1A4D JUMP JUMPDEST JUMPDEST PUSH0 PUSH2 0x1C89 DUP5 DUP3 DUP6 ADD PUSH2 0x1ACA JUMP JUMPDEST SWAP2 POP POP SWAP3 SWAP2 POP POP JUMP JUMPDEST PUSH0 PUSH1 0x40 DUP3 ADD SWAP1 POP PUSH2 0x1CA5 PUSH0 DUP4 ADD DUP6 PUSH2 0x1B77 JUMP JUMPDEST PUSH2 0x1CB2 PUSH1 0x20 DUP4 ADD DUP5 PUSH2 0x1B77 JUMP JUMPDEST SWAP4 SWAP3 POP POP POP JUMP JUMPDEST PUSH0 PUSH0 PUSH1 0x40 DUP4 DUP6 SUB SLT ISZERO PUSH2 0x1CCF JUMPI PUSH2 0x1CCE PUSH2 0x1A4D JUMP JUMPDEST JUMPDEST PUSH0 PUSH2 0x1CDC DUP6 DUP3 DUP7 ADD PUSH2 0x1ACA JUMP JUMPDEST SWAP3 POP POP PUSH1 0x20 PUSH2 0x1CED DUP6 DUP3 DUP7 ADD PUSH2 0x1ACA JUMP JUMPDEST SWAP2 POP POP SWAP3 POP SWAP3 SWAP1 POP JUMP JUMPDEST PUSH0 PUSH0 PUSH1 0x40 DUP4 DUP6 SUB SLT ISZERO PUSH2 0x1D0D JUMPI PUSH2 0x1D0C PUSH2 0x1A4D JUMP JUMPDEST JUMPDEST PUSH0 PUSH2 0x1D1A DUP6 DUP3 DUP7 ADD PUSH2 0x1A97 JUMP JUMPDEST SWAP3 POP POP PUSH1 0x20 PUSH2 0x1D2B DUP6 DUP3 DUP7 ADD PUSH2 0x1A97 JUMP JUMPDEST SWAP2 POP POP SWAP3 POP SWAP3 SWAP1 POP JUMP JUMPDEST PUSH0 PUSH0 PUSH0 PUSH0 PUSH1 0x80 DUP6 DUP8 SUB SLT ISZERO PUSH2 0x1D4D JUMPI PUSH2 0x1D4C PUSH2 0x1A4D JUMP JUMPDEST JUMPDEST PUSH0 PUSH2 0x1D5A DUP8 DUP3 DUP9 ADD PUSH2 0x1A97 JUMP JUMPDEST SWAP5 POP POP PUSH1 0x20 PUSH2 0x1D6B DUP8 DUP3 DUP9 ADD PUSH2 0x1ACA JUMP JUMPDEST SWAP4 POP POP PUSH1 0x40 PUSH2 0x1D7C DUP8 DUP3 DUP9 ADD PUSH2 0x1ACA JUMP JUMPDEST SWAP3 POP POP PUSH1 0x60 PUSH2 0x1D8D DUP8 DUP3 DUP9 ADD PUSH2 0x1A97 JUMP JUMPDEST SWAP2 POP POP SWAP3 SWAP6 SWAP2 SWAP5 POP SWAP3 POP JUMP JUMPDEST PUSH32 0x4E487B7100000000000000000000000000000000000000000000000000000000 PUSH0 MSTORE PUSH1 0x22 PUSH1 0x4 MSTORE PUSH1 0x24 PUSH0 REVERT JUMPDEST PUSH0 PUSH1 0x2 DUP3 DIV SWAP1 POP PUSH1 0x1 DUP3 AND DUP1 PUSH2 0x1DDD JUMPI PUSH1 0x7F DUP3 AND SWAP2 POP JUMPDEST PUSH1 0x20 DUP3 LT DUP2 SUB PUSH2 0x1DF0 JUMPI PUSH2 0x1DEF PUSH2 0x1D99 JUMP JUMPDEST JUMPDEST POP SWAP2 SWAP1 POP JUMP JUMPDEST PUSH32 0x4C50300000000000000000000000000000000000000000000000000000000000 PUSH0 DUP3 ADD MSTORE POP JUMP JUMPDEST PUSH0 PUSH2 0x1E2A PUSH1 0x3 DUP4 PUSH2 0x1978 JUMP JUMPDEST SWAP2 POP PUSH2 0x1E35 DUP3 PUSH2 0x1DF6 JUMP JUMPDEST PUSH1 0x20 DUP3 ADD SWAP1 POP SWAP2 SWAP1 POP JUMP JUMPDEST PUSH0 PUSH1 0x20 DUP3 ADD SWAP1 POP DUP2 DUP2 SUB PUSH0 DUP4 ADD MSTORE PUSH2 0x1E57 DUP2 PUSH2 0x1E1E JUMP JUMPDEST SWAP1 POP SWAP2 SWAP1 POP JUMP JUMPDEST PUSH32 0x4E487B7100000000000000000000000000000000000000000000000000000000 PUSH0 MSTORE PUSH1 0x11 PUSH1 0x4 MSTORE PUSH1 0x24 PUSH0 REVERT JUMPDEST PUSH0 PUSH2 0x1E95 DUP3 PUSH2 0x1AAB JUMP JUMPDEST SWAP2 POP PUSH2 0x1EA0 DUP4 PUSH2 0x1AAB JUMP JUMPDEST SWAP3 POP DUP3 DUP3 MUL PUSH2 0x1EAE DUP2 PUSH2 0x1AAB JUMP JUMPDEST SWAP2 POP DUP3 DUP3 DIV DUP5 EQ DUP4 ISZERO OR PUSH2 0x1EC5 JUMPI PUSH2 0x1EC4 PUSH2 0x1E5E JUMP JUMPDEST JUMPDEST POP SWAP3 SWAP2 POP POP JUMP JUMPDEST PUSH32 0x4E487B7100000000000000000000000000000000000000000000000000000000 PUSH0 MSTORE PUSH1 0x12 PUSH1 0x4 MSTORE PUSH1 0x24 PUSH0 REVERT JUMPDEST PUSH0 PUSH2 0x1F03 DUP3 PUSH2 0x1AAB JUMP JUMPDEST SWAP2 POP PUSH2 0x1F0E DUP4 PUSH2 0x1AAB JUMP JUMPDEST SWAP3 POP DUP3 PUSH2 0x1F1E JUMPI PUSH2 0x1F1D PUSH2 0x1ECC JUMP JUMPDEST JUMPDEST DUP3 DUP3 DIV SWAP1 POP SWAP3 SWAP2 POP POP JUMP JUMPDEST PUSH0 PUSH1 0x60 DUP3 ADD SWAP1 POP PUSH2 0x1F3C PUSH0 DUP4 ADD DUP7 PUSH2 0x1B77 JUMP JUMPDEST PUSH2 0x1F49 PUSH1 0x20 DUP4 ADD DUP6 PUSH2 0x1B77 JUMP JUMPDEST PUSH2 0x1F56 PUSH1 0x40 DUP4 ADD DUP5 PUSH2 0x1B77 JUMP JUMPDEST SWAP5 SWAP4 POP POP POP POP JUMP JUMPDEST PUSH32 0x414D4F554E545300000000000000000000000000000000000000000000000000 PUSH0 DUP3 ADD MSTORE POP JUMP JUMPDEST PUSH0 PUSH2 0x1F92 PUSH1 0x7 DUP4 PUSH2 0x1978 JUMP JUMPDEST SWAP2 POP PUSH2 0x1F9D DUP3 PUSH2 0x1F5E JUMP JUMPDEST PUSH1 0x20 DUP3 ADD SWAP1 POP SWAP2 SWAP1 POP JUMP JUMPDEST PUSH0 PUSH1 0x20 DUP3 ADD SWAP1 POP DUP2 DUP2 SUB PUSH0 DUP4 ADD MSTORE PUSH2 0x1FBF DUP2 PUSH2 0x1F86 JUMP JUMPDEST SWAP1 POP SWAP2 SWAP1 POP JUMP JUMPDEST PUSH32 0x544F4B454E000000000000000000000000000000000000000000000000000000 PUSH0 DUP3 ADD MSTORE POP JUMP JUMPDEST PUSH0 PUSH2 0x1FFA PUSH1 0x5 DUP4 PUSH2 0x1978 JUMP JUMPDEST SWAP2 POP PUSH2 0x2005 DUP3 PUSH2 0x1FC6 JUMP JUMPDEST PUSH1 0x20 DUP3 ADD SWAP1 POP SWAP2 SWAP1 POP JUMP JUMPDEST PUSH0 PUSH1 0x20 DUP3 ADD SWAP1 POP DUP2 DUP2 SUB PUSH0 DUP4 ADD MSTORE PUSH2 0x2027 DUP2 PUSH2 0x1FEE JUMP JUMPDEST SWAP1 POP SWAP2 SWAP1 POP JUMP JUMPDEST PUSH32 0x494E300000000000000000000000000000000000000000000000000000000000 PUSH0 DUP3 ADD MSTORE POP JUMP JUMPDEST PUSH0 PUSH2 0x2062 PUSH1 0x3 DUP4 PUSH2 0x1978 JUMP JUMPDEST SWAP2 POP PUSH2 0x206D DUP3 PUSH2 0x202E JUMP JUMPDEST PUSH1 0x20 DUP3 ADD SWAP1 POP SWAP2 SWAP1 POP JUMP JUMPDEST PUSH0 PUSH1 0x20 DUP3 ADD SWAP1 POP DUP2 DUP2 SUB PUSH0 DUP4 ADD MSTORE PUSH2 0x208F DUP2 PUSH2 0x2056 JUMP JUMPDEST SWAP1 POP SWAP2 SWAP1 POP JUMP JUMPDEST PUSH32 0x544F300000000000000000000000000000000000000000000000000000000000 PUSH0 DUP3 ADD MSTORE POP JUMP JUMPDEST PUSH0 PUSH2 0x20CA PUSH1 0x3 DUP4 PUSH2 0x1978 JUMP JUMPDEST SWAP2 POP PUSH2 0x20D5 DUP3 PUSH2 0x2096 JUMP JUMPDEST PUSH1 0x20 DUP3 ADD SWAP1 POP SWAP2 SWAP1 POP JUMP JUMPDEST PUSH0 PUSH1 0x20 DUP3 ADD SWAP1 POP DUP2 DUP2 SUB PUSH0 DUP4 ADD MSTORE PUSH2 0x20F7 DUP2 PUSH2 0x20BE JUMP JUMPDEST SWAP1 POP SWAP2 SWAP1 POP JUMP JUMPDEST PUSH0 PUSH2 0x2108 DUP3 PUSH2 0x1AAB JUMP JUMPDEST SWAP2 POP PUSH2 0x2113 DUP4 PUSH2 0x1AAB JUMP JUMPDEST SWAP3 POP DUP3 DUP3 ADD SWAP1 POP DUP1 DUP3 GT ISZERO PUSH2 0x212B JUMPI PUSH2 0x212A PUSH2 0x1E5E JUMP JUMPDEST JUMPDEST SWAP3 SWAP2 POP POP JUMP JUMPDEST PUSH32 0x534C495050414745000000000000000000000000000000000000000000000000 PUSH0 DUP3 ADD MSTORE POP JUMP JUMPDEST PUSH0 PUSH2 0x2165 PUSH1 0x8 DUP4 PUSH2 0x1978 JUMP JUMPDEST SWAP2 POP PUSH2 0x2170 DUP3 PUSH2 0x2131 JUMP JUMPDEST PUSH1 0x20 DUP3 ADD SWAP1 POP SWAP2 SWAP1 POP JUMP JUMPDEST PUSH0 PUSH1 0x20 DUP3 ADD SWAP1 POP DUP2 DUP2 SUB PUSH0 DUP4 ADD MSTORE PUSH2 0x2192 DUP2 PUSH2 0x2159 JUMP JUMPDEST SWAP1 POP SWAP2 SWAP1 POP JUMP JUMPDEST PUSH0 PUSH1 0xA0 DUP3 ADD SWAP1 POP PUSH2 0x21AC PUSH0 DUP4 ADD DUP9 PUSH2 0x1B4F JUMP JUMPDEST PUSH2 0x21B9 PUSH1 0x20 DUP4 ADD DUP8 PUSH2 0x1B4F JUMP JUMPDEST PUSH2 0x21C6 PUSH1 0x40 DUP4 ADD DUP7 PUSH2 0x1B77 JUMP JUMPDEST PUSH2 0x21D3 PUSH1 0x60 DUP4 ADD DUP6 PUSH2 0x1B77 JUMP JUMPDEST PUSH2 0x21E0 PUSH1 0x80 DUP4 ADD DUP5 PUSH2 0x1B4F JUMP JUMPDEST SWAP7 SWAP6 POP POP POP POP POP POP JUMP JUMPDEST PUSH0 PUSH1 0x60 DUP3 ADD SWAP1 POP PUSH2 0x21FD PUSH0 DUP4 ADD DUP7 PUSH2 0x1B4F JUMP JUMPDEST PUSH2 0x220A PUSH1 0x20 DUP4 ADD DUP6 PUSH2 0x1B77 JUMP JUMPDEST PUSH2 0x2217 PUSH1 0x40 DUP4 ADD DUP5 PUSH2 0x1B77 JUMP JUMPDEST SWAP5 SWAP4 POP POP POP POP JUMP JUMPDEST PUSH0 PUSH1 0x40 DUP3 ADD SWAP1 POP PUSH2 0x2232 PUSH0 DUP4 ADD DUP6 PUSH2 0x1B4F JUMP JUMPDEST PUSH2 0x223F PUSH1 0x20 DUP4 ADD DUP5 PUSH2 0x1B77 JUMP JUMPDEST SWAP4 SWAP3 POP POP POP JUMP JUMPDEST PUSH0 DUP2 MLOAD SWAP1 POP PUSH2 0x2254 DUP2 PUSH2 0x1AB4 JUMP JUMPDEST SWAP3 SWAP2 POP POP JUMP JUMPDEST PUSH0 PUSH1 0x20 DUP3 DUP5 SUB SLT ISZERO PUSH2 0x226F JUMPI PUSH2 0x226E PUSH2 0x1A4D JUMP JUMPDEST JUMPDEST PUSH0 PUSH2 0x227C DUP5 DUP3 DUP6 ADD PUSH2 0x2246 JUMP JUMPDEST SWAP2 POP POP SWAP3 SWAP2 POP POP JUMP JUMPDEST PUSH0 PUSH1 0x60 DUP3 ADD SWAP1 POP PUSH2 0x2298 PUSH0 DUP4 ADD DUP7 PUSH2 0x1B4F JUMP JUMPDEST PUSH2 0x22A5 PUSH1 0x20 DUP4 ADD DUP6 PUSH2 0x1B4F JUMP JUMPDEST PUSH2 0x22B2 PUSH1 0x40 DUP4 ADD DUP5 PUSH2 0x1B77 JUMP JUMPDEST SWAP5 SWAP4 POP POP POP POP JUMP INVALID LOG2 PUSH5 0x6970667358 0x22 SLT KECCAK256 STATICCALL LOG3 0xA6 SWAP10 JUMPF 0x9EDB GAS 0xC5 0x4E EXTCALL 0xC0 CODESIZE 0xB8 CREATE2 BALANCE SMOD JUMPF 0xC51D PUSH28 0xE8B6EE13654217FBF83B464736F6C634300081F0033000000000000 "
				},
				"gasEstimates": {
					"creation": {
						"codeDepositCost": "1788800",
						"executionCost": "infinite",
						"totalCost": "infinite"
					},
					"external": {
						"addLiquidity(uint256,uint256)": "infinite",
						"allowance(address,address)": "infinite",
						"approve(address,uint256)": "infinite",
						"balanceOf(address)": "2873",
						"decimals()": "427",
						"getReserves()": "infinite",
						"name()": "infinite",
						"removeLiquidity(uint256)": "infinite",
						"reserveA()": "2532",
						"reserveB()": "2562",
						"swap(address,uint256,uint256,address)": "infinite",
						"symbol()": "infinite",
						"tokenA()": "infinite",
						"tokenB()": "infinite",
						"totalSupply()": "2455",
						"transfer(address,uint256)": "infinite",
						"transferFrom(address,address,uint256)": "infinite"
					},
					"internal": {
						"_min(uint256,uint256)": "63",
						"_sqrt(uint256)": "infinite",
						"_sync()": "infinite"
					}
				},
				"methodIdentifiers": {
					"addLiquidity(uint256,uint256)": "9cd441da",
					"allowance(address,address)": "dd62ed3e",
					"approve(address,uint256)": "095ea7b3",
					"balanceOf(address)": "70a08231",
					"decimals()": "313ce567",
					"getReserves()": "0902f1ac",
					"name()": "06fdde03",
					"removeLiquidity(uint256)": "9c8f9f23",
					"reserveA()": "dc5fa6c5",
					"reserveB()": "19e36f3b",
					"swap(address,uint256,uint256,address)": "f3e6ea8a",
					"symbol()": "95d89b41",
					"tokenA()": "0fc63d10",
					"tokenB()": "5f64b55b",
					"totalSupply()": "18160ddd",
					"transfer(address,uint256)": "a9059cbb",
					"transferFrom(address,address,uint256)": "23b872dd"
				}
			},
			"storageLayout": {
				"storage": [
					{
						"astId": 249,
						"contract": "contracts/Pair.sol:Pair",
						"label": "_balances",
						"offset": 0,
						"slot": "0",
						"type": "t_mapping(t_address,t_uint256)"
					},
					{
						"astId": 255,
						"contract": "contracts/Pair.sol:Pair",
						"label": "_allowances",
						"offset": 0,
						"slot": "1",
						"type": "t_mapping(t_address,t_mapping(t_address,t_uint256))"
					},
					{
						"astId": 257,
						"contract": "contracts/Pair.sol:Pair",
						"label": "_totalSupply",
						"offset": 0,
						"slot": "2",
						"type": "t_uint256"
					},
					{
						"astId": 259,
						"contract": "contracts/Pair.sol:Pair",
						"label": "_name",
						"offset": 0,
						"slot": "3",
						"type": "t_string_storage"
					},
					{
						"astId": 261,
						"contract": "contracts/Pair.sol:Pair",
						"label": "_symbol",
						"offset": 0,
						"slot": "4",
						"type": "t_string_storage"
					},
					{
						"astId": 1367,
						"contract": "contracts/Pair.sol:Pair",
						"label": "reserveA",
						"offset": 0,
						"slot": "5",
						"type": "t_uint112"
					},
					{
						"astId": 1369,
						"contract": "contracts/Pair.sol:Pair",
						"label": "reserveB",
						"offset": 14,
						"slot": "5",
						"type": "t_uint112"
					}
				],
				"types": {
					"t_address": {
						"encoding": "inplace",
						"label": "address",
						"numberOfBytes": "20"
					},
					"t_mapping(t_address,t_mapping(t_address,t_uint256))": {
						"encoding": "mapping",
						"key": "t_address",
						"label": "mapping(address => mapping(address => uint256))",
						"numberOfBytes": "32",
						"value": "t_mapping(t_address,t_uint256)"
					},
					"t_mapping(t_address,t_uint256)": {
						"encoding": "mapping",
						"key": "t_address",
						"label": "mapping(address => uint256)",
						"numberOfBytes": "32",
						"value": "t_uint256"
					},
					"t_string_storage": {
						"encoding": "bytes",
						"label": "string",
						"numberOfBytes": "32"
					},
					"t_uint112": {
						"encoding": "inplace",
						"label": "uint112",
						"numberOfBytes": "14"
					},
					"t_uint256": {
						"encoding": "inplace",
						"label": "uint256",
						"numberOfBytes": "32"
					}
				}
			},
			"userdoc": {
				"kind": "user",
				"methods": {},
				"version": 1
			}
		}
	}
}